
Game Controller.elf:     file format elf32-littlearm

Sections:
Idx Name          Size      VMA       LMA       File off  Algn
  0 .isr_vector   00000198  08000000  08000000  00001000  2**0
                  CONTENTS, ALLOC, LOAD, READONLY, DATA
  1 .text         00007688  08000198  08000198  00001198  2**2
                  CONTENTS, ALLOC, LOAD, READONLY, CODE
  2 .rodata       00000060  08007820  08007820  00008820  2**2
                  CONTENTS, ALLOC, LOAD, READONLY, DATA
  3 .ARM.extab    00000000  08007880  08007880  0000911c  2**0
                  CONTENTS
  4 .ARM          00000008  08007880  08007880  00008880  2**2
                  CONTENTS, ALLOC, LOAD, READONLY, DATA
  5 .preinit_array 00000000  08007888  08007888  0000911c  2**0
                  CONTENTS, ALLOC, LOAD, DATA
  6 .init_array   00000004  08007888  08007888  00008888  2**2
                  CONTENTS, ALLOC, LOAD, READONLY, DATA
  7 .fini_array   00000004  0800788c  0800788c  0000888c  2**2
                  CONTENTS, ALLOC, LOAD, READONLY, DATA
  8 .data         0000011c  20000000  08007890  00009000  2**2
                  CONTENTS, ALLOC, LOAD, DATA
  9 .bss          00000b58  2000011c  080079ac  0000911c  2**2
                  ALLOC
 10 ._user_heap_stack 00000604  20000c74  080079ac  00009c74  2**0
                  ALLOC
 11 .ARM.attributes 00000030  00000000  00000000  0000911c  2**0
                  CONTENTS, READONLY
 12 .debug_info   00016066  00000000  00000000  0000914c  2**0
                  CONTENTS, READONLY, DEBUGGING, OCTETS
 13 .debug_abbrev 000034fa  00000000  00000000  0001f1b2  2**0
                  CONTENTS, READONLY, DEBUGGING, OCTETS
 14 .debug_aranges 00001318  00000000  00000000  000226b0  2**3
                  CONTENTS, READONLY, DEBUGGING, OCTETS
 15 .debug_rnglists 00000ebc  00000000  00000000  000239c8  2**0
                  CONTENTS, READONLY, DEBUGGING, OCTETS
 16 .debug_macro  00005284  00000000  00000000  00024884  2**0
                  CONTENTS, READONLY, DEBUGGING, OCTETS
 17 .debug_line   00019691  00000000  00000000  00029b08  2**0
                  CONTENTS, READONLY, DEBUGGING, OCTETS
 18 .debug_str    00099b34  00000000  00000000  00043199  2**0
                  CONTENTS, READONLY, DEBUGGING, OCTETS
 19 .comment      00000043  00000000  00000000  000dcccd  2**0
                  CONTENTS, READONLY
 20 .debug_frame  00005068  00000000  00000000  000dcd10  2**2
                  CONTENTS, READONLY, DEBUGGING, OCTETS
 21 .debug_line_str 00000070  00000000  00000000  000e1d78  2**0
                  CONTENTS, READONLY, DEBUGGING, OCTETS

Disassembly of section .text:

08000198 <__do_global_dtors_aux>:
 8000198:	b510      	push	{r4, lr}
 800019a:	4c05      	ldr	r4, [pc, #20]	@ (80001b0 <__do_global_dtors_aux+0x18>)
 800019c:	7823      	ldrb	r3, [r4, #0]
 800019e:	b933      	cbnz	r3, 80001ae <__do_global_dtors_aux+0x16>
 80001a0:	4b04      	ldr	r3, [pc, #16]	@ (80001b4 <__do_global_dtors_aux+0x1c>)
 80001a2:	b113      	cbz	r3, 80001aa <__do_global_dtors_aux+0x12>
 80001a4:	4804      	ldr	r0, [pc, #16]	@ (80001b8 <__do_global_dtors_aux+0x20>)
 80001a6:	f3af 8000 	nop.w
 80001aa:	2301      	movs	r3, #1
 80001ac:	7023      	strb	r3, [r4, #0]
 80001ae:	bd10      	pop	{r4, pc}
 80001b0:	2000011c 	.word	0x2000011c
 80001b4:	00000000 	.word	0x00000000
 80001b8:	08007808 	.word	0x08007808

080001bc <frame_dummy>:
 80001bc:	b508      	push	{r3, lr}
 80001be:	4b03      	ldr	r3, [pc, #12]	@ (80001cc <frame_dummy+0x10>)
 80001c0:	b11b      	cbz	r3, 80001ca <frame_dummy+0xe>
 80001c2:	4903      	ldr	r1, [pc, #12]	@ (80001d0 <frame_dummy+0x14>)
 80001c4:	4803      	ldr	r0, [pc, #12]	@ (80001d4 <frame_dummy+0x18>)
 80001c6:	f3af 8000 	nop.w
 80001ca:	bd08      	pop	{r3, pc}
 80001cc:	00000000 	.word	0x00000000
 80001d0:	20000120 	.word	0x20000120
 80001d4:	08007808 	.word	0x08007808

080001d8 <__aeabi_uldivmod>:
 80001d8:	b953      	cbnz	r3, 80001f0 <__aeabi_uldivmod+0x18>
 80001da:	b94a      	cbnz	r2, 80001f0 <__aeabi_uldivmod+0x18>
 80001dc:	2900      	cmp	r1, #0
 80001de:	bf08      	it	eq
 80001e0:	2800      	cmpeq	r0, #0
 80001e2:	bf1c      	itt	ne
 80001e4:	f04f 31ff 	movne.w	r1, #4294967295
 80001e8:	f04f 30ff 	movne.w	r0, #4294967295
 80001ec:	f000 b96a 	b.w	80004c4 <__aeabi_idiv0>
 80001f0:	f1ad 0c08 	sub.w	ip, sp, #8
 80001f4:	e96d ce04 	strd	ip, lr, [sp, #-16]!
 80001f8:	f000 f806 	bl	8000208 <__udivmoddi4>
 80001fc:	f8dd e004 	ldr.w	lr, [sp, #4]
 8000200:	e9dd 2302 	ldrd	r2, r3, [sp, #8]
 8000204:	b004      	add	sp, #16
 8000206:	4770      	bx	lr

08000208 <__udivmoddi4>:
 8000208:	e92d 47f0 	stmdb	sp!, {r4, r5, r6, r7, r8, r9, sl, lr}
 800020c:	9d08      	ldr	r5, [sp, #32]
 800020e:	460c      	mov	r4, r1
 8000210:	2b00      	cmp	r3, #0
 8000212:	d14e      	bne.n	80002b2 <__udivmoddi4+0xaa>
 8000214:	4694      	mov	ip, r2
 8000216:	458c      	cmp	ip, r1
 8000218:	4686      	mov	lr, r0
 800021a:	fab2 f282 	clz	r2, r2
 800021e:	d962      	bls.n	80002e6 <__udivmoddi4+0xde>
 8000220:	b14a      	cbz	r2, 8000236 <__udivmoddi4+0x2e>
 8000222:	f1c2 0320 	rsb	r3, r2, #32
 8000226:	4091      	lsls	r1, r2
 8000228:	fa20 f303 	lsr.w	r3, r0, r3
 800022c:	fa0c fc02 	lsl.w	ip, ip, r2
 8000230:	4319      	orrs	r1, r3
 8000232:	fa00 fe02 	lsl.w	lr, r0, r2
 8000236:	ea4f 471c 	mov.w	r7, ip, lsr #16
 800023a:	fa1f f68c 	uxth.w	r6, ip
 800023e:	fbb1 f4f7 	udiv	r4, r1, r7
 8000242:	ea4f 431e 	mov.w	r3, lr, lsr #16
 8000246:	fb07 1114 	mls	r1, r7, r4, r1
 800024a:	ea43 4301 	orr.w	r3, r3, r1, lsl #16
 800024e:	fb04 f106 	mul.w	r1, r4, r6
 8000252:	4299      	cmp	r1, r3
 8000254:	d90a      	bls.n	800026c <__udivmoddi4+0x64>
 8000256:	eb1c 0303 	adds.w	r3, ip, r3
 800025a:	f104 30ff 	add.w	r0, r4, #4294967295
 800025e:	f080 8112 	bcs.w	8000486 <__udivmoddi4+0x27e>
 8000262:	4299      	cmp	r1, r3
 8000264:	f240 810f 	bls.w	8000486 <__udivmoddi4+0x27e>
 8000268:	3c02      	subs	r4, #2
 800026a:	4463      	add	r3, ip
 800026c:	1a59      	subs	r1, r3, r1
 800026e:	fa1f f38e 	uxth.w	r3, lr
 8000272:	fbb1 f0f7 	udiv	r0, r1, r7
 8000276:	fb07 1110 	mls	r1, r7, r0, r1
 800027a:	ea43 4301 	orr.w	r3, r3, r1, lsl #16
 800027e:	fb00 f606 	mul.w	r6, r0, r6
 8000282:	429e      	cmp	r6, r3
 8000284:	d90a      	bls.n	800029c <__udivmoddi4+0x94>
 8000286:	eb1c 0303 	adds.w	r3, ip, r3
 800028a:	f100 31ff 	add.w	r1, r0, #4294967295
 800028e:	f080 80fc 	bcs.w	800048a <__udivmoddi4+0x282>
 8000292:	429e      	cmp	r6, r3
 8000294:	f240 80f9 	bls.w	800048a <__udivmoddi4+0x282>
 8000298:	4463      	add	r3, ip
 800029a:	3802      	subs	r0, #2
 800029c:	1b9b      	subs	r3, r3, r6
 800029e:	ea40 4004 	orr.w	r0, r0, r4, lsl #16
 80002a2:	2100      	movs	r1, #0
 80002a4:	b11d      	cbz	r5, 80002ae <__udivmoddi4+0xa6>
 80002a6:	40d3      	lsrs	r3, r2
 80002a8:	2200      	movs	r2, #0
 80002aa:	e9c5 3200 	strd	r3, r2, [r5]
 80002ae:	e8bd 87f0 	ldmia.w	sp!, {r4, r5, r6, r7, r8, r9, sl, pc}
 80002b2:	428b      	cmp	r3, r1
 80002b4:	d905      	bls.n	80002c2 <__udivmoddi4+0xba>
 80002b6:	b10d      	cbz	r5, 80002bc <__udivmoddi4+0xb4>
 80002b8:	e9c5 0100 	strd	r0, r1, [r5]
 80002bc:	2100      	movs	r1, #0
 80002be:	4608      	mov	r0, r1
 80002c0:	e7f5      	b.n	80002ae <__udivmoddi4+0xa6>
 80002c2:	fab3 f183 	clz	r1, r3
 80002c6:	2900      	cmp	r1, #0
 80002c8:	d146      	bne.n	8000358 <__udivmoddi4+0x150>
 80002ca:	42a3      	cmp	r3, r4
 80002cc:	d302      	bcc.n	80002d4 <__udivmoddi4+0xcc>
 80002ce:	4290      	cmp	r0, r2
 80002d0:	f0c0 80f0 	bcc.w	80004b4 <__udivmoddi4+0x2ac>
 80002d4:	1a86      	subs	r6, r0, r2
 80002d6:	eb64 0303 	sbc.w	r3, r4, r3
 80002da:	2001      	movs	r0, #1
 80002dc:	2d00      	cmp	r5, #0
 80002de:	d0e6      	beq.n	80002ae <__udivmoddi4+0xa6>
 80002e0:	e9c5 6300 	strd	r6, r3, [r5]
 80002e4:	e7e3      	b.n	80002ae <__udivmoddi4+0xa6>
 80002e6:	2a00      	cmp	r2, #0
 80002e8:	f040 8090 	bne.w	800040c <__udivmoddi4+0x204>
 80002ec:	eba1 040c 	sub.w	r4, r1, ip
 80002f0:	ea4f 481c 	mov.w	r8, ip, lsr #16
 80002f4:	fa1f f78c 	uxth.w	r7, ip
 80002f8:	2101      	movs	r1, #1
 80002fa:	fbb4 f6f8 	udiv	r6, r4, r8
 80002fe:	ea4f 431e 	mov.w	r3, lr, lsr #16
 8000302:	fb08 4416 	mls	r4, r8, r6, r4
 8000306:	ea43 4304 	orr.w	r3, r3, r4, lsl #16
 800030a:	fb07 f006 	mul.w	r0, r7, r6
 800030e:	4298      	cmp	r0, r3
 8000310:	d908      	bls.n	8000324 <__udivmoddi4+0x11c>
 8000312:	eb1c 0303 	adds.w	r3, ip, r3
 8000316:	f106 34ff 	add.w	r4, r6, #4294967295
 800031a:	d202      	bcs.n	8000322 <__udivmoddi4+0x11a>
 800031c:	4298      	cmp	r0, r3
 800031e:	f200 80cd 	bhi.w	80004bc <__udivmoddi4+0x2b4>
 8000322:	4626      	mov	r6, r4
 8000324:	1a1c      	subs	r4, r3, r0
 8000326:	fa1f f38e 	uxth.w	r3, lr
 800032a:	fbb4 f0f8 	udiv	r0, r4, r8
 800032e:	fb08 4410 	mls	r4, r8, r0, r4
 8000332:	ea43 4304 	orr.w	r3, r3, r4, lsl #16
 8000336:	fb00 f707 	mul.w	r7, r0, r7
 800033a:	429f      	cmp	r7, r3
 800033c:	d908      	bls.n	8000350 <__udivmoddi4+0x148>
 800033e:	eb1c 0303 	adds.w	r3, ip, r3
 8000342:	f100 34ff 	add.w	r4, r0, #4294967295
 8000346:	d202      	bcs.n	800034e <__udivmoddi4+0x146>
 8000348:	429f      	cmp	r7, r3
 800034a:	f200 80b0 	bhi.w	80004ae <__udivmoddi4+0x2a6>
 800034e:	4620      	mov	r0, r4
 8000350:	1bdb      	subs	r3, r3, r7
 8000352:	ea40 4006 	orr.w	r0, r0, r6, lsl #16
 8000356:	e7a5      	b.n	80002a4 <__udivmoddi4+0x9c>
 8000358:	f1c1 0620 	rsb	r6, r1, #32
 800035c:	408b      	lsls	r3, r1
 800035e:	fa22 f706 	lsr.w	r7, r2, r6
 8000362:	431f      	orrs	r7, r3
 8000364:	fa20 fc06 	lsr.w	ip, r0, r6
 8000368:	fa04 f301 	lsl.w	r3, r4, r1
 800036c:	ea43 030c 	orr.w	r3, r3, ip
 8000370:	40f4      	lsrs	r4, r6
 8000372:	fa00 f801 	lsl.w	r8, r0, r1
 8000376:	0c38      	lsrs	r0, r7, #16
 8000378:	ea4f 4913 	mov.w	r9, r3, lsr #16
 800037c:	fbb4 fef0 	udiv	lr, r4, r0
 8000380:	fa1f fc87 	uxth.w	ip, r7
 8000384:	fb00 441e 	mls	r4, r0, lr, r4
 8000388:	ea49 4404 	orr.w	r4, r9, r4, lsl #16
 800038c:	fb0e f90c 	mul.w	r9, lr, ip
 8000390:	45a1      	cmp	r9, r4
 8000392:	fa02 f201 	lsl.w	r2, r2, r1
 8000396:	d90a      	bls.n	80003ae <__udivmoddi4+0x1a6>
 8000398:	193c      	adds	r4, r7, r4
 800039a:	f10e 3aff 	add.w	sl, lr, #4294967295
 800039e:	f080 8084 	bcs.w	80004aa <__udivmoddi4+0x2a2>
 80003a2:	45a1      	cmp	r9, r4
 80003a4:	f240 8081 	bls.w	80004aa <__udivmoddi4+0x2a2>
 80003a8:	f1ae 0e02 	sub.w	lr, lr, #2
 80003ac:	443c      	add	r4, r7
 80003ae:	eba4 0409 	sub.w	r4, r4, r9
 80003b2:	fa1f f983 	uxth.w	r9, r3
 80003b6:	fbb4 f3f0 	udiv	r3, r4, r0
 80003ba:	fb00 4413 	mls	r4, r0, r3, r4
 80003be:	ea49 4404 	orr.w	r4, r9, r4, lsl #16
 80003c2:	fb03 fc0c 	mul.w	ip, r3, ip
 80003c6:	45a4      	cmp	ip, r4
 80003c8:	d907      	bls.n	80003da <__udivmoddi4+0x1d2>
 80003ca:	193c      	adds	r4, r7, r4
 80003cc:	f103 30ff 	add.w	r0, r3, #4294967295
 80003d0:	d267      	bcs.n	80004a2 <__udivmoddi4+0x29a>
 80003d2:	45a4      	cmp	ip, r4
 80003d4:	d965      	bls.n	80004a2 <__udivmoddi4+0x29a>
 80003d6:	3b02      	subs	r3, #2
 80003d8:	443c      	add	r4, r7
 80003da:	ea43 400e 	orr.w	r0, r3, lr, lsl #16
 80003de:	fba0 9302 	umull	r9, r3, r0, r2
 80003e2:	eba4 040c 	sub.w	r4, r4, ip
 80003e6:	429c      	cmp	r4, r3
 80003e8:	46ce      	mov	lr, r9
 80003ea:	469c      	mov	ip, r3
 80003ec:	d351      	bcc.n	8000492 <__udivmoddi4+0x28a>
 80003ee:	d04e      	beq.n	800048e <__udivmoddi4+0x286>
 80003f0:	b155      	cbz	r5, 8000408 <__udivmoddi4+0x200>
 80003f2:	ebb8 030e 	subs.w	r3, r8, lr
 80003f6:	eb64 040c 	sbc.w	r4, r4, ip
 80003fa:	fa04 f606 	lsl.w	r6, r4, r6
 80003fe:	40cb      	lsrs	r3, r1
 8000400:	431e      	orrs	r6, r3
 8000402:	40cc      	lsrs	r4, r1
 8000404:	e9c5 6400 	strd	r6, r4, [r5]
 8000408:	2100      	movs	r1, #0
 800040a:	e750      	b.n	80002ae <__udivmoddi4+0xa6>
 800040c:	f1c2 0320 	rsb	r3, r2, #32
 8000410:	fa20 f103 	lsr.w	r1, r0, r3
 8000414:	fa0c fc02 	lsl.w	ip, ip, r2
 8000418:	fa24 f303 	lsr.w	r3, r4, r3
 800041c:	4094      	lsls	r4, r2
 800041e:	430c      	orrs	r4, r1
 8000420:	ea4f 481c 	mov.w	r8, ip, lsr #16
 8000424:	fa00 fe02 	lsl.w	lr, r0, r2
 8000428:	fa1f f78c 	uxth.w	r7, ip
 800042c:	fbb3 f0f8 	udiv	r0, r3, r8
 8000430:	fb08 3110 	mls	r1, r8, r0, r3
 8000434:	0c23      	lsrs	r3, r4, #16
 8000436:	ea43 4301 	orr.w	r3, r3, r1, lsl #16
 800043a:	fb00 f107 	mul.w	r1, r0, r7
 800043e:	4299      	cmp	r1, r3
 8000440:	d908      	bls.n	8000454 <__udivmoddi4+0x24c>
 8000442:	eb1c 0303 	adds.w	r3, ip, r3
 8000446:	f100 36ff 	add.w	r6, r0, #4294967295
 800044a:	d22c      	bcs.n	80004a6 <__udivmoddi4+0x29e>
 800044c:	4299      	cmp	r1, r3
 800044e:	d92a      	bls.n	80004a6 <__udivmoddi4+0x29e>
 8000450:	3802      	subs	r0, #2
 8000452:	4463      	add	r3, ip
 8000454:	1a5b      	subs	r3, r3, r1
 8000456:	b2a4      	uxth	r4, r4
 8000458:	fbb3 f1f8 	udiv	r1, r3, r8
 800045c:	fb08 3311 	mls	r3, r8, r1, r3
 8000460:	ea44 4403 	orr.w	r4, r4, r3, lsl #16
 8000464:	fb01 f307 	mul.w	r3, r1, r7
 8000468:	42a3      	cmp	r3, r4
 800046a:	d908      	bls.n	800047e <__udivmoddi4+0x276>
 800046c:	eb1c 0404 	adds.w	r4, ip, r4
 8000470:	f101 36ff 	add.w	r6, r1, #4294967295
 8000474:	d213      	bcs.n	800049e <__udivmoddi4+0x296>
 8000476:	42a3      	cmp	r3, r4
 8000478:	d911      	bls.n	800049e <__udivmoddi4+0x296>
 800047a:	3902      	subs	r1, #2
 800047c:	4464      	add	r4, ip
 800047e:	1ae4      	subs	r4, r4, r3
 8000480:	ea41 4100 	orr.w	r1, r1, r0, lsl #16
 8000484:	e739      	b.n	80002fa <__udivmoddi4+0xf2>
 8000486:	4604      	mov	r4, r0
 8000488:	e6f0      	b.n	800026c <__udivmoddi4+0x64>
 800048a:	4608      	mov	r0, r1
 800048c:	e706      	b.n	800029c <__udivmoddi4+0x94>
 800048e:	45c8      	cmp	r8, r9
 8000490:	d2ae      	bcs.n	80003f0 <__udivmoddi4+0x1e8>
 8000492:	ebb9 0e02 	subs.w	lr, r9, r2
 8000496:	eb63 0c07 	sbc.w	ip, r3, r7
 800049a:	3801      	subs	r0, #1
 800049c:	e7a8      	b.n	80003f0 <__udivmoddi4+0x1e8>
 800049e:	4631      	mov	r1, r6
 80004a0:	e7ed      	b.n	800047e <__udivmoddi4+0x276>
 80004a2:	4603      	mov	r3, r0
 80004a4:	e799      	b.n	80003da <__udivmoddi4+0x1d2>
 80004a6:	4630      	mov	r0, r6
 80004a8:	e7d4      	b.n	8000454 <__udivmoddi4+0x24c>
 80004aa:	46d6      	mov	lr, sl
 80004ac:	e77f      	b.n	80003ae <__udivmoddi4+0x1a6>
 80004ae:	4463      	add	r3, ip
 80004b0:	3802      	subs	r0, #2
 80004b2:	e74d      	b.n	8000350 <__udivmoddi4+0x148>
 80004b4:	4606      	mov	r6, r0
 80004b6:	4623      	mov	r3, r4
 80004b8:	4608      	mov	r0, r1
 80004ba:	e70f      	b.n	80002dc <__udivmoddi4+0xd4>
 80004bc:	3e02      	subs	r6, #2
 80004be:	4463      	add	r3, ip
 80004c0:	e730      	b.n	8000324 <__udivmoddi4+0x11c>
 80004c2:	bf00      	nop

080004c4 <__aeabi_idiv0>:
 80004c4:	4770      	bx	lr
 80004c6:	bf00      	nop

080004c8 <main>:
/**
  * @brief  The application entry point.
  * @retval int
  */
int main(void)
{
 80004c8:	b580      	push	{r7, lr}
 80004ca:	b082      	sub	sp, #8
 80004cc:	af02      	add	r7, sp, #8
  /* USER CODE END 1 */

  /* MCU Configuration--------------------------------------------------------*/

  /* Reset of all peripherals, Initializes the Flash interface and the Systick. */
  HAL_Init();
 80004ce:	f000 fc0d 	bl	8000cec <HAL_Init>
  /* USER CODE BEGIN Init */

  /* USER CODE END Init */

  /* Configure the system clock */
  SystemClock_Config();
 80004d2:	f000 f831 	bl	8000538 <SystemClock_Config>
  /* USER CODE BEGIN SysInit */

  /* USER CODE END SysInit */

  /* Initialize all configured peripherals */
  MX_GPIO_Init();
 80004d6:	f000 f99b 	bl	8000810 <MX_GPIO_Init>
  MX_ADC1_Init();
 80004da:	f000 f895 	bl	8000608 <MX_ADC1_Init>
  MX_I2C1_Init();
 80004de:	f000 f909 	bl	80006f4 <MX_I2C1_Init>
  MX_SPI1_Init();
 80004e2:	f000 f935 	bl	8000750 <MX_SPI1_Init>
  MX_USART1_UART_Init();
 80004e6:	f000 f969 	bl	80007bc <MX_USART1_UART_Init>
  MX_USB_DEVICE_Init();
 80004ea:	f006 fd33 	bl	8006f54 <MX_USB_DEVICE_Init>
  /* USER CODE BEGIN 2 */

  tca9555_Init(&ioBank0, &hi2c1, 0, INT_BANK0_GPIO_Port, INT_BANK0_Pin);
 80004ee:	2301      	movs	r3, #1
 80004f0:	9300      	str	r3, [sp, #0]
 80004f2:	4b0c      	ldr	r3, [pc, #48]	@ (8000524 <main+0x5c>)
 80004f4:	2200      	movs	r2, #0
 80004f6:	490c      	ldr	r1, [pc, #48]	@ (8000528 <main+0x60>)
 80004f8:	480c      	ldr	r0, [pc, #48]	@ (800052c <main+0x64>)
 80004fa:	f000 fb7b 	bl	8000bf4 <tca9555_Init>
//  tca9555_ConfigPort(&ioBank0, TCA9555_PortA, 0xFF);
//  tca9555_ConfigPort(&ioBank0, TCA9555_PortB, 0xFF);
//  tca9555_PolarityPort(&ioBank0, TCA9555_PortA, 0);
//  tca9555_PolarityPort(&ioBank0, TCA9555_PortB, 0);

  tca9555_Init(&ioBank1, &hi2c1, 1, INT_BANK1_GPIO_Port, INT_BANK1_Pin);
 80004fe:	2302      	movs	r3, #2
 8000500:	9300      	str	r3, [sp, #0]
 8000502:	4b08      	ldr	r3, [pc, #32]	@ (8000524 <main+0x5c>)
 8000504:	2201      	movs	r2, #1
 8000506:	4908      	ldr	r1, [pc, #32]	@ (8000528 <main+0x60>)
 8000508:	4809      	ldr	r0, [pc, #36]	@ (8000530 <main+0x68>)
 800050a:	f000 fb73 	bl	8000bf4 <tca9555_Init>
//  tca9555_ConfigPort(&ioBank1, TCA9555_PortA, 0xFF);
//  tca9555_ConfigPort(&ioBank1, TCA9555_PortB, 0xFF);
//  tca9555_PolarityPort(&ioBank1, TCA9555_PortA, 0);
//  tca9555_PolarityPort(&ioBank1, TCA9555_PortB, 0);

  tca9555_Init(&ioBank2, &hi2c1, 2, INT_BANK2_GPIO_Port, INT_BANK2_Pin);
 800050e:	2304      	movs	r3, #4
 8000510:	9300      	str	r3, [sp, #0]
 8000512:	4b04      	ldr	r3, [pc, #16]	@ (8000524 <main+0x5c>)
 8000514:	2202      	movs	r2, #2
 8000516:	4904      	ldr	r1, [pc, #16]	@ (8000528 <main+0x60>)
 8000518:	4806      	ldr	r0, [pc, #24]	@ (8000534 <main+0x6c>)
 800051a:	f000 fb6b 	bl	8000bf4 <tca9555_Init>

  /* USER CODE END 2 */

  /* Infinite loop */
  /* USER CODE BEGIN WHILE */
  while (1)
 800051e:	bf00      	nop
 8000520:	e7fd      	b.n	800051e <main+0x56>
 8000522:	bf00      	nop
 8000524:	40020400 	.word	0x40020400
 8000528:	20000180 	.word	0x20000180
 800052c:	20000274 	.word	0x20000274
 8000530:	20000280 	.word	0x20000280
 8000534:	2000028c 	.word	0x2000028c

08000538 <SystemClock_Config>:
/**
  * @brief System Clock Configuration
  * @retval None
  */
void SystemClock_Config(void)
{
 8000538:	b580      	push	{r7, lr}
 800053a:	b094      	sub	sp, #80	@ 0x50
 800053c:	af00      	add	r7, sp, #0
  RCC_OscInitTypeDef RCC_OscInitStruct = {0};
 800053e:	f107 0320 	add.w	r3, r7, #32
 8000542:	2230      	movs	r2, #48	@ 0x30
 8000544:	2100      	movs	r1, #0
 8000546:	4618      	mov	r0, r3
 8000548:	f007 f932 	bl	80077b0 <memset>
  RCC_ClkInitTypeDef RCC_ClkInitStruct = {0};
 800054c:	f107 030c 	add.w	r3, r7, #12
 8000550:	2200      	movs	r2, #0
 8000552:	601a      	str	r2, [r3, #0]
 8000554:	605a      	str	r2, [r3, #4]
 8000556:	609a      	str	r2, [r3, #8]
 8000558:	60da      	str	r2, [r3, #12]
 800055a:	611a      	str	r2, [r3, #16]

  /** Configure the main internal regulator output voltage
  */
  __HAL_RCC_PWR_CLK_ENABLE();
 800055c:	2300      	movs	r3, #0
 800055e:	60bb      	str	r3, [r7, #8]
 8000560:	4b27      	ldr	r3, [pc, #156]	@ (8000600 <SystemClock_Config+0xc8>)
 8000562:	6c1b      	ldr	r3, [r3, #64]	@ 0x40
 8000564:	4a26      	ldr	r2, [pc, #152]	@ (8000600 <SystemClock_Config+0xc8>)
 8000566:	f043 5380 	orr.w	r3, r3, #268435456	@ 0x10000000
 800056a:	6413      	str	r3, [r2, #64]	@ 0x40
 800056c:	4b24      	ldr	r3, [pc, #144]	@ (8000600 <SystemClock_Config+0xc8>)
 800056e:	6c1b      	ldr	r3, [r3, #64]	@ 0x40
 8000570:	f003 5380 	and.w	r3, r3, #268435456	@ 0x10000000
 8000574:	60bb      	str	r3, [r7, #8]
 8000576:	68bb      	ldr	r3, [r7, #8]
  __HAL_PWR_VOLTAGESCALING_CONFIG(PWR_REGULATOR_VOLTAGE_SCALE1);
 8000578:	2300      	movs	r3, #0
 800057a:	607b      	str	r3, [r7, #4]
 800057c:	4b21      	ldr	r3, [pc, #132]	@ (8000604 <SystemClock_Config+0xcc>)
 800057e:	681b      	ldr	r3, [r3, #0]
 8000580:	4a20      	ldr	r2, [pc, #128]	@ (8000604 <SystemClock_Config+0xcc>)
 8000582:	f443 4340 	orr.w	r3, r3, #49152	@ 0xc000
 8000586:	6013      	str	r3, [r2, #0]
 8000588:	4b1e      	ldr	r3, [pc, #120]	@ (8000604 <SystemClock_Config+0xcc>)
 800058a:	681b      	ldr	r3, [r3, #0]
 800058c:	f403 4340 	and.w	r3, r3, #49152	@ 0xc000
 8000590:	607b      	str	r3, [r7, #4]
 8000592:	687b      	ldr	r3, [r7, #4]

  /** Initializes the RCC Oscillators according to the specified parameters
  * in the RCC_OscInitTypeDef structure.
  */
  RCC_OscInitStruct.OscillatorType = RCC_OSCILLATORTYPE_HSE;
 8000594:	2301      	movs	r3, #1
 8000596:	623b      	str	r3, [r7, #32]
  RCC_OscInitStruct.HSEState = RCC_HSE_ON;
 8000598:	f44f 3380 	mov.w	r3, #65536	@ 0x10000
 800059c:	627b      	str	r3, [r7, #36]	@ 0x24
  RCC_OscInitStruct.PLL.PLLState = RCC_PLL_ON;
 800059e:	2302      	movs	r3, #2
 80005a0:	63bb      	str	r3, [r7, #56]	@ 0x38
  RCC_OscInitStruct.PLL.PLLSource = RCC_PLLSOURCE_HSE;
 80005a2:	f44f 0380 	mov.w	r3, #4194304	@ 0x400000
 80005a6:	63fb      	str	r3, [r7, #60]	@ 0x3c
  RCC_OscInitStruct.PLL.PLLM = 25;
 80005a8:	2319      	movs	r3, #25
 80005aa:	643b      	str	r3, [r7, #64]	@ 0x40
  RCC_OscInitStruct.PLL.PLLN = 192;
 80005ac:	23c0      	movs	r3, #192	@ 0xc0
 80005ae:	647b      	str	r3, [r7, #68]	@ 0x44
  RCC_OscInitStruct.PLL.PLLP = RCC_PLLP_DIV2;
 80005b0:	2302      	movs	r3, #2
 80005b2:	64bb      	str	r3, [r7, #72]	@ 0x48
  RCC_OscInitStruct.PLL.PLLQ = 4;
 80005b4:	2304      	movs	r3, #4
 80005b6:	64fb      	str	r3, [r7, #76]	@ 0x4c
  if (HAL_RCC_OscConfig(&RCC_OscInitStruct) != HAL_OK)
 80005b8:	f107 0320 	add.w	r3, r7, #32
 80005bc:	4618      	mov	r0, r3
 80005be:	f002 fccb 	bl	8002f58 <HAL_RCC_OscConfig>
 80005c2:	4603      	mov	r3, r0
 80005c4:	2b00      	cmp	r3, #0
 80005c6:	d001      	beq.n	80005cc <SystemClock_Config+0x94>
  {
    Error_Handler();
 80005c8:	f000 f97e 	bl	80008c8 <Error_Handler>
  }

  /** Initializes the CPU, AHB and APB buses clocks
  */
  RCC_ClkInitStruct.ClockType = RCC_CLOCKTYPE_HCLK|RCC_CLOCKTYPE_SYSCLK
 80005cc:	230f      	movs	r3, #15
 80005ce:	60fb      	str	r3, [r7, #12]
                              |RCC_CLOCKTYPE_PCLK1|RCC_CLOCKTYPE_PCLK2;
  RCC_ClkInitStruct.SYSCLKSource = RCC_SYSCLKSOURCE_PLLCLK;
 80005d0:	2302      	movs	r3, #2
 80005d2:	613b      	str	r3, [r7, #16]
  RCC_ClkInitStruct.AHBCLKDivider = RCC_SYSCLK_DIV1;
 80005d4:	2300      	movs	r3, #0
 80005d6:	617b      	str	r3, [r7, #20]
  RCC_ClkInitStruct.APB1CLKDivider = RCC_HCLK_DIV2;
 80005d8:	f44f 5380 	mov.w	r3, #4096	@ 0x1000
 80005dc:	61bb      	str	r3, [r7, #24]
  RCC_ClkInitStruct.APB2CLKDivider = RCC_HCLK_DIV1;
 80005de:	2300      	movs	r3, #0
 80005e0:	61fb      	str	r3, [r7, #28]

  if (HAL_RCC_ClockConfig(&RCC_ClkInitStruct, FLASH_LATENCY_3) != HAL_OK)
 80005e2:	f107 030c 	add.w	r3, r7, #12
 80005e6:	2103      	movs	r1, #3
 80005e8:	4618      	mov	r0, r3
 80005ea:	f002 ff2d 	bl	8003448 <HAL_RCC_ClockConfig>
 80005ee:	4603      	mov	r3, r0
 80005f0:	2b00      	cmp	r3, #0
 80005f2:	d001      	beq.n	80005f8 <SystemClock_Config+0xc0>
  {
    Error_Handler();
 80005f4:	f000 f968 	bl	80008c8 <Error_Handler>
  }
}
 80005f8:	bf00      	nop
 80005fa:	3750      	adds	r7, #80	@ 0x50
 80005fc:	46bd      	mov	sp, r7
 80005fe:	bd80      	pop	{r7, pc}
 8000600:	40023800 	.word	0x40023800
 8000604:	40007000 	.word	0x40007000

08000608 <MX_ADC1_Init>:
  * @brief ADC1 Initialization Function
  * @param None
  * @retval None
  */
static void MX_ADC1_Init(void)
{
 8000608:	b580      	push	{r7, lr}
 800060a:	b084      	sub	sp, #16
 800060c:	af00      	add	r7, sp, #0

  /* USER CODE BEGIN ADC1_Init 0 */

  /* USER CODE END ADC1_Init 0 */

  ADC_ChannelConfTypeDef sConfig = {0};
 800060e:	463b      	mov	r3, r7
 8000610:	2200      	movs	r2, #0
 8000612:	601a      	str	r2, [r3, #0]
 8000614:	605a      	str	r2, [r3, #4]
 8000616:	609a      	str	r2, [r3, #8]
 8000618:	60da      	str	r2, [r3, #12]

  /* USER CODE END ADC1_Init 1 */

  /** Configure the global features of the ADC (Clock, Resolution, Data Alignment and number of conversion)
  */
  hadc1.Instance = ADC1;
 800061a:	4b33      	ldr	r3, [pc, #204]	@ (80006e8 <MX_ADC1_Init+0xe0>)
 800061c:	4a33      	ldr	r2, [pc, #204]	@ (80006ec <MX_ADC1_Init+0xe4>)
 800061e:	601a      	str	r2, [r3, #0]
  hadc1.Init.ClockPrescaler = ADC_CLOCK_SYNC_PCLK_DIV4;
 8000620:	4b31      	ldr	r3, [pc, #196]	@ (80006e8 <MX_ADC1_Init+0xe0>)
 8000622:	f44f 3280 	mov.w	r2, #65536	@ 0x10000
 8000626:	605a      	str	r2, [r3, #4]
  hadc1.Init.Resolution = ADC_RESOLUTION_12B;
 8000628:	4b2f      	ldr	r3, [pc, #188]	@ (80006e8 <MX_ADC1_Init+0xe0>)
 800062a:	2200      	movs	r2, #0
 800062c:	609a      	str	r2, [r3, #8]
  hadc1.Init.ScanConvMode = ENABLE;
 800062e:	4b2e      	ldr	r3, [pc, #184]	@ (80006e8 <MX_ADC1_Init+0xe0>)
 8000630:	2201      	movs	r2, #1
 8000632:	611a      	str	r2, [r3, #16]
  hadc1.Init.ContinuousConvMode = DISABLE;
 8000634:	4b2c      	ldr	r3, [pc, #176]	@ (80006e8 <MX_ADC1_Init+0xe0>)
 8000636:	2200      	movs	r2, #0
 8000638:	761a      	strb	r2, [r3, #24]
  hadc1.Init.DiscontinuousConvMode = DISABLE;
 800063a:	4b2b      	ldr	r3, [pc, #172]	@ (80006e8 <MX_ADC1_Init+0xe0>)
 800063c:	2200      	movs	r2, #0
 800063e:	f883 2020 	strb.w	r2, [r3, #32]
  hadc1.Init.ExternalTrigConvEdge = ADC_EXTERNALTRIGCONVEDGE_NONE;
 8000642:	4b29      	ldr	r3, [pc, #164]	@ (80006e8 <MX_ADC1_Init+0xe0>)
 8000644:	2200      	movs	r2, #0
 8000646:	62da      	str	r2, [r3, #44]	@ 0x2c
  hadc1.Init.ExternalTrigConv = ADC_SOFTWARE_START;
 8000648:	4b27      	ldr	r3, [pc, #156]	@ (80006e8 <MX_ADC1_Init+0xe0>)
 800064a:	4a29      	ldr	r2, [pc, #164]	@ (80006f0 <MX_ADC1_Init+0xe8>)
 800064c:	629a      	str	r2, [r3, #40]	@ 0x28
  hadc1.Init.DataAlign = ADC_DATAALIGN_RIGHT;
 800064e:	4b26      	ldr	r3, [pc, #152]	@ (80006e8 <MX_ADC1_Init+0xe0>)
 8000650:	2200      	movs	r2, #0
 8000652:	60da      	str	r2, [r3, #12]
  hadc1.Init.NbrOfConversion = 4;
 8000654:	4b24      	ldr	r3, [pc, #144]	@ (80006e8 <MX_ADC1_Init+0xe0>)
 8000656:	2204      	movs	r2, #4
 8000658:	61da      	str	r2, [r3, #28]
  hadc1.Init.DMAContinuousRequests = DISABLE;
 800065a:	4b23      	ldr	r3, [pc, #140]	@ (80006e8 <MX_ADC1_Init+0xe0>)
 800065c:	2200      	movs	r2, #0
 800065e:	f883 2030 	strb.w	r2, [r3, #48]	@ 0x30
  hadc1.Init.EOCSelection = ADC_EOC_SINGLE_CONV;
 8000662:	4b21      	ldr	r3, [pc, #132]	@ (80006e8 <MX_ADC1_Init+0xe0>)
 8000664:	2201      	movs	r2, #1
 8000666:	615a      	str	r2, [r3, #20]
  if (HAL_ADC_Init(&hadc1) != HAL_OK)
 8000668:	481f      	ldr	r0, [pc, #124]	@ (80006e8 <MX_ADC1_Init+0xe0>)
 800066a:	f000 fbd5 	bl	8000e18 <HAL_ADC_Init>
 800066e:	4603      	mov	r3, r0
 8000670:	2b00      	cmp	r3, #0
 8000672:	d001      	beq.n	8000678 <MX_ADC1_Init+0x70>
  {
    Error_Handler();
 8000674:	f000 f928 	bl	80008c8 <Error_Handler>
  }

  /** Configure for the selected ADC regular channel its corresponding rank in the sequencer and its sample time.
  */
  sConfig.Channel = ADC_CHANNEL_0;
 8000678:	2300      	movs	r3, #0
 800067a:	603b      	str	r3, [r7, #0]
  sConfig.Rank = 1;
 800067c:	2301      	movs	r3, #1
 800067e:	607b      	str	r3, [r7, #4]
  sConfig.SamplingTime = ADC_SAMPLETIME_3CYCLES;
 8000680:	2300      	movs	r3, #0
 8000682:	60bb      	str	r3, [r7, #8]
  if (HAL_ADC_ConfigChannel(&hadc1, &sConfig) != HAL_OK)
 8000684:	463b      	mov	r3, r7
 8000686:	4619      	mov	r1, r3
 8000688:	4817      	ldr	r0, [pc, #92]	@ (80006e8 <MX_ADC1_Init+0xe0>)
 800068a:	f000 fc09 	bl	8000ea0 <HAL_ADC_ConfigChannel>
 800068e:	4603      	mov	r3, r0
 8000690:	2b00      	cmp	r3, #0
 8000692:	d001      	beq.n	8000698 <MX_ADC1_Init+0x90>
  {
    Error_Handler();
 8000694:	f000 f918 	bl	80008c8 <Error_Handler>
  }

  /** Configure for the selected ADC regular channel its corresponding rank in the sequencer and its sample time.
  */
  sConfig.Rank = 2;
 8000698:	2302      	movs	r3, #2
 800069a:	607b      	str	r3, [r7, #4]
  if (HAL_ADC_ConfigChannel(&hadc1, &sConfig) != HAL_OK)
 800069c:	463b      	mov	r3, r7
 800069e:	4619      	mov	r1, r3
 80006a0:	4811      	ldr	r0, [pc, #68]	@ (80006e8 <MX_ADC1_Init+0xe0>)
 80006a2:	f000 fbfd 	bl	8000ea0 <HAL_ADC_ConfigChannel>
 80006a6:	4603      	mov	r3, r0
 80006a8:	2b00      	cmp	r3, #0
 80006aa:	d001      	beq.n	80006b0 <MX_ADC1_Init+0xa8>
  {
    Error_Handler();
 80006ac:	f000 f90c 	bl	80008c8 <Error_Handler>
  }

  /** Configure for the selected ADC regular channel its corresponding rank in the sequencer and its sample time.
  */
  sConfig.Rank = 3;
 80006b0:	2303      	movs	r3, #3
 80006b2:	607b      	str	r3, [r7, #4]
  if (HAL_ADC_ConfigChannel(&hadc1, &sConfig) != HAL_OK)
 80006b4:	463b      	mov	r3, r7
 80006b6:	4619      	mov	r1, r3
 80006b8:	480b      	ldr	r0, [pc, #44]	@ (80006e8 <MX_ADC1_Init+0xe0>)
 80006ba:	f000 fbf1 	bl	8000ea0 <HAL_ADC_ConfigChannel>
 80006be:	4603      	mov	r3, r0
 80006c0:	2b00      	cmp	r3, #0
 80006c2:	d001      	beq.n	80006c8 <MX_ADC1_Init+0xc0>
  {
    Error_Handler();
 80006c4:	f000 f900 	bl	80008c8 <Error_Handler>
  }

  /** Configure for the selected ADC regular channel its corresponding rank in the sequencer and its sample time.
  */
  sConfig.Rank = 4;
 80006c8:	2304      	movs	r3, #4
 80006ca:	607b      	str	r3, [r7, #4]
  if (HAL_ADC_ConfigChannel(&hadc1, &sConfig) != HAL_OK)
 80006cc:	463b      	mov	r3, r7
 80006ce:	4619      	mov	r1, r3
 80006d0:	4805      	ldr	r0, [pc, #20]	@ (80006e8 <MX_ADC1_Init+0xe0>)
 80006d2:	f000 fbe5 	bl	8000ea0 <HAL_ADC_ConfigChannel>
 80006d6:	4603      	mov	r3, r0
 80006d8:	2b00      	cmp	r3, #0
 80006da:	d001      	beq.n	80006e0 <MX_ADC1_Init+0xd8>
  {
    Error_Handler();
 80006dc:	f000 f8f4 	bl	80008c8 <Error_Handler>
  }
  /* USER CODE BEGIN ADC1_Init 2 */

  /* USER CODE END ADC1_Init 2 */

}
 80006e0:	bf00      	nop
 80006e2:	3710      	adds	r7, #16
 80006e4:	46bd      	mov	sp, r7
 80006e6:	bd80      	pop	{r7, pc}
 80006e8:	20000138 	.word	0x20000138
 80006ec:	40012000 	.word	0x40012000
 80006f0:	0f000001 	.word	0x0f000001

080006f4 <MX_I2C1_Init>:
  * @brief I2C1 Initialization Function
  * @param None
  * @retval None
  */
static void MX_I2C1_Init(void)
{
 80006f4:	b580      	push	{r7, lr}
 80006f6:	af00      	add	r7, sp, #0
  /* USER CODE END I2C1_Init 0 */

  /* USER CODE BEGIN I2C1_Init 1 */

  /* USER CODE END I2C1_Init 1 */
  hi2c1.Instance = I2C1;
 80006f8:	4b12      	ldr	r3, [pc, #72]	@ (8000744 <MX_I2C1_Init+0x50>)
 80006fa:	4a13      	ldr	r2, [pc, #76]	@ (8000748 <MX_I2C1_Init+0x54>)
 80006fc:	601a      	str	r2, [r3, #0]
  hi2c1.Init.ClockSpeed = 100000;
 80006fe:	4b11      	ldr	r3, [pc, #68]	@ (8000744 <MX_I2C1_Init+0x50>)
 8000700:	4a12      	ldr	r2, [pc, #72]	@ (800074c <MX_I2C1_Init+0x58>)
 8000702:	605a      	str	r2, [r3, #4]
  hi2c1.Init.DutyCycle = I2C_DUTYCYCLE_2;
 8000704:	4b0f      	ldr	r3, [pc, #60]	@ (8000744 <MX_I2C1_Init+0x50>)
 8000706:	2200      	movs	r2, #0
 8000708:	609a      	str	r2, [r3, #8]
  hi2c1.Init.OwnAddress1 = 0;
 800070a:	4b0e      	ldr	r3, [pc, #56]	@ (8000744 <MX_I2C1_Init+0x50>)
 800070c:	2200      	movs	r2, #0
 800070e:	60da      	str	r2, [r3, #12]
  hi2c1.Init.AddressingMode = I2C_ADDRESSINGMODE_7BIT;
 8000710:	4b0c      	ldr	r3, [pc, #48]	@ (8000744 <MX_I2C1_Init+0x50>)
 8000712:	f44f 4280 	mov.w	r2, #16384	@ 0x4000
 8000716:	611a      	str	r2, [r3, #16]
  hi2c1.Init.DualAddressMode = I2C_DUALADDRESS_DISABLE;
 8000718:	4b0a      	ldr	r3, [pc, #40]	@ (8000744 <MX_I2C1_Init+0x50>)
 800071a:	2200      	movs	r2, #0
 800071c:	615a      	str	r2, [r3, #20]
  hi2c1.Init.OwnAddress2 = 0;
 800071e:	4b09      	ldr	r3, [pc, #36]	@ (8000744 <MX_I2C1_Init+0x50>)
 8000720:	2200      	movs	r2, #0
 8000722:	619a      	str	r2, [r3, #24]
  hi2c1.Init.GeneralCallMode = I2C_GENERALCALL_DISABLE;
 8000724:	4b07      	ldr	r3, [pc, #28]	@ (8000744 <MX_I2C1_Init+0x50>)
 8000726:	2200      	movs	r2, #0
 8000728:	61da      	str	r2, [r3, #28]
  hi2c1.Init.NoStretchMode = I2C_NOSTRETCH_DISABLE;
 800072a:	4b06      	ldr	r3, [pc, #24]	@ (8000744 <MX_I2C1_Init+0x50>)
 800072c:	2200      	movs	r2, #0
 800072e:	621a      	str	r2, [r3, #32]
  if (HAL_I2C_Init(&hi2c1) != HAL_OK)
 8000730:	4804      	ldr	r0, [pc, #16]	@ (8000744 <MX_I2C1_Init+0x50>)
 8000732:	f001 f893 	bl	800185c <HAL_I2C_Init>
 8000736:	4603      	mov	r3, r0
 8000738:	2b00      	cmp	r3, #0
 800073a:	d001      	beq.n	8000740 <MX_I2C1_Init+0x4c>
  {
    Error_Handler();
 800073c:	f000 f8c4 	bl	80008c8 <Error_Handler>
  }
  /* USER CODE BEGIN I2C1_Init 2 */

  /* USER CODE END I2C1_Init 2 */

}
 8000740:	bf00      	nop
 8000742:	bd80      	pop	{r7, pc}
 8000744:	20000180 	.word	0x20000180
 8000748:	40005400 	.word	0x40005400
 800074c:	000186a0 	.word	0x000186a0

08000750 <MX_SPI1_Init>:
  * @brief SPI1 Initialization Function
  * @param None
  * @retval None
  */
static void MX_SPI1_Init(void)
{
 8000750:	b580      	push	{r7, lr}
 8000752:	af00      	add	r7, sp, #0

  /* USER CODE BEGIN SPI1_Init 1 */

  /* USER CODE END SPI1_Init 1 */
  /* SPI1 parameter configuration*/
  hspi1.Instance = SPI1;
 8000754:	4b17      	ldr	r3, [pc, #92]	@ (80007b4 <MX_SPI1_Init+0x64>)
 8000756:	4a18      	ldr	r2, [pc, #96]	@ (80007b8 <MX_SPI1_Init+0x68>)
 8000758:	601a      	str	r2, [r3, #0]
  hspi1.Init.Mode = SPI_MODE_MASTER;
 800075a:	4b16      	ldr	r3, [pc, #88]	@ (80007b4 <MX_SPI1_Init+0x64>)
 800075c:	f44f 7282 	mov.w	r2, #260	@ 0x104
 8000760:	605a      	str	r2, [r3, #4]
  hspi1.Init.Direction = SPI_DIRECTION_2LINES;
 8000762:	4b14      	ldr	r3, [pc, #80]	@ (80007b4 <MX_SPI1_Init+0x64>)
 8000764:	2200      	movs	r2, #0
 8000766:	609a      	str	r2, [r3, #8]
  hspi1.Init.DataSize = SPI_DATASIZE_8BIT;
 8000768:	4b12      	ldr	r3, [pc, #72]	@ (80007b4 <MX_SPI1_Init+0x64>)
 800076a:	2200      	movs	r2, #0
 800076c:	60da      	str	r2, [r3, #12]
  hspi1.Init.CLKPolarity = SPI_POLARITY_LOW;
 800076e:	4b11      	ldr	r3, [pc, #68]	@ (80007b4 <MX_SPI1_Init+0x64>)
 8000770:	2200      	movs	r2, #0
 8000772:	611a      	str	r2, [r3, #16]
  hspi1.Init.CLKPhase = SPI_PHASE_1EDGE;
 8000774:	4b0f      	ldr	r3, [pc, #60]	@ (80007b4 <MX_SPI1_Init+0x64>)
 8000776:	2200      	movs	r2, #0
 8000778:	615a      	str	r2, [r3, #20]
  hspi1.Init.NSS = SPI_NSS_HARD_OUTPUT;
 800077a:	4b0e      	ldr	r3, [pc, #56]	@ (80007b4 <MX_SPI1_Init+0x64>)
 800077c:	f44f 2280 	mov.w	r2, #262144	@ 0x40000
 8000780:	619a      	str	r2, [r3, #24]
  hspi1.Init.BaudRatePrescaler = SPI_BAUDRATEPRESCALER_2;
 8000782:	4b0c      	ldr	r3, [pc, #48]	@ (80007b4 <MX_SPI1_Init+0x64>)
 8000784:	2200      	movs	r2, #0
 8000786:	61da      	str	r2, [r3, #28]
  hspi1.Init.FirstBit = SPI_FIRSTBIT_MSB;
 8000788:	4b0a      	ldr	r3, [pc, #40]	@ (80007b4 <MX_SPI1_Init+0x64>)
 800078a:	2200      	movs	r2, #0
 800078c:	621a      	str	r2, [r3, #32]
  hspi1.Init.TIMode = SPI_TIMODE_DISABLE;
 800078e:	4b09      	ldr	r3, [pc, #36]	@ (80007b4 <MX_SPI1_Init+0x64>)
 8000790:	2200      	movs	r2, #0
 8000792:	625a      	str	r2, [r3, #36]	@ 0x24
  hspi1.Init.CRCCalculation = SPI_CRCCALCULATION_DISABLE;
 8000794:	4b07      	ldr	r3, [pc, #28]	@ (80007b4 <MX_SPI1_Init+0x64>)
 8000796:	2200      	movs	r2, #0
 8000798:	629a      	str	r2, [r3, #40]	@ 0x28
  hspi1.Init.CRCPolynomial = 10;
 800079a:	4b06      	ldr	r3, [pc, #24]	@ (80007b4 <MX_SPI1_Init+0x64>)
 800079c:	220a      	movs	r2, #10
 800079e:	62da      	str	r2, [r3, #44]	@ 0x2c
  if (HAL_SPI_Init(&hspi1) != HAL_OK)
 80007a0:	4804      	ldr	r0, [pc, #16]	@ (80007b4 <MX_SPI1_Init+0x64>)
 80007a2:	f003 f831 	bl	8003808 <HAL_SPI_Init>
 80007a6:	4603      	mov	r3, r0
 80007a8:	2b00      	cmp	r3, #0
 80007aa:	d001      	beq.n	80007b0 <MX_SPI1_Init+0x60>
  {
    Error_Handler();
 80007ac:	f000 f88c 	bl	80008c8 <Error_Handler>
  }
  /* USER CODE BEGIN SPI1_Init 2 */

  /* USER CODE END SPI1_Init 2 */

}
 80007b0:	bf00      	nop
 80007b2:	bd80      	pop	{r7, pc}
 80007b4:	200001d4 	.word	0x200001d4
 80007b8:	40013000 	.word	0x40013000

080007bc <MX_USART1_UART_Init>:
  * @brief USART1 Initialization Function
  * @param None
  * @retval None
  */
static void MX_USART1_UART_Init(void)
{
 80007bc:	b580      	push	{r7, lr}
 80007be:	af00      	add	r7, sp, #0
  /* USER CODE END USART1_Init 0 */

  /* USER CODE BEGIN USART1_Init 1 */

  /* USER CODE END USART1_Init 1 */
  huart1.Instance = USART1;
 80007c0:	4b11      	ldr	r3, [pc, #68]	@ (8000808 <MX_USART1_UART_Init+0x4c>)
 80007c2:	4a12      	ldr	r2, [pc, #72]	@ (800080c <MX_USART1_UART_Init+0x50>)
 80007c4:	601a      	str	r2, [r3, #0]
  huart1.Init.BaudRate = 115200;
 80007c6:	4b10      	ldr	r3, [pc, #64]	@ (8000808 <MX_USART1_UART_Init+0x4c>)
 80007c8:	f44f 32e1 	mov.w	r2, #115200	@ 0x1c200
 80007cc:	605a      	str	r2, [r3, #4]
  huart1.Init.WordLength = UART_WORDLENGTH_8B;
 80007ce:	4b0e      	ldr	r3, [pc, #56]	@ (8000808 <MX_USART1_UART_Init+0x4c>)
 80007d0:	2200      	movs	r2, #0
 80007d2:	609a      	str	r2, [r3, #8]
  huart1.Init.StopBits = UART_STOPBITS_1;
 80007d4:	4b0c      	ldr	r3, [pc, #48]	@ (8000808 <MX_USART1_UART_Init+0x4c>)
 80007d6:	2200      	movs	r2, #0
 80007d8:	60da      	str	r2, [r3, #12]
  huart1.Init.Parity = UART_PARITY_NONE;
 80007da:	4b0b      	ldr	r3, [pc, #44]	@ (8000808 <MX_USART1_UART_Init+0x4c>)
 80007dc:	2200      	movs	r2, #0
 80007de:	611a      	str	r2, [r3, #16]
  huart1.Init.Mode = UART_MODE_TX_RX;
 80007e0:	4b09      	ldr	r3, [pc, #36]	@ (8000808 <MX_USART1_UART_Init+0x4c>)
 80007e2:	220c      	movs	r2, #12
 80007e4:	615a      	str	r2, [r3, #20]
  huart1.Init.HwFlowCtl = UART_HWCONTROL_NONE;
 80007e6:	4b08      	ldr	r3, [pc, #32]	@ (8000808 <MX_USART1_UART_Init+0x4c>)
 80007e8:	2200      	movs	r2, #0
 80007ea:	619a      	str	r2, [r3, #24]
  huart1.Init.OverSampling = UART_OVERSAMPLING_16;
 80007ec:	4b06      	ldr	r3, [pc, #24]	@ (8000808 <MX_USART1_UART_Init+0x4c>)
 80007ee:	2200      	movs	r2, #0
 80007f0:	61da      	str	r2, [r3, #28]
  if (HAL_UART_Init(&huart1) != HAL_OK)
 80007f2:	4805      	ldr	r0, [pc, #20]	@ (8000808 <MX_USART1_UART_Init+0x4c>)
 80007f4:	f003 f891 	bl	800391a <HAL_UART_Init>
 80007f8:	4603      	mov	r3, r0
 80007fa:	2b00      	cmp	r3, #0
 80007fc:	d001      	beq.n	8000802 <MX_USART1_UART_Init+0x46>
  {
    Error_Handler();
 80007fe:	f000 f863 	bl	80008c8 <Error_Handler>
  }
  /* USER CODE BEGIN USART1_Init 2 */

  /* USER CODE END USART1_Init 2 */

}
 8000802:	bf00      	nop
 8000804:	bd80      	pop	{r7, pc}
 8000806:	bf00      	nop
 8000808:	2000022c 	.word	0x2000022c
 800080c:	40011000 	.word	0x40011000

08000810 <MX_GPIO_Init>:
  * @brief GPIO Initialization Function
  * @param None
  * @retval None
  */
static void MX_GPIO_Init(void)
{
 8000810:	b580      	push	{r7, lr}
 8000812:	b088      	sub	sp, #32
 8000814:	af00      	add	r7, sp, #0
  GPIO_InitTypeDef GPIO_InitStruct = {0};
 8000816:	f107 030c 	add.w	r3, r7, #12
 800081a:	2200      	movs	r2, #0
 800081c:	601a      	str	r2, [r3, #0]
 800081e:	605a      	str	r2, [r3, #4]
 8000820:	609a      	str	r2, [r3, #8]
 8000822:	60da      	str	r2, [r3, #12]
 8000824:	611a      	str	r2, [r3, #16]
/* USER CODE BEGIN MX_GPIO_Init_1 */
/* USER CODE END MX_GPIO_Init_1 */

  /* GPIO Ports Clock Enable */
  __HAL_RCC_GPIOH_CLK_ENABLE();
 8000826:	2300      	movs	r3, #0
 8000828:	60bb      	str	r3, [r7, #8]
 800082a:	4b25      	ldr	r3, [pc, #148]	@ (80008c0 <MX_GPIO_Init+0xb0>)
 800082c:	6b1b      	ldr	r3, [r3, #48]	@ 0x30
 800082e:	4a24      	ldr	r2, [pc, #144]	@ (80008c0 <MX_GPIO_Init+0xb0>)
 8000830:	f043 0380 	orr.w	r3, r3, #128	@ 0x80
 8000834:	6313      	str	r3, [r2, #48]	@ 0x30
 8000836:	4b22      	ldr	r3, [pc, #136]	@ (80008c0 <MX_GPIO_Init+0xb0>)
 8000838:	6b1b      	ldr	r3, [r3, #48]	@ 0x30
 800083a:	f003 0380 	and.w	r3, r3, #128	@ 0x80
 800083e:	60bb      	str	r3, [r7, #8]
 8000840:	68bb      	ldr	r3, [r7, #8]
  __HAL_RCC_GPIOA_CLK_ENABLE();
 8000842:	2300      	movs	r3, #0
 8000844:	607b      	str	r3, [r7, #4]
 8000846:	4b1e      	ldr	r3, [pc, #120]	@ (80008c0 <MX_GPIO_Init+0xb0>)
 8000848:	6b1b      	ldr	r3, [r3, #48]	@ 0x30
 800084a:	4a1d      	ldr	r2, [pc, #116]	@ (80008c0 <MX_GPIO_Init+0xb0>)
 800084c:	f043 0301 	orr.w	r3, r3, #1
 8000850:	6313      	str	r3, [r2, #48]	@ 0x30
 8000852:	4b1b      	ldr	r3, [pc, #108]	@ (80008c0 <MX_GPIO_Init+0xb0>)
 8000854:	6b1b      	ldr	r3, [r3, #48]	@ 0x30
 8000856:	f003 0301 	and.w	r3, r3, #1
 800085a:	607b      	str	r3, [r7, #4]
 800085c:	687b      	ldr	r3, [r7, #4]
  __HAL_RCC_GPIOB_CLK_ENABLE();
 800085e:	2300      	movs	r3, #0
 8000860:	603b      	str	r3, [r7, #0]
 8000862:	4b17      	ldr	r3, [pc, #92]	@ (80008c0 <MX_GPIO_Init+0xb0>)
 8000864:	6b1b      	ldr	r3, [r3, #48]	@ 0x30
 8000866:	4a16      	ldr	r2, [pc, #88]	@ (80008c0 <MX_GPIO_Init+0xb0>)
 8000868:	f043 0302 	orr.w	r3, r3, #2
 800086c:	6313      	str	r3, [r2, #48]	@ 0x30
 800086e:	4b14      	ldr	r3, [pc, #80]	@ (80008c0 <MX_GPIO_Init+0xb0>)
 8000870:	6b1b      	ldr	r3, [r3, #48]	@ 0x30
 8000872:	f003 0302 	and.w	r3, r3, #2
 8000876:	603b      	str	r3, [r7, #0]
 8000878:	683b      	ldr	r3, [r7, #0]

  /*Configure GPIO pin Output Level */
  HAL_GPIO_WritePin(GPIOB, ADC_RST_Pin|CONVST_Pin, GPIO_PIN_RESET);
 800087a:	2200      	movs	r2, #0
 800087c:	2130      	movs	r1, #48	@ 0x30
 800087e:	4811      	ldr	r0, [pc, #68]	@ (80008c4 <MX_GPIO_Init+0xb4>)
 8000880:	f000 ffd2 	bl	8001828 <HAL_GPIO_WritePin>

  /*Configure GPIO pins : INT_BANK0_Pin INT_BANK1_Pin INT_BANK2_Pin EOC_Pin */
  GPIO_InitStruct.Pin = INT_BANK0_Pin|INT_BANK1_Pin|INT_BANK2_Pin|EOC_Pin;
 8000884:	230f      	movs	r3, #15
 8000886:	60fb      	str	r3, [r7, #12]
  GPIO_InitStruct.Mode = GPIO_MODE_INPUT;
 8000888:	2300      	movs	r3, #0
 800088a:	613b      	str	r3, [r7, #16]
  GPIO_InitStruct.Pull = GPIO_NOPULL;
 800088c:	2300      	movs	r3, #0
 800088e:	617b      	str	r3, [r7, #20]
  HAL_GPIO_Init(GPIOB, &GPIO_InitStruct);
 8000890:	f107 030c 	add.w	r3, r7, #12
 8000894:	4619      	mov	r1, r3
 8000896:	480b      	ldr	r0, [pc, #44]	@ (80008c4 <MX_GPIO_Init+0xb4>)
 8000898:	f000 fe42 	bl	8001520 <HAL_GPIO_Init>

  /*Configure GPIO pins : ADC_RST_Pin CONVST_Pin */
  GPIO_InitStruct.Pin = ADC_RST_Pin|CONVST_Pin;
 800089c:	2330      	movs	r3, #48	@ 0x30
 800089e:	60fb      	str	r3, [r7, #12]
  GPIO_InitStruct.Mode = GPIO_MODE_OUTPUT_PP;
 80008a0:	2301      	movs	r3, #1
 80008a2:	613b      	str	r3, [r7, #16]
  GPIO_InitStruct.Pull = GPIO_NOPULL;
 80008a4:	2300      	movs	r3, #0
 80008a6:	617b      	str	r3, [r7, #20]
  GPIO_InitStruct.Speed = GPIO_SPEED_FREQ_LOW;
 80008a8:	2300      	movs	r3, #0
 80008aa:	61bb      	str	r3, [r7, #24]
  HAL_GPIO_Init(GPIOB, &GPIO_InitStruct);
 80008ac:	f107 030c 	add.w	r3, r7, #12
 80008b0:	4619      	mov	r1, r3
 80008b2:	4804      	ldr	r0, [pc, #16]	@ (80008c4 <MX_GPIO_Init+0xb4>)
 80008b4:	f000 fe34 	bl	8001520 <HAL_GPIO_Init>

/* USER CODE BEGIN MX_GPIO_Init_2 */
/* USER CODE END MX_GPIO_Init_2 */
}
 80008b8:	bf00      	nop
 80008ba:	3720      	adds	r7, #32
 80008bc:	46bd      	mov	sp, r7
 80008be:	bd80      	pop	{r7, pc}
 80008c0:	40023800 	.word	0x40023800
 80008c4:	40020400 	.word	0x40020400

080008c8 <Error_Handler>:
/**
  * @brief  This function is executed in case of error occurrence.
  * @retval None
  */
void Error_Handler(void)
{
 80008c8:	b480      	push	{r7}
 80008ca:	af00      	add	r7, sp, #0
  \details Disables IRQ interrupts by setting special-purpose register PRIMASK.
           Can only be executed in Privileged modes.
 */
__STATIC_FORCEINLINE void __disable_irq(void)
{
  __ASM volatile ("cpsid i" : : : "memory");
 80008cc:	b672      	cpsid	i
}
 80008ce:	bf00      	nop
  /* USER CODE BEGIN Error_Handler_Debug */
  /* User can add his own implementation to report the HAL error return state */
  __disable_irq();
  while (1)
 80008d0:	bf00      	nop
 80008d2:	e7fd      	b.n	80008d0 <Error_Handler+0x8>

080008d4 <HAL_MspInit>:
/* USER CODE END 0 */
/**
  * Initializes the Global MSP.
  */
void HAL_MspInit(void)
{
 80008d4:	b480      	push	{r7}
 80008d6:	b083      	sub	sp, #12
 80008d8:	af00      	add	r7, sp, #0

  /* USER CODE BEGIN MspInit 0 */

  /* USER CODE END MspInit 0 */

  __HAL_RCC_SYSCFG_CLK_ENABLE();
 80008da:	2300      	movs	r3, #0
 80008dc:	607b      	str	r3, [r7, #4]
 80008de:	4b10      	ldr	r3, [pc, #64]	@ (8000920 <HAL_MspInit+0x4c>)
 80008e0:	6c5b      	ldr	r3, [r3, #68]	@ 0x44
 80008e2:	4a0f      	ldr	r2, [pc, #60]	@ (8000920 <HAL_MspInit+0x4c>)
 80008e4:	f443 4380 	orr.w	r3, r3, #16384	@ 0x4000
 80008e8:	6453      	str	r3, [r2, #68]	@ 0x44
 80008ea:	4b0d      	ldr	r3, [pc, #52]	@ (8000920 <HAL_MspInit+0x4c>)
 80008ec:	6c5b      	ldr	r3, [r3, #68]	@ 0x44
 80008ee:	f403 4380 	and.w	r3, r3, #16384	@ 0x4000
 80008f2:	607b      	str	r3, [r7, #4]
 80008f4:	687b      	ldr	r3, [r7, #4]
  __HAL_RCC_PWR_CLK_ENABLE();
 80008f6:	2300      	movs	r3, #0
 80008f8:	603b      	str	r3, [r7, #0]
 80008fa:	4b09      	ldr	r3, [pc, #36]	@ (8000920 <HAL_MspInit+0x4c>)
 80008fc:	6c1b      	ldr	r3, [r3, #64]	@ 0x40
 80008fe:	4a08      	ldr	r2, [pc, #32]	@ (8000920 <HAL_MspInit+0x4c>)
 8000900:	f043 5380 	orr.w	r3, r3, #268435456	@ 0x10000000
 8000904:	6413      	str	r3, [r2, #64]	@ 0x40
 8000906:	4b06      	ldr	r3, [pc, #24]	@ (8000920 <HAL_MspInit+0x4c>)
 8000908:	6c1b      	ldr	r3, [r3, #64]	@ 0x40
 800090a:	f003 5380 	and.w	r3, r3, #268435456	@ 0x10000000
 800090e:	603b      	str	r3, [r7, #0]
 8000910:	683b      	ldr	r3, [r7, #0]
  /* System interrupt init*/

  /* USER CODE BEGIN MspInit 1 */

  /* USER CODE END MspInit 1 */
}
 8000912:	bf00      	nop
 8000914:	370c      	adds	r7, #12
 8000916:	46bd      	mov	sp, r7
 8000918:	f85d 7b04 	ldr.w	r7, [sp], #4
 800091c:	4770      	bx	lr
 800091e:	bf00      	nop
 8000920:	40023800 	.word	0x40023800

08000924 <HAL_ADC_MspInit>:
* This function configures the hardware resources used in this example
* @param hadc: ADC handle pointer
* @retval None
*/
void HAL_ADC_MspInit(ADC_HandleTypeDef* hadc)
{
 8000924:	b580      	push	{r7, lr}
 8000926:	b08a      	sub	sp, #40	@ 0x28
 8000928:	af00      	add	r7, sp, #0
 800092a:	6078      	str	r0, [r7, #4]
  GPIO_InitTypeDef GPIO_InitStruct = {0};
 800092c:	f107 0314 	add.w	r3, r7, #20
 8000930:	2200      	movs	r2, #0
 8000932:	601a      	str	r2, [r3, #0]
 8000934:	605a      	str	r2, [r3, #4]
 8000936:	609a      	str	r2, [r3, #8]
 8000938:	60da      	str	r2, [r3, #12]
 800093a:	611a      	str	r2, [r3, #16]
  if(hadc->Instance==ADC1)
 800093c:	687b      	ldr	r3, [r7, #4]
 800093e:	681b      	ldr	r3, [r3, #0]
 8000940:	4a17      	ldr	r2, [pc, #92]	@ (80009a0 <HAL_ADC_MspInit+0x7c>)
 8000942:	4293      	cmp	r3, r2
 8000944:	d127      	bne.n	8000996 <HAL_ADC_MspInit+0x72>
  {
  /* USER CODE BEGIN ADC1_MspInit 0 */

  /* USER CODE END ADC1_MspInit 0 */
    /* Peripheral clock enable */
    __HAL_RCC_ADC1_CLK_ENABLE();
 8000946:	2300      	movs	r3, #0
 8000948:	613b      	str	r3, [r7, #16]
 800094a:	4b16      	ldr	r3, [pc, #88]	@ (80009a4 <HAL_ADC_MspInit+0x80>)
 800094c:	6c5b      	ldr	r3, [r3, #68]	@ 0x44
 800094e:	4a15      	ldr	r2, [pc, #84]	@ (80009a4 <HAL_ADC_MspInit+0x80>)
 8000950:	f443 7380 	orr.w	r3, r3, #256	@ 0x100
 8000954:	6453      	str	r3, [r2, #68]	@ 0x44
 8000956:	4b13      	ldr	r3, [pc, #76]	@ (80009a4 <HAL_ADC_MspInit+0x80>)
 8000958:	6c5b      	ldr	r3, [r3, #68]	@ 0x44
 800095a:	f403 7380 	and.w	r3, r3, #256	@ 0x100
 800095e:	613b      	str	r3, [r7, #16]
 8000960:	693b      	ldr	r3, [r7, #16]

    __HAL_RCC_GPIOA_CLK_ENABLE();
 8000962:	2300      	movs	r3, #0
 8000964:	60fb      	str	r3, [r7, #12]
 8000966:	4b0f      	ldr	r3, [pc, #60]	@ (80009a4 <HAL_ADC_MspInit+0x80>)
 8000968:	6b1b      	ldr	r3, [r3, #48]	@ 0x30
 800096a:	4a0e      	ldr	r2, [pc, #56]	@ (80009a4 <HAL_ADC_MspInit+0x80>)
 800096c:	f043 0301 	orr.w	r3, r3, #1
 8000970:	6313      	str	r3, [r2, #48]	@ 0x30
 8000972:	4b0c      	ldr	r3, [pc, #48]	@ (80009a4 <HAL_ADC_MspInit+0x80>)
 8000974:	6b1b      	ldr	r3, [r3, #48]	@ 0x30
 8000976:	f003 0301 	and.w	r3, r3, #1
 800097a:	60fb      	str	r3, [r7, #12]
 800097c:	68fb      	ldr	r3, [r7, #12]
    PA0-WKUP     ------> ADC1_IN0
    PA1     ------> ADC1_IN1
    PA2     ------> ADC1_IN2
    PA3     ------> ADC1_IN3
    */
    GPIO_InitStruct.Pin = GPIO_PIN_0|GPIO_PIN_1|GPIO_PIN_2|GPIO_PIN_3;
 800097e:	230f      	movs	r3, #15
 8000980:	617b      	str	r3, [r7, #20]
    GPIO_InitStruct.Mode = GPIO_MODE_ANALOG;
 8000982:	2303      	movs	r3, #3
 8000984:	61bb      	str	r3, [r7, #24]
    GPIO_InitStruct.Pull = GPIO_NOPULL;
 8000986:	2300      	movs	r3, #0
 8000988:	61fb      	str	r3, [r7, #28]
    HAL_GPIO_Init(GPIOA, &GPIO_InitStruct);
 800098a:	f107 0314 	add.w	r3, r7, #20
 800098e:	4619      	mov	r1, r3
 8000990:	4805      	ldr	r0, [pc, #20]	@ (80009a8 <HAL_ADC_MspInit+0x84>)
 8000992:	f000 fdc5 	bl	8001520 <HAL_GPIO_Init>

  /* USER CODE END ADC1_MspInit 1 */

  }

}
 8000996:	bf00      	nop
 8000998:	3728      	adds	r7, #40	@ 0x28
 800099a:	46bd      	mov	sp, r7
 800099c:	bd80      	pop	{r7, pc}
 800099e:	bf00      	nop
 80009a0:	40012000 	.word	0x40012000
 80009a4:	40023800 	.word	0x40023800
 80009a8:	40020000 	.word	0x40020000

080009ac <HAL_I2C_MspInit>:
* This function configures the hardware resources used in this example
* @param hi2c: I2C handle pointer
* @retval None
*/
void HAL_I2C_MspInit(I2C_HandleTypeDef* hi2c)
{
 80009ac:	b580      	push	{r7, lr}
 80009ae:	b08a      	sub	sp, #40	@ 0x28
 80009b0:	af00      	add	r7, sp, #0
 80009b2:	6078      	str	r0, [r7, #4]
  GPIO_InitTypeDef GPIO_InitStruct = {0};
 80009b4:	f107 0314 	add.w	r3, r7, #20
 80009b8:	2200      	movs	r2, #0
 80009ba:	601a      	str	r2, [r3, #0]
 80009bc:	605a      	str	r2, [r3, #4]
 80009be:	609a      	str	r2, [r3, #8]
 80009c0:	60da      	str	r2, [r3, #12]
 80009c2:	611a      	str	r2, [r3, #16]
  if(hi2c->Instance==I2C1)
 80009c4:	687b      	ldr	r3, [r7, #4]
 80009c6:	681b      	ldr	r3, [r3, #0]
 80009c8:	4a19      	ldr	r2, [pc, #100]	@ (8000a30 <HAL_I2C_MspInit+0x84>)
 80009ca:	4293      	cmp	r3, r2
 80009cc:	d12b      	bne.n	8000a26 <HAL_I2C_MspInit+0x7a>
  {
  /* USER CODE BEGIN I2C1_MspInit 0 */

  /* USER CODE END I2C1_MspInit 0 */

    __HAL_RCC_GPIOB_CLK_ENABLE();
 80009ce:	2300      	movs	r3, #0
 80009d0:	613b      	str	r3, [r7, #16]
 80009d2:	4b18      	ldr	r3, [pc, #96]	@ (8000a34 <HAL_I2C_MspInit+0x88>)
 80009d4:	6b1b      	ldr	r3, [r3, #48]	@ 0x30
 80009d6:	4a17      	ldr	r2, [pc, #92]	@ (8000a34 <HAL_I2C_MspInit+0x88>)
 80009d8:	f043 0302 	orr.w	r3, r3, #2
 80009dc:	6313      	str	r3, [r2, #48]	@ 0x30
 80009de:	4b15      	ldr	r3, [pc, #84]	@ (8000a34 <HAL_I2C_MspInit+0x88>)
 80009e0:	6b1b      	ldr	r3, [r3, #48]	@ 0x30
 80009e2:	f003 0302 	and.w	r3, r3, #2
 80009e6:	613b      	str	r3, [r7, #16]
 80009e8:	693b      	ldr	r3, [r7, #16]
    /**I2C1 GPIO Configuration
    PB6     ------> I2C1_SCL
    PB7     ------> I2C1_SDA
    */
    GPIO_InitStruct.Pin = GPIO_PIN_6|GPIO_PIN_7;
 80009ea:	23c0      	movs	r3, #192	@ 0xc0
 80009ec:	617b      	str	r3, [r7, #20]
    GPIO_InitStruct.Mode = GPIO_MODE_AF_OD;
 80009ee:	2312      	movs	r3, #18
 80009f0:	61bb      	str	r3, [r7, #24]
    GPIO_InitStruct.Pull = GPIO_NOPULL;
 80009f2:	2300      	movs	r3, #0
 80009f4:	61fb      	str	r3, [r7, #28]
    GPIO_InitStruct.Speed = GPIO_SPEED_FREQ_VERY_HIGH;
 80009f6:	2303      	movs	r3, #3
 80009f8:	623b      	str	r3, [r7, #32]
    GPIO_InitStruct.Alternate = GPIO_AF4_I2C1;
 80009fa:	2304      	movs	r3, #4
 80009fc:	627b      	str	r3, [r7, #36]	@ 0x24
    HAL_GPIO_Init(GPIOB, &GPIO_InitStruct);
 80009fe:	f107 0314 	add.w	r3, r7, #20
 8000a02:	4619      	mov	r1, r3
 8000a04:	480c      	ldr	r0, [pc, #48]	@ (8000a38 <HAL_I2C_MspInit+0x8c>)
 8000a06:	f000 fd8b 	bl	8001520 <HAL_GPIO_Init>

    /* Peripheral clock enable */
    __HAL_RCC_I2C1_CLK_ENABLE();
 8000a0a:	2300      	movs	r3, #0
 8000a0c:	60fb      	str	r3, [r7, #12]
 8000a0e:	4b09      	ldr	r3, [pc, #36]	@ (8000a34 <HAL_I2C_MspInit+0x88>)
 8000a10:	6c1b      	ldr	r3, [r3, #64]	@ 0x40
 8000a12:	4a08      	ldr	r2, [pc, #32]	@ (8000a34 <HAL_I2C_MspInit+0x88>)
 8000a14:	f443 1300 	orr.w	r3, r3, #2097152	@ 0x200000
 8000a18:	6413      	str	r3, [r2, #64]	@ 0x40
 8000a1a:	4b06      	ldr	r3, [pc, #24]	@ (8000a34 <HAL_I2C_MspInit+0x88>)
 8000a1c:	6c1b      	ldr	r3, [r3, #64]	@ 0x40
 8000a1e:	f403 1300 	and.w	r3, r3, #2097152	@ 0x200000
 8000a22:	60fb      	str	r3, [r7, #12]
 8000a24:	68fb      	ldr	r3, [r7, #12]

  /* USER CODE END I2C1_MspInit 1 */

  }

}
 8000a26:	bf00      	nop
 8000a28:	3728      	adds	r7, #40	@ 0x28
 8000a2a:	46bd      	mov	sp, r7
 8000a2c:	bd80      	pop	{r7, pc}
 8000a2e:	bf00      	nop
 8000a30:	40005400 	.word	0x40005400
 8000a34:	40023800 	.word	0x40023800
 8000a38:	40020400 	.word	0x40020400

08000a3c <HAL_SPI_MspInit>:
* This function configures the hardware resources used in this example
* @param hspi: SPI handle pointer
* @retval None
*/
void HAL_SPI_MspInit(SPI_HandleTypeDef* hspi)
{
 8000a3c:	b580      	push	{r7, lr}
 8000a3e:	b08a      	sub	sp, #40	@ 0x28
 8000a40:	af00      	add	r7, sp, #0
 8000a42:	6078      	str	r0, [r7, #4]
  GPIO_InitTypeDef GPIO_InitStruct = {0};
 8000a44:	f107 0314 	add.w	r3, r7, #20
 8000a48:	2200      	movs	r2, #0
 8000a4a:	601a      	str	r2, [r3, #0]
 8000a4c:	605a      	str	r2, [r3, #4]
 8000a4e:	609a      	str	r2, [r3, #8]
 8000a50:	60da      	str	r2, [r3, #12]
 8000a52:	611a      	str	r2, [r3, #16]
  if(hspi->Instance==SPI1)
 8000a54:	687b      	ldr	r3, [r7, #4]
 8000a56:	681b      	ldr	r3, [r3, #0]
 8000a58:	4a19      	ldr	r2, [pc, #100]	@ (8000ac0 <HAL_SPI_MspInit+0x84>)
 8000a5a:	4293      	cmp	r3, r2
 8000a5c:	d12b      	bne.n	8000ab6 <HAL_SPI_MspInit+0x7a>
  {
  /* USER CODE BEGIN SPI1_MspInit 0 */

  /* USER CODE END SPI1_MspInit 0 */
    /* Peripheral clock enable */
    __HAL_RCC_SPI1_CLK_ENABLE();
 8000a5e:	2300      	movs	r3, #0
 8000a60:	613b      	str	r3, [r7, #16]
 8000a62:	4b18      	ldr	r3, [pc, #96]	@ (8000ac4 <HAL_SPI_MspInit+0x88>)
 8000a64:	6c5b      	ldr	r3, [r3, #68]	@ 0x44
 8000a66:	4a17      	ldr	r2, [pc, #92]	@ (8000ac4 <HAL_SPI_MspInit+0x88>)
 8000a68:	f443 5380 	orr.w	r3, r3, #4096	@ 0x1000
 8000a6c:	6453      	str	r3, [r2, #68]	@ 0x44
 8000a6e:	4b15      	ldr	r3, [pc, #84]	@ (8000ac4 <HAL_SPI_MspInit+0x88>)
 8000a70:	6c5b      	ldr	r3, [r3, #68]	@ 0x44
 8000a72:	f403 5380 	and.w	r3, r3, #4096	@ 0x1000
 8000a76:	613b      	str	r3, [r7, #16]
 8000a78:	693b      	ldr	r3, [r7, #16]

    __HAL_RCC_GPIOA_CLK_ENABLE();
 8000a7a:	2300      	movs	r3, #0
 8000a7c:	60fb      	str	r3, [r7, #12]
 8000a7e:	4b11      	ldr	r3, [pc, #68]	@ (8000ac4 <HAL_SPI_MspInit+0x88>)
 8000a80:	6b1b      	ldr	r3, [r3, #48]	@ 0x30
 8000a82:	4a10      	ldr	r2, [pc, #64]	@ (8000ac4 <HAL_SPI_MspInit+0x88>)
 8000a84:	f043 0301 	orr.w	r3, r3, #1
 8000a88:	6313      	str	r3, [r2, #48]	@ 0x30
 8000a8a:	4b0e      	ldr	r3, [pc, #56]	@ (8000ac4 <HAL_SPI_MspInit+0x88>)
 8000a8c:	6b1b      	ldr	r3, [r3, #48]	@ 0x30
 8000a8e:	f003 0301 	and.w	r3, r3, #1
 8000a92:	60fb      	str	r3, [r7, #12]
 8000a94:	68fb      	ldr	r3, [r7, #12]
    PA4     ------> SPI1_NSS
    PA5     ------> SPI1_SCK
    PA6     ------> SPI1_MISO
    PA7     ------> SPI1_MOSI
    */
    GPIO_InitStruct.Pin = GPIO_PIN_4|GPIO_PIN_5|GPIO_PIN_6|GPIO_PIN_7;
 8000a96:	23f0      	movs	r3, #240	@ 0xf0
 8000a98:	617b      	str	r3, [r7, #20]
    GPIO_InitStruct.Mode = GPIO_MODE_AF_PP;
 8000a9a:	2302      	movs	r3, #2
 8000a9c:	61bb      	str	r3, [r7, #24]
    GPIO_InitStruct.Pull = GPIO_NOPULL;
 8000a9e:	2300      	movs	r3, #0
 8000aa0:	61fb      	str	r3, [r7, #28]
    GPIO_InitStruct.Speed = GPIO_SPEED_FREQ_VERY_HIGH;
 8000aa2:	2303      	movs	r3, #3
 8000aa4:	623b      	str	r3, [r7, #32]
    GPIO_InitStruct.Alternate = GPIO_AF5_SPI1;
 8000aa6:	2305      	movs	r3, #5
 8000aa8:	627b      	str	r3, [r7, #36]	@ 0x24
    HAL_GPIO_Init(GPIOA, &GPIO_InitStruct);
 8000aaa:	f107 0314 	add.w	r3, r7, #20
 8000aae:	4619      	mov	r1, r3
 8000ab0:	4805      	ldr	r0, [pc, #20]	@ (8000ac8 <HAL_SPI_MspInit+0x8c>)
 8000ab2:	f000 fd35 	bl	8001520 <HAL_GPIO_Init>

  /* USER CODE END SPI1_MspInit 1 */

  }

}
 8000ab6:	bf00      	nop
 8000ab8:	3728      	adds	r7, #40	@ 0x28
 8000aba:	46bd      	mov	sp, r7
 8000abc:	bd80      	pop	{r7, pc}
 8000abe:	bf00      	nop
 8000ac0:	40013000 	.word	0x40013000
 8000ac4:	40023800 	.word	0x40023800
 8000ac8:	40020000 	.word	0x40020000

08000acc <HAL_UART_MspInit>:
* This function configures the hardware resources used in this example
* @param huart: UART handle pointer
* @retval None
*/
void HAL_UART_MspInit(UART_HandleTypeDef* huart)
{
 8000acc:	b580      	push	{r7, lr}
 8000ace:	b08a      	sub	sp, #40	@ 0x28
 8000ad0:	af00      	add	r7, sp, #0
 8000ad2:	6078      	str	r0, [r7, #4]
  GPIO_InitTypeDef GPIO_InitStruct = {0};
 8000ad4:	f107 0314 	add.w	r3, r7, #20
 8000ad8:	2200      	movs	r2, #0
 8000ada:	601a      	str	r2, [r3, #0]
 8000adc:	605a      	str	r2, [r3, #4]
 8000ade:	609a      	str	r2, [r3, #8]
 8000ae0:	60da      	str	r2, [r3, #12]
 8000ae2:	611a      	str	r2, [r3, #16]
  if(huart->Instance==USART1)
 8000ae4:	687b      	ldr	r3, [r7, #4]
 8000ae6:	681b      	ldr	r3, [r3, #0]
 8000ae8:	4a19      	ldr	r2, [pc, #100]	@ (8000b50 <HAL_UART_MspInit+0x84>)
 8000aea:	4293      	cmp	r3, r2
 8000aec:	d12c      	bne.n	8000b48 <HAL_UART_MspInit+0x7c>
  {
  /* USER CODE BEGIN USART1_MspInit 0 */

  /* USER CODE END USART1_MspInit 0 */
    /* Peripheral clock enable */
    __HAL_RCC_USART1_CLK_ENABLE();
 8000aee:	2300      	movs	r3, #0
 8000af0:	613b      	str	r3, [r7, #16]
 8000af2:	4b18      	ldr	r3, [pc, #96]	@ (8000b54 <HAL_UART_MspInit+0x88>)
 8000af4:	6c5b      	ldr	r3, [r3, #68]	@ 0x44
 8000af6:	4a17      	ldr	r2, [pc, #92]	@ (8000b54 <HAL_UART_MspInit+0x88>)
 8000af8:	f043 0310 	orr.w	r3, r3, #16
 8000afc:	6453      	str	r3, [r2, #68]	@ 0x44
 8000afe:	4b15      	ldr	r3, [pc, #84]	@ (8000b54 <HAL_UART_MspInit+0x88>)
 8000b00:	6c5b      	ldr	r3, [r3, #68]	@ 0x44
 8000b02:	f003 0310 	and.w	r3, r3, #16
 8000b06:	613b      	str	r3, [r7, #16]
 8000b08:	693b      	ldr	r3, [r7, #16]

    __HAL_RCC_GPIOA_CLK_ENABLE();
 8000b0a:	2300      	movs	r3, #0
 8000b0c:	60fb      	str	r3, [r7, #12]
 8000b0e:	4b11      	ldr	r3, [pc, #68]	@ (8000b54 <HAL_UART_MspInit+0x88>)
 8000b10:	6b1b      	ldr	r3, [r3, #48]	@ 0x30
 8000b12:	4a10      	ldr	r2, [pc, #64]	@ (8000b54 <HAL_UART_MspInit+0x88>)
 8000b14:	f043 0301 	orr.w	r3, r3, #1
 8000b18:	6313      	str	r3, [r2, #48]	@ 0x30
 8000b1a:	4b0e      	ldr	r3, [pc, #56]	@ (8000b54 <HAL_UART_MspInit+0x88>)
 8000b1c:	6b1b      	ldr	r3, [r3, #48]	@ 0x30
 8000b1e:	f003 0301 	and.w	r3, r3, #1
 8000b22:	60fb      	str	r3, [r7, #12]
 8000b24:	68fb      	ldr	r3, [r7, #12]
    /**USART1 GPIO Configuration
    PA9     ------> USART1_TX
    PA10     ------> USART1_RX
    */
    GPIO_InitStruct.Pin = GPIO_PIN_9|GPIO_PIN_10;
 8000b26:	f44f 63c0 	mov.w	r3, #1536	@ 0x600
 8000b2a:	617b      	str	r3, [r7, #20]
    GPIO_InitStruct.Mode = GPIO_MODE_AF_PP;
 8000b2c:	2302      	movs	r3, #2
 8000b2e:	61bb      	str	r3, [r7, #24]
    GPIO_InitStruct.Pull = GPIO_NOPULL;
 8000b30:	2300      	movs	r3, #0
 8000b32:	61fb      	str	r3, [r7, #28]
    GPIO_InitStruct.Speed = GPIO_SPEED_FREQ_VERY_HIGH;
 8000b34:	2303      	movs	r3, #3
 8000b36:	623b      	str	r3, [r7, #32]
    GPIO_InitStruct.Alternate = GPIO_AF7_USART1;
 8000b38:	2307      	movs	r3, #7
 8000b3a:	627b      	str	r3, [r7, #36]	@ 0x24
    HAL_GPIO_Init(GPIOA, &GPIO_InitStruct);
 8000b3c:	f107 0314 	add.w	r3, r7, #20
 8000b40:	4619      	mov	r1, r3
 8000b42:	4805      	ldr	r0, [pc, #20]	@ (8000b58 <HAL_UART_MspInit+0x8c>)
 8000b44:	f000 fcec 	bl	8001520 <HAL_GPIO_Init>

  /* USER CODE END USART1_MspInit 1 */

  }

}
 8000b48:	bf00      	nop
 8000b4a:	3728      	adds	r7, #40	@ 0x28
 8000b4c:	46bd      	mov	sp, r7
 8000b4e:	bd80      	pop	{r7, pc}
 8000b50:	40011000 	.word	0x40011000
 8000b54:	40023800 	.word	0x40023800
 8000b58:	40020000 	.word	0x40020000

08000b5c <NMI_Handler>:
/******************************************************************************/
/**
  * @brief This function handles Non maskable interrupt.
  */
void NMI_Handler(void)
{
 8000b5c:	b480      	push	{r7}
 8000b5e:	af00      	add	r7, sp, #0
  /* USER CODE BEGIN NonMaskableInt_IRQn 0 */

  /* USER CODE END NonMaskableInt_IRQn 0 */
  /* USER CODE BEGIN NonMaskableInt_IRQn 1 */
   while (1)
 8000b60:	bf00      	nop
 8000b62:	e7fd      	b.n	8000b60 <NMI_Handler+0x4>

08000b64 <HardFault_Handler>:

/**
  * @brief This function handles Hard fault interrupt.
  */
void HardFault_Handler(void)
{
 8000b64:	b480      	push	{r7}
 8000b66:	af00      	add	r7, sp, #0
  /* USER CODE BEGIN HardFault_IRQn 0 */

  /* USER CODE END HardFault_IRQn 0 */
  while (1)
 8000b68:	bf00      	nop
 8000b6a:	e7fd      	b.n	8000b68 <HardFault_Handler+0x4>

08000b6c <MemManage_Handler>:

/**
  * @brief This function handles Memory management fault.
  */
void MemManage_Handler(void)
{
 8000b6c:	b480      	push	{r7}
 8000b6e:	af00      	add	r7, sp, #0
  /* USER CODE BEGIN MemoryManagement_IRQn 0 */

  /* USER CODE END MemoryManagement_IRQn 0 */
  while (1)
 8000b70:	bf00      	nop
 8000b72:	e7fd      	b.n	8000b70 <MemManage_Handler+0x4>

08000b74 <BusFault_Handler>:

/**
  * @brief This function handles Pre-fetch fault, memory access fault.
  */
void BusFault_Handler(void)
{
 8000b74:	b480      	push	{r7}
 8000b76:	af00      	add	r7, sp, #0
  /* USER CODE BEGIN BusFault_IRQn 0 */

  /* USER CODE END BusFault_IRQn 0 */
  while (1)
 8000b78:	bf00      	nop
 8000b7a:	e7fd      	b.n	8000b78 <BusFault_Handler+0x4>

08000b7c <UsageFault_Handler>:

/**
  * @brief This function handles Undefined instruction or illegal state.
  */
void UsageFault_Handler(void)
{
 8000b7c:	b480      	push	{r7}
 8000b7e:	af00      	add	r7, sp, #0
  /* USER CODE BEGIN UsageFault_IRQn 0 */

  /* USER CODE END UsageFault_IRQn 0 */
  while (1)
 8000b80:	bf00      	nop
 8000b82:	e7fd      	b.n	8000b80 <UsageFault_Handler+0x4>

08000b84 <SVC_Handler>:

/**
  * @brief This function handles System service call via SWI instruction.
  */
void SVC_Handler(void)
{
 8000b84:	b480      	push	{r7}
 8000b86:	af00      	add	r7, sp, #0

  /* USER CODE END SVCall_IRQn 0 */
  /* USER CODE BEGIN SVCall_IRQn 1 */

  /* USER CODE END SVCall_IRQn 1 */
}
 8000b88:	bf00      	nop
 8000b8a:	46bd      	mov	sp, r7
 8000b8c:	f85d 7b04 	ldr.w	r7, [sp], #4
 8000b90:	4770      	bx	lr

08000b92 <DebugMon_Handler>:

/**
  * @brief This function handles Debug monitor.
  */
void DebugMon_Handler(void)
{
 8000b92:	b480      	push	{r7}
 8000b94:	af00      	add	r7, sp, #0

  /* USER CODE END DebugMonitor_IRQn 0 */
  /* USER CODE BEGIN DebugMonitor_IRQn 1 */

  /* USER CODE END DebugMonitor_IRQn 1 */
}
 8000b96:	bf00      	nop
 8000b98:	46bd      	mov	sp, r7
 8000b9a:	f85d 7b04 	ldr.w	r7, [sp], #4
 8000b9e:	4770      	bx	lr

08000ba0 <PendSV_Handler>:

/**
  * @brief This function handles Pendable request for system service.
  */
void PendSV_Handler(void)
{
 8000ba0:	b480      	push	{r7}
 8000ba2:	af00      	add	r7, sp, #0

  /* USER CODE END PendSV_IRQn 0 */
  /* USER CODE BEGIN PendSV_IRQn 1 */

  /* USER CODE END PendSV_IRQn 1 */
}
 8000ba4:	bf00      	nop
 8000ba6:	46bd      	mov	sp, r7
 8000ba8:	f85d 7b04 	ldr.w	r7, [sp], #4
 8000bac:	4770      	bx	lr

08000bae <SysTick_Handler>:

/**
  * @brief This function handles System tick timer.
  */
void SysTick_Handler(void)
{
 8000bae:	b580      	push	{r7, lr}
 8000bb0:	af00      	add	r7, sp, #0
  /* USER CODE BEGIN SysTick_IRQn 0 */

  /* USER CODE END SysTick_IRQn 0 */
  HAL_IncTick();
 8000bb2:	f000 f8ed 	bl	8000d90 <HAL_IncTick>
  /* USER CODE BEGIN SysTick_IRQn 1 */

  /* USER CODE END SysTick_IRQn 1 */
}
 8000bb6:	bf00      	nop
 8000bb8:	bd80      	pop	{r7, pc}
	...

08000bbc <OTG_FS_IRQHandler>:

/**
  * @brief This function handles USB On The Go FS global interrupt.
  */
void OTG_FS_IRQHandler(void)
{
 8000bbc:	b580      	push	{r7, lr}
 8000bbe:	af00      	add	r7, sp, #0
  /* USER CODE BEGIN OTG_FS_IRQn 0 */

  /* USER CODE END OTG_FS_IRQn 0 */
  HAL_PCD_IRQHandler(&hpcd_USB_OTG_FS);
 8000bc0:	4802      	ldr	r0, [pc, #8]	@ (8000bcc <OTG_FS_IRQHandler+0x10>)
 8000bc2:	f001 f8d3 	bl	8001d6c <HAL_PCD_IRQHandler>
  /* USER CODE BEGIN OTG_FS_IRQn 1 */

  /* USER CODE END OTG_FS_IRQn 1 */
}
 8000bc6:	bf00      	nop
 8000bc8:	bd80      	pop	{r7, pc}
 8000bca:	bf00      	nop
 8000bcc:	2000077c 	.word	0x2000077c

08000bd0 <SystemInit>:
  *         configuration.
  * @param  None
  * @retval None
  */
void SystemInit(void)
{
 8000bd0:	b480      	push	{r7}
 8000bd2:	af00      	add	r7, sp, #0
  /* FPU settings ------------------------------------------------------------*/
  #if (__FPU_PRESENT == 1) && (__FPU_USED == 1)
    SCB->CPACR |= ((3UL << 10*2)|(3UL << 11*2));  /* set CP10 and CP11 Full Access */
 8000bd4:	4b06      	ldr	r3, [pc, #24]	@ (8000bf0 <SystemInit+0x20>)
 8000bd6:	f8d3 3088 	ldr.w	r3, [r3, #136]	@ 0x88
 8000bda:	4a05      	ldr	r2, [pc, #20]	@ (8000bf0 <SystemInit+0x20>)
 8000bdc:	f443 0370 	orr.w	r3, r3, #15728640	@ 0xf00000
 8000be0:	f8c2 3088 	str.w	r3, [r2, #136]	@ 0x88

  /* Configure the Vector Table location -------------------------------------*/
#if defined(USER_VECT_TAB_ADDRESS)
  SCB->VTOR = VECT_TAB_BASE_ADDRESS | VECT_TAB_OFFSET; /* Vector Table Relocation in Internal SRAM */
#endif /* USER_VECT_TAB_ADDRESS */
}
 8000be4:	bf00      	nop
 8000be6:	46bd      	mov	sp, r7
 8000be8:	f85d 7b04 	ldr.w	r7, [sp], #4
 8000bec:	4770      	bx	lr
 8000bee:	bf00      	nop
 8000bf0:	e000ed00 	.word	0xe000ed00

08000bf4 <tca9555_Init>:

#include "tca9555.h"

// Initialization function(s)
void tca9555_Init(IOExp_TCA9555 *ioexp, I2C_HandleTypeDef *i2cHandle, uint8_t addr, GPIO_TypeDef *intPort, uint16_t intPin)
{
 8000bf4:	b480      	push	{r7}
 8000bf6:	b087      	sub	sp, #28
 8000bf8:	af00      	add	r7, sp, #0
 8000bfa:	60f8      	str	r0, [r7, #12]
 8000bfc:	60b9      	str	r1, [r7, #8]
 8000bfe:	603b      	str	r3, [r7, #0]
 8000c00:	4613      	mov	r3, r2
 8000c02:	71fb      	strb	r3, [r7, #7]

	ioexp->_i2cHandle = i2cHandle;
 8000c04:	68fb      	ldr	r3, [r7, #12]
 8000c06:	68ba      	ldr	r2, [r7, #8]
 8000c08:	601a      	str	r2, [r3, #0]
	ioexp->_intPort = intPort;
 8000c0a:	68fb      	ldr	r3, [r7, #12]
 8000c0c:	683a      	ldr	r2, [r7, #0]
 8000c0e:	609a      	str	r2, [r3, #8]
	ioexp->_intPin = intPin;
 8000c10:	68fb      	ldr	r3, [r7, #12]
 8000c12:	8c3a      	ldrh	r2, [r7, #32]
 8000c14:	819a      	strh	r2, [r3, #12]

	if ((addr & 0xf0) == 0x20) {
 8000c16:	79fb      	ldrb	r3, [r7, #7]
 8000c18:	f003 03f0 	and.w	r3, r3, #240	@ 0xf0
 8000c1c:	2b20      	cmp	r3, #32
 8000c1e:	d105      	bne.n	8000c2c <tca9555_Init+0x38>

		ioexp->_i2cAddr = (addr << 1);
 8000c20:	79fb      	ldrb	r3, [r7, #7]
 8000c22:	005b      	lsls	r3, r3, #1
 8000c24:	b2da      	uxtb	r2, r3
 8000c26:	68fb      	ldr	r3, [r7, #12]
 8000c28:	711a      	strb	r2, [r3, #4]
 8000c2a:	e014      	b.n	8000c56 <tca9555_Init+0x62>

	}

	else if ((addr & 0xf0) == 0x40) {
 8000c2c:	79fb      	ldrb	r3, [r7, #7]
 8000c2e:	f003 03f0 	and.w	r3, r3, #240	@ 0xf0
 8000c32:	2b40      	cmp	r3, #64	@ 0x40
 8000c34:	d103      	bne.n	8000c3e <tca9555_Init+0x4a>

		ioexp->_i2cAddr = addr;
 8000c36:	68fb      	ldr	r3, [r7, #12]
 8000c38:	79fa      	ldrb	r2, [r7, #7]
 8000c3a:	711a      	strb	r2, [r3, #4]
 8000c3c:	e00b      	b.n	8000c56 <tca9555_Init+0x62>

	}

	else {

		ioexp->_i2cAddr = 0x40 | ((addr & 0x0F) << 1);
 8000c3e:	79fb      	ldrb	r3, [r7, #7]
 8000c40:	005b      	lsls	r3, r3, #1
 8000c42:	b25b      	sxtb	r3, r3
 8000c44:	f003 031e 	and.w	r3, r3, #30
 8000c48:	b25b      	sxtb	r3, r3
 8000c4a:	f043 0340 	orr.w	r3, r3, #64	@ 0x40
 8000c4e:	b25b      	sxtb	r3, r3
 8000c50:	b2da      	uxtb	r2, r3
 8000c52:	68fb      	ldr	r3, [r7, #12]
 8000c54:	711a      	strb	r2, [r3, #4]

	}

	for (uint8_t i = TCA9555_REG_INPUT0; i < TCA9555_REG_CONFIG1; i++) {
 8000c56:	2300      	movs	r3, #0
 8000c58:	75fb      	strb	r3, [r7, #23]
 8000c5a:	e013      	b.n	8000c84 <tca9555_Init+0x90>

		if ((i == TCA9555_REG_OUTPUT0) || (i == TCA9555_REG_OUTPUT1)) {
 8000c5c:	7dfb      	ldrb	r3, [r7, #23]
 8000c5e:	2b02      	cmp	r3, #2
 8000c60:	d002      	beq.n	8000c68 <tca9555_Init+0x74>
 8000c62:	7dfb      	ldrb	r3, [r7, #23]
 8000c64:	2b03      	cmp	r3, #3
 8000c66:	d105      	bne.n	8000c74 <tca9555_Init+0x80>

			ioexp->TCA9555_REG_DATA[i] = 0xff;
 8000c68:	7dfb      	ldrb	r3, [r7, #23]
 8000c6a:	68fa      	ldr	r2, [r7, #12]
 8000c6c:	4413      	add	r3, r2
 8000c6e:	22ff      	movs	r2, #255	@ 0xff
 8000c70:	739a      	strb	r2, [r3, #14]
 8000c72:	e004      	b.n	8000c7e <tca9555_Init+0x8a>

		}

		else {

			ioexp->TCA9555_REG_DATA[i] = 0x00;
 8000c74:	7dfb      	ldrb	r3, [r7, #23]
 8000c76:	68fa      	ldr	r2, [r7, #12]
 8000c78:	4413      	add	r3, r2
 8000c7a:	2200      	movs	r2, #0
 8000c7c:	739a      	strb	r2, [r3, #14]
	for (uint8_t i = TCA9555_REG_INPUT0; i < TCA9555_REG_CONFIG1; i++) {
 8000c7e:	7dfb      	ldrb	r3, [r7, #23]
 8000c80:	3301      	adds	r3, #1
 8000c82:	75fb      	strb	r3, [r7, #23]
 8000c84:	7dfb      	ldrb	r3, [r7, #23]
 8000c86:	2b06      	cmp	r3, #6
 8000c88:	d9e8      	bls.n	8000c5c <tca9555_Init+0x68>

		}

	}

}
 8000c8a:	bf00      	nop
 8000c8c:	bf00      	nop
 8000c8e:	371c      	adds	r7, #28
 8000c90:	46bd      	mov	sp, r7
 8000c92:	f85d 7b04 	ldr.w	r7, [sp], #4
 8000c96:	4770      	bx	lr

08000c98 <Reset_Handler>:

    .section  .text.Reset_Handler
  .weak  Reset_Handler
  .type  Reset_Handler, %function
Reset_Handler:  
  ldr   sp, =_estack    		 /* set stack pointer */
 8000c98:	f8df d034 	ldr.w	sp, [pc, #52]	@ 8000cd0 <LoopFillZerobss+0xe>

/* Call the clock system initialization function.*/
  bl  SystemInit   
 8000c9c:	f7ff ff98 	bl	8000bd0 <SystemInit>

/* Copy the data segment initializers from flash to SRAM */  
  ldr r0, =_sdata
 8000ca0:	480c      	ldr	r0, [pc, #48]	@ (8000cd4 <LoopFillZerobss+0x12>)
  ldr r1, =_edata
 8000ca2:	490d      	ldr	r1, [pc, #52]	@ (8000cd8 <LoopFillZerobss+0x16>)
  ldr r2, =_sidata
 8000ca4:	4a0d      	ldr	r2, [pc, #52]	@ (8000cdc <LoopFillZerobss+0x1a>)
  movs r3, #0
 8000ca6:	2300      	movs	r3, #0
  b LoopCopyDataInit
 8000ca8:	e002      	b.n	8000cb0 <LoopCopyDataInit>

08000caa <CopyDataInit>:

CopyDataInit:
  ldr r4, [r2, r3]
 8000caa:	58d4      	ldr	r4, [r2, r3]
  str r4, [r0, r3]
 8000cac:	50c4      	str	r4, [r0, r3]
  adds r3, r3, #4
 8000cae:	3304      	adds	r3, #4

08000cb0 <LoopCopyDataInit>:

LoopCopyDataInit:
  adds r4, r0, r3
 8000cb0:	18c4      	adds	r4, r0, r3
  cmp r4, r1
 8000cb2:	428c      	cmp	r4, r1
  bcc CopyDataInit
 8000cb4:	d3f9      	bcc.n	8000caa <CopyDataInit>
  
/* Zero fill the bss segment. */
  ldr r2, =_sbss
 8000cb6:	4a0a      	ldr	r2, [pc, #40]	@ (8000ce0 <LoopFillZerobss+0x1e>)
  ldr r4, =_ebss
 8000cb8:	4c0a      	ldr	r4, [pc, #40]	@ (8000ce4 <LoopFillZerobss+0x22>)
  movs r3, #0
 8000cba:	2300      	movs	r3, #0
  b LoopFillZerobss
 8000cbc:	e001      	b.n	8000cc2 <LoopFillZerobss>

08000cbe <FillZerobss>:

FillZerobss:
  str  r3, [r2]
 8000cbe:	6013      	str	r3, [r2, #0]
  adds r2, r2, #4
 8000cc0:	3204      	adds	r2, #4

08000cc2 <LoopFillZerobss>:

LoopFillZerobss:
  cmp r2, r4
 8000cc2:	42a2      	cmp	r2, r4
  bcc FillZerobss
 8000cc4:	d3fb      	bcc.n	8000cbe <FillZerobss>

/* Call static constructors */
    bl __libc_init_array
 8000cc6:	f006 fd7b 	bl	80077c0 <__libc_init_array>
/* Call the application's entry point.*/
  bl  main
 8000cca:	f7ff fbfd 	bl	80004c8 <main>
  bx  lr    
 8000cce:	4770      	bx	lr
  ldr   sp, =_estack    		 /* set stack pointer */
 8000cd0:	20020000 	.word	0x20020000
  ldr r0, =_sdata
 8000cd4:	20000000 	.word	0x20000000
  ldr r1, =_edata
 8000cd8:	2000011c 	.word	0x2000011c
  ldr r2, =_sidata
 8000cdc:	08007890 	.word	0x08007890
  ldr r2, =_sbss
 8000ce0:	2000011c 	.word	0x2000011c
  ldr r4, =_ebss
 8000ce4:	20000c74 	.word	0x20000c74

08000ce8 <ADC_IRQHandler>:
 * @retval None       
*/
    .section  .text.Default_Handler,"ax",%progbits
Default_Handler:
Infinite_Loop:
  b  Infinite_Loop
 8000ce8:	e7fe      	b.n	8000ce8 <ADC_IRQHandler>
	...

08000cec <HAL_Init>:
  *         need to ensure that the SysTick time base is always set to 1 millisecond
  *         to have correct HAL operation.
  * @retval HAL status
  */
HAL_StatusTypeDef HAL_Init(void)
{
 8000cec:	b580      	push	{r7, lr}
 8000cee:	af00      	add	r7, sp, #0
  /* Configure Flash prefetch, Instruction cache, Data cache */ 
#if (INSTRUCTION_CACHE_ENABLE != 0U)
  __HAL_FLASH_INSTRUCTION_CACHE_ENABLE();
 8000cf0:	4b0e      	ldr	r3, [pc, #56]	@ (8000d2c <HAL_Init+0x40>)
 8000cf2:	681b      	ldr	r3, [r3, #0]
 8000cf4:	4a0d      	ldr	r2, [pc, #52]	@ (8000d2c <HAL_Init+0x40>)
 8000cf6:	f443 7300 	orr.w	r3, r3, #512	@ 0x200
 8000cfa:	6013      	str	r3, [r2, #0]
#endif /* INSTRUCTION_CACHE_ENABLE */

#if (DATA_CACHE_ENABLE != 0U)
  __HAL_FLASH_DATA_CACHE_ENABLE();
 8000cfc:	4b0b      	ldr	r3, [pc, #44]	@ (8000d2c <HAL_Init+0x40>)
 8000cfe:	681b      	ldr	r3, [r3, #0]
 8000d00:	4a0a      	ldr	r2, [pc, #40]	@ (8000d2c <HAL_Init+0x40>)
 8000d02:	f443 6380 	orr.w	r3, r3, #1024	@ 0x400
 8000d06:	6013      	str	r3, [r2, #0]
#endif /* DATA_CACHE_ENABLE */

#if (PREFETCH_ENABLE != 0U)
  __HAL_FLASH_PREFETCH_BUFFER_ENABLE();
 8000d08:	4b08      	ldr	r3, [pc, #32]	@ (8000d2c <HAL_Init+0x40>)
 8000d0a:	681b      	ldr	r3, [r3, #0]
 8000d0c:	4a07      	ldr	r2, [pc, #28]	@ (8000d2c <HAL_Init+0x40>)
 8000d0e:	f443 7380 	orr.w	r3, r3, #256	@ 0x100
 8000d12:	6013      	str	r3, [r2, #0]
#endif /* PREFETCH_ENABLE */

  /* Set Interrupt Group Priority */
  HAL_NVIC_SetPriorityGrouping(NVIC_PRIORITYGROUP_4);
 8000d14:	2003      	movs	r0, #3
 8000d16:	f000 fbc1 	bl	800149c <HAL_NVIC_SetPriorityGrouping>

  /* Use systick as time base source and configure 1ms tick (default clock after Reset is HSI) */
  HAL_InitTick(TICK_INT_PRIORITY);
 8000d1a:	200f      	movs	r0, #15
 8000d1c:	f000 f808 	bl	8000d30 <HAL_InitTick>

  /* Init the low level hardware */
  HAL_MspInit();
 8000d20:	f7ff fdd8 	bl	80008d4 <HAL_MspInit>

  /* Return function status */
  return HAL_OK;
 8000d24:	2300      	movs	r3, #0
}
 8000d26:	4618      	mov	r0, r3
 8000d28:	bd80      	pop	{r7, pc}
 8000d2a:	bf00      	nop
 8000d2c:	40023c00 	.word	0x40023c00

08000d30 <HAL_InitTick>:
  *       implementation  in user file.
  * @param TickPriority Tick interrupt priority.
  * @retval HAL status
  */
__weak HAL_StatusTypeDef HAL_InitTick(uint32_t TickPriority)
{
 8000d30:	b580      	push	{r7, lr}
 8000d32:	b082      	sub	sp, #8
 8000d34:	af00      	add	r7, sp, #0
 8000d36:	6078      	str	r0, [r7, #4]
  /* Configure the SysTick to have interrupt in 1ms time basis*/
  if (HAL_SYSTICK_Config(SystemCoreClock / (1000U / uwTickFreq)) > 0U)
 8000d38:	4b12      	ldr	r3, [pc, #72]	@ (8000d84 <HAL_InitTick+0x54>)
 8000d3a:	681a      	ldr	r2, [r3, #0]
 8000d3c:	4b12      	ldr	r3, [pc, #72]	@ (8000d88 <HAL_InitTick+0x58>)
 8000d3e:	781b      	ldrb	r3, [r3, #0]
 8000d40:	4619      	mov	r1, r3
 8000d42:	f44f 737a 	mov.w	r3, #1000	@ 0x3e8
 8000d46:	fbb3 f3f1 	udiv	r3, r3, r1
 8000d4a:	fbb2 f3f3 	udiv	r3, r2, r3
 8000d4e:	4618      	mov	r0, r3
 8000d50:	f000 fbd9 	bl	8001506 <HAL_SYSTICK_Config>
 8000d54:	4603      	mov	r3, r0
 8000d56:	2b00      	cmp	r3, #0
 8000d58:	d001      	beq.n	8000d5e <HAL_InitTick+0x2e>
  {
    return HAL_ERROR;
 8000d5a:	2301      	movs	r3, #1
 8000d5c:	e00e      	b.n	8000d7c <HAL_InitTick+0x4c>
  }

  /* Configure the SysTick IRQ priority */
  if (TickPriority < (1UL << __NVIC_PRIO_BITS))
 8000d5e:	687b      	ldr	r3, [r7, #4]
 8000d60:	2b0f      	cmp	r3, #15
 8000d62:	d80a      	bhi.n	8000d7a <HAL_InitTick+0x4a>
  {
    HAL_NVIC_SetPriority(SysTick_IRQn, TickPriority, 0U);
 8000d64:	2200      	movs	r2, #0
 8000d66:	6879      	ldr	r1, [r7, #4]
 8000d68:	f04f 30ff 	mov.w	r0, #4294967295
 8000d6c:	f000 fba1 	bl	80014b2 <HAL_NVIC_SetPriority>
    uwTickPrio = TickPriority;
 8000d70:	4a06      	ldr	r2, [pc, #24]	@ (8000d8c <HAL_InitTick+0x5c>)
 8000d72:	687b      	ldr	r3, [r7, #4]
 8000d74:	6013      	str	r3, [r2, #0]
  {
    return HAL_ERROR;
  }

  /* Return function status */
  return HAL_OK;
 8000d76:	2300      	movs	r3, #0
 8000d78:	e000      	b.n	8000d7c <HAL_InitTick+0x4c>
    return HAL_ERROR;
 8000d7a:	2301      	movs	r3, #1
}
 8000d7c:	4618      	mov	r0, r3
 8000d7e:	3708      	adds	r7, #8
 8000d80:	46bd      	mov	sp, r7
 8000d82:	bd80      	pop	{r7, pc}
 8000d84:	20000000 	.word	0x20000000
 8000d88:	20000008 	.word	0x20000008
 8000d8c:	20000004 	.word	0x20000004

08000d90 <HAL_IncTick>:
 * @note This function is declared as __weak to be overwritten in case of other 
  *      implementations in user file.
  * @retval None
  */
__weak void HAL_IncTick(void)
{
 8000d90:	b480      	push	{r7}
 8000d92:	af00      	add	r7, sp, #0
  uwTick += uwTickFreq;
 8000d94:	4b06      	ldr	r3, [pc, #24]	@ (8000db0 <HAL_IncTick+0x20>)
 8000d96:	781b      	ldrb	r3, [r3, #0]
 8000d98:	461a      	mov	r2, r3
 8000d9a:	4b06      	ldr	r3, [pc, #24]	@ (8000db4 <HAL_IncTick+0x24>)
 8000d9c:	681b      	ldr	r3, [r3, #0]
 8000d9e:	4413      	add	r3, r2
 8000da0:	4a04      	ldr	r2, [pc, #16]	@ (8000db4 <HAL_IncTick+0x24>)
 8000da2:	6013      	str	r3, [r2, #0]
}
 8000da4:	bf00      	nop
 8000da6:	46bd      	mov	sp, r7
 8000da8:	f85d 7b04 	ldr.w	r7, [sp], #4
 8000dac:	4770      	bx	lr
 8000dae:	bf00      	nop
 8000db0:	20000008 	.word	0x20000008
 8000db4:	20000298 	.word	0x20000298

08000db8 <HAL_GetTick>:
  * @note This function is declared as __weak to be overwritten in case of other 
  *       implementations in user file.
  * @retval tick value
  */
__weak uint32_t HAL_GetTick(void)
{
 8000db8:	b480      	push	{r7}
 8000dba:	af00      	add	r7, sp, #0
  return uwTick;
 8000dbc:	4b03      	ldr	r3, [pc, #12]	@ (8000dcc <HAL_GetTick+0x14>)
 8000dbe:	681b      	ldr	r3, [r3, #0]
}
 8000dc0:	4618      	mov	r0, r3
 8000dc2:	46bd      	mov	sp, r7
 8000dc4:	f85d 7b04 	ldr.w	r7, [sp], #4
 8000dc8:	4770      	bx	lr
 8000dca:	bf00      	nop
 8000dcc:	20000298 	.word	0x20000298

08000dd0 <HAL_Delay>:
  *       implementations in user file.
  * @param Delay specifies the delay time length, in milliseconds.
  * @retval None
  */
__weak void HAL_Delay(uint32_t Delay)
{
 8000dd0:	b580      	push	{r7, lr}
 8000dd2:	b084      	sub	sp, #16
 8000dd4:	af00      	add	r7, sp, #0
 8000dd6:	6078      	str	r0, [r7, #4]
  uint32_t tickstart = HAL_GetTick();
 8000dd8:	f7ff ffee 	bl	8000db8 <HAL_GetTick>
 8000ddc:	60b8      	str	r0, [r7, #8]
  uint32_t wait = Delay;
 8000dde:	687b      	ldr	r3, [r7, #4]
 8000de0:	60fb      	str	r3, [r7, #12]

  /* Add a freq to guarantee minimum wait */
  if (wait < HAL_MAX_DELAY)
 8000de2:	68fb      	ldr	r3, [r7, #12]
 8000de4:	f1b3 3fff 	cmp.w	r3, #4294967295
 8000de8:	d005      	beq.n	8000df6 <HAL_Delay+0x26>
  {
    wait += (uint32_t)(uwTickFreq);
 8000dea:	4b0a      	ldr	r3, [pc, #40]	@ (8000e14 <HAL_Delay+0x44>)
 8000dec:	781b      	ldrb	r3, [r3, #0]
 8000dee:	461a      	mov	r2, r3
 8000df0:	68fb      	ldr	r3, [r7, #12]
 8000df2:	4413      	add	r3, r2
 8000df4:	60fb      	str	r3, [r7, #12]
  }

  while((HAL_GetTick() - tickstart) < wait)
 8000df6:	bf00      	nop
 8000df8:	f7ff ffde 	bl	8000db8 <HAL_GetTick>
 8000dfc:	4602      	mov	r2, r0
 8000dfe:	68bb      	ldr	r3, [r7, #8]
 8000e00:	1ad3      	subs	r3, r2, r3
 8000e02:	68fa      	ldr	r2, [r7, #12]
 8000e04:	429a      	cmp	r2, r3
 8000e06:	d8f7      	bhi.n	8000df8 <HAL_Delay+0x28>
  {
  }
}
 8000e08:	bf00      	nop
 8000e0a:	bf00      	nop
 8000e0c:	3710      	adds	r7, #16
 8000e0e:	46bd      	mov	sp, r7
 8000e10:	bd80      	pop	{r7, pc}
 8000e12:	bf00      	nop
 8000e14:	20000008 	.word	0x20000008

08000e18 <HAL_ADC_Init>:
  * @param  hadc pointer to a ADC_HandleTypeDef structure that contains
  *         the configuration information for the specified ADC.
  * @retval HAL status
  */
HAL_StatusTypeDef HAL_ADC_Init(ADC_HandleTypeDef *hadc)
{
 8000e18:	b580      	push	{r7, lr}
 8000e1a:	b084      	sub	sp, #16
 8000e1c:	af00      	add	r7, sp, #0
 8000e1e:	6078      	str	r0, [r7, #4]
  HAL_StatusTypeDef tmp_hal_status = HAL_OK;
 8000e20:	2300      	movs	r3, #0
 8000e22:	73fb      	strb	r3, [r7, #15]

  /* Check ADC handle */
  if (hadc == NULL)
 8000e24:	687b      	ldr	r3, [r7, #4]
 8000e26:	2b00      	cmp	r3, #0
 8000e28:	d101      	bne.n	8000e2e <HAL_ADC_Init+0x16>
  {
    return HAL_ERROR;
 8000e2a:	2301      	movs	r3, #1
 8000e2c:	e033      	b.n	8000e96 <HAL_ADC_Init+0x7e>
  if (hadc->Init.ExternalTrigConv != ADC_SOFTWARE_START)
  {
    assert_param(IS_ADC_EXT_TRIG_EDGE(hadc->Init.ExternalTrigConvEdge));
  }

  if (hadc->State == HAL_ADC_STATE_RESET)
 8000e2e:	687b      	ldr	r3, [r7, #4]
 8000e30:	6c1b      	ldr	r3, [r3, #64]	@ 0x40
 8000e32:	2b00      	cmp	r3, #0
 8000e34:	d109      	bne.n	8000e4a <HAL_ADC_Init+0x32>

    /* Init the low level hardware */
    hadc->MspInitCallback(hadc);
#else
    /* Init the low level hardware */
    HAL_ADC_MspInit(hadc);
 8000e36:	6878      	ldr	r0, [r7, #4]
 8000e38:	f7ff fd74 	bl	8000924 <HAL_ADC_MspInit>
#endif /* USE_HAL_ADC_REGISTER_CALLBACKS */

    /* Initialize ADC error code */
    ADC_CLEAR_ERRORCODE(hadc);
 8000e3c:	687b      	ldr	r3, [r7, #4]
 8000e3e:	2200      	movs	r2, #0
 8000e40:	645a      	str	r2, [r3, #68]	@ 0x44

    /* Allocate lock resource and initialize it */
    hadc->Lock = HAL_UNLOCKED;
 8000e42:	687b      	ldr	r3, [r7, #4]
 8000e44:	2200      	movs	r2, #0
 8000e46:	f883 203c 	strb.w	r2, [r3, #60]	@ 0x3c
  }

  /* Configuration of ADC parameters if previous preliminary actions are      */
  /* correctly completed.                                                     */
  if (HAL_IS_BIT_CLR(hadc->State, HAL_ADC_STATE_ERROR_INTERNAL))
 8000e4a:	687b      	ldr	r3, [r7, #4]
 8000e4c:	6c1b      	ldr	r3, [r3, #64]	@ 0x40
 8000e4e:	f003 0310 	and.w	r3, r3, #16
 8000e52:	2b00      	cmp	r3, #0
 8000e54:	d118      	bne.n	8000e88 <HAL_ADC_Init+0x70>
  {
    /* Set ADC state */
    ADC_STATE_CLR_SET(hadc->State,
 8000e56:	687b      	ldr	r3, [r7, #4]
 8000e58:	6c1b      	ldr	r3, [r3, #64]	@ 0x40
 8000e5a:	f423 5388 	bic.w	r3, r3, #4352	@ 0x1100
 8000e5e:	f023 0302 	bic.w	r3, r3, #2
 8000e62:	f043 0202 	orr.w	r2, r3, #2
 8000e66:	687b      	ldr	r3, [r7, #4]
 8000e68:	641a      	str	r2, [r3, #64]	@ 0x40
                      HAL_ADC_STATE_REG_BUSY | HAL_ADC_STATE_INJ_BUSY,
                      HAL_ADC_STATE_BUSY_INTERNAL);

    /* Set ADC parameters */
    ADC_Init(hadc);
 8000e6a:	6878      	ldr	r0, [r7, #4]
 8000e6c:	f000 f94a 	bl	8001104 <ADC_Init>

    /* Set ADC error code to none */
    ADC_CLEAR_ERRORCODE(hadc);
 8000e70:	687b      	ldr	r3, [r7, #4]
 8000e72:	2200      	movs	r2, #0
 8000e74:	645a      	str	r2, [r3, #68]	@ 0x44

    /* Set the ADC state */
    ADC_STATE_CLR_SET(hadc->State,
 8000e76:	687b      	ldr	r3, [r7, #4]
 8000e78:	6c1b      	ldr	r3, [r3, #64]	@ 0x40
 8000e7a:	f023 0303 	bic.w	r3, r3, #3
 8000e7e:	f043 0201 	orr.w	r2, r3, #1
 8000e82:	687b      	ldr	r3, [r7, #4]
 8000e84:	641a      	str	r2, [r3, #64]	@ 0x40
 8000e86:	e001      	b.n	8000e8c <HAL_ADC_Init+0x74>
                      HAL_ADC_STATE_BUSY_INTERNAL,
                      HAL_ADC_STATE_READY);
  }
  else
  {
    tmp_hal_status = HAL_ERROR;
 8000e88:	2301      	movs	r3, #1
 8000e8a:	73fb      	strb	r3, [r7, #15]
  }

  /* Release Lock */
  __HAL_UNLOCK(hadc);
 8000e8c:	687b      	ldr	r3, [r7, #4]
 8000e8e:	2200      	movs	r2, #0
 8000e90:	f883 203c 	strb.w	r2, [r3, #60]	@ 0x3c

  /* Return function status */
  return tmp_hal_status;
 8000e94:	7bfb      	ldrb	r3, [r7, #15]
}
 8000e96:	4618      	mov	r0, r3
 8000e98:	3710      	adds	r7, #16
 8000e9a:	46bd      	mov	sp, r7
 8000e9c:	bd80      	pop	{r7, pc}
	...

08000ea0 <HAL_ADC_ConfigChannel>:
*         the configuration information for the specified ADC.
* @param  sConfig ADC configuration structure.
* @retval HAL status
*/
HAL_StatusTypeDef HAL_ADC_ConfigChannel(ADC_HandleTypeDef *hadc, ADC_ChannelConfTypeDef *sConfig)
{
 8000ea0:	b480      	push	{r7}
 8000ea2:	b085      	sub	sp, #20
 8000ea4:	af00      	add	r7, sp, #0
 8000ea6:	6078      	str	r0, [r7, #4]
 8000ea8:	6039      	str	r1, [r7, #0]
  __IO uint32_t counter = 0U;
 8000eaa:	2300      	movs	r3, #0
 8000eac:	60bb      	str	r3, [r7, #8]
  assert_param(IS_ADC_CHANNEL(sConfig->Channel));
  assert_param(IS_ADC_REGULAR_RANK(sConfig->Rank));
  assert_param(IS_ADC_SAMPLE_TIME(sConfig->SamplingTime));

  /* Process locked */
  __HAL_LOCK(hadc);
 8000eae:	687b      	ldr	r3, [r7, #4]
 8000eb0:	f893 303c 	ldrb.w	r3, [r3, #60]	@ 0x3c
 8000eb4:	2b01      	cmp	r3, #1
 8000eb6:	d101      	bne.n	8000ebc <HAL_ADC_ConfigChannel+0x1c>
 8000eb8:	2302      	movs	r3, #2
 8000eba:	e113      	b.n	80010e4 <HAL_ADC_ConfigChannel+0x244>
 8000ebc:	687b      	ldr	r3, [r7, #4]
 8000ebe:	2201      	movs	r2, #1
 8000ec0:	f883 203c 	strb.w	r2, [r3, #60]	@ 0x3c

  /* if ADC_Channel_10 ... ADC_Channel_18 is selected */
  if (sConfig->Channel > ADC_CHANNEL_9)
 8000ec4:	683b      	ldr	r3, [r7, #0]
 8000ec6:	681b      	ldr	r3, [r3, #0]
 8000ec8:	2b09      	cmp	r3, #9
 8000eca:	d925      	bls.n	8000f18 <HAL_ADC_ConfigChannel+0x78>
  {
    /* Clear the old sample time */
    hadc->Instance->SMPR1 &= ~ADC_SMPR1(ADC_SMPR1_SMP10, sConfig->Channel);
 8000ecc:	687b      	ldr	r3, [r7, #4]
 8000ece:	681b      	ldr	r3, [r3, #0]
 8000ed0:	68d9      	ldr	r1, [r3, #12]
 8000ed2:	683b      	ldr	r3, [r7, #0]
 8000ed4:	681b      	ldr	r3, [r3, #0]
 8000ed6:	b29b      	uxth	r3, r3
 8000ed8:	461a      	mov	r2, r3
 8000eda:	4613      	mov	r3, r2
 8000edc:	005b      	lsls	r3, r3, #1
 8000ede:	4413      	add	r3, r2
 8000ee0:	3b1e      	subs	r3, #30
 8000ee2:	2207      	movs	r2, #7
 8000ee4:	fa02 f303 	lsl.w	r3, r2, r3
 8000ee8:	43da      	mvns	r2, r3
 8000eea:	687b      	ldr	r3, [r7, #4]
 8000eec:	681b      	ldr	r3, [r3, #0]
 8000eee:	400a      	ands	r2, r1
 8000ef0:	60da      	str	r2, [r3, #12]

    /* Set the new sample time */
    hadc->Instance->SMPR1 |= ADC_SMPR1(sConfig->SamplingTime, sConfig->Channel);
 8000ef2:	687b      	ldr	r3, [r7, #4]
 8000ef4:	681b      	ldr	r3, [r3, #0]
 8000ef6:	68d9      	ldr	r1, [r3, #12]
 8000ef8:	683b      	ldr	r3, [r7, #0]
 8000efa:	689a      	ldr	r2, [r3, #8]
 8000efc:	683b      	ldr	r3, [r7, #0]
 8000efe:	681b      	ldr	r3, [r3, #0]
 8000f00:	b29b      	uxth	r3, r3
 8000f02:	4618      	mov	r0, r3
 8000f04:	4603      	mov	r3, r0
 8000f06:	005b      	lsls	r3, r3, #1
 8000f08:	4403      	add	r3, r0
 8000f0a:	3b1e      	subs	r3, #30
 8000f0c:	409a      	lsls	r2, r3
 8000f0e:	687b      	ldr	r3, [r7, #4]
 8000f10:	681b      	ldr	r3, [r3, #0]
 8000f12:	430a      	orrs	r2, r1
 8000f14:	60da      	str	r2, [r3, #12]
 8000f16:	e022      	b.n	8000f5e <HAL_ADC_ConfigChannel+0xbe>
  }
  else /* ADC_Channel include in ADC_Channel_[0..9] */
  {
    /* Clear the old sample time */
    hadc->Instance->SMPR2 &= ~ADC_SMPR2(ADC_SMPR2_SMP0, sConfig->Channel);
 8000f18:	687b      	ldr	r3, [r7, #4]
 8000f1a:	681b      	ldr	r3, [r3, #0]
 8000f1c:	6919      	ldr	r1, [r3, #16]
 8000f1e:	683b      	ldr	r3, [r7, #0]
 8000f20:	681b      	ldr	r3, [r3, #0]
 8000f22:	b29b      	uxth	r3, r3
 8000f24:	461a      	mov	r2, r3
 8000f26:	4613      	mov	r3, r2
 8000f28:	005b      	lsls	r3, r3, #1
 8000f2a:	4413      	add	r3, r2
 8000f2c:	2207      	movs	r2, #7
 8000f2e:	fa02 f303 	lsl.w	r3, r2, r3
 8000f32:	43da      	mvns	r2, r3
 8000f34:	687b      	ldr	r3, [r7, #4]
 8000f36:	681b      	ldr	r3, [r3, #0]
 8000f38:	400a      	ands	r2, r1
 8000f3a:	611a      	str	r2, [r3, #16]

    /* Set the new sample time */
    hadc->Instance->SMPR2 |= ADC_SMPR2(sConfig->SamplingTime, sConfig->Channel);
 8000f3c:	687b      	ldr	r3, [r7, #4]
 8000f3e:	681b      	ldr	r3, [r3, #0]
 8000f40:	6919      	ldr	r1, [r3, #16]
 8000f42:	683b      	ldr	r3, [r7, #0]
 8000f44:	689a      	ldr	r2, [r3, #8]
 8000f46:	683b      	ldr	r3, [r7, #0]
 8000f48:	681b      	ldr	r3, [r3, #0]
 8000f4a:	b29b      	uxth	r3, r3
 8000f4c:	4618      	mov	r0, r3
 8000f4e:	4603      	mov	r3, r0
 8000f50:	005b      	lsls	r3, r3, #1
 8000f52:	4403      	add	r3, r0
 8000f54:	409a      	lsls	r2, r3
 8000f56:	687b      	ldr	r3, [r7, #4]
 8000f58:	681b      	ldr	r3, [r3, #0]
 8000f5a:	430a      	orrs	r2, r1
 8000f5c:	611a      	str	r2, [r3, #16]
  }

  /* For Rank 1 to 6 */
  if (sConfig->Rank < 7U)
 8000f5e:	683b      	ldr	r3, [r7, #0]
 8000f60:	685b      	ldr	r3, [r3, #4]
 8000f62:	2b06      	cmp	r3, #6
 8000f64:	d824      	bhi.n	8000fb0 <HAL_ADC_ConfigChannel+0x110>
  {
    /* Clear the old SQx bits for the selected rank */
    hadc->Instance->SQR3 &= ~ADC_SQR3_RK(ADC_SQR3_SQ1, sConfig->Rank);
 8000f66:	687b      	ldr	r3, [r7, #4]
 8000f68:	681b      	ldr	r3, [r3, #0]
 8000f6a:	6b59      	ldr	r1, [r3, #52]	@ 0x34
 8000f6c:	683b      	ldr	r3, [r7, #0]
 8000f6e:	685a      	ldr	r2, [r3, #4]
 8000f70:	4613      	mov	r3, r2
 8000f72:	009b      	lsls	r3, r3, #2
 8000f74:	4413      	add	r3, r2
 8000f76:	3b05      	subs	r3, #5
 8000f78:	221f      	movs	r2, #31
 8000f7a:	fa02 f303 	lsl.w	r3, r2, r3
 8000f7e:	43da      	mvns	r2, r3
 8000f80:	687b      	ldr	r3, [r7, #4]
 8000f82:	681b      	ldr	r3, [r3, #0]
 8000f84:	400a      	ands	r2, r1
 8000f86:	635a      	str	r2, [r3, #52]	@ 0x34

    /* Set the SQx bits for the selected rank */
    hadc->Instance->SQR3 |= ADC_SQR3_RK(sConfig->Channel, sConfig->Rank);
 8000f88:	687b      	ldr	r3, [r7, #4]
 8000f8a:	681b      	ldr	r3, [r3, #0]
 8000f8c:	6b59      	ldr	r1, [r3, #52]	@ 0x34
 8000f8e:	683b      	ldr	r3, [r7, #0]
 8000f90:	681b      	ldr	r3, [r3, #0]
 8000f92:	b29b      	uxth	r3, r3
 8000f94:	4618      	mov	r0, r3
 8000f96:	683b      	ldr	r3, [r7, #0]
 8000f98:	685a      	ldr	r2, [r3, #4]
 8000f9a:	4613      	mov	r3, r2
 8000f9c:	009b      	lsls	r3, r3, #2
 8000f9e:	4413      	add	r3, r2
 8000fa0:	3b05      	subs	r3, #5
 8000fa2:	fa00 f203 	lsl.w	r2, r0, r3
 8000fa6:	687b      	ldr	r3, [r7, #4]
 8000fa8:	681b      	ldr	r3, [r3, #0]
 8000faa:	430a      	orrs	r2, r1
 8000fac:	635a      	str	r2, [r3, #52]	@ 0x34
 8000fae:	e04c      	b.n	800104a <HAL_ADC_ConfigChannel+0x1aa>
  }
  /* For Rank 7 to 12 */
  else if (sConfig->Rank < 13U)
 8000fb0:	683b      	ldr	r3, [r7, #0]
 8000fb2:	685b      	ldr	r3, [r3, #4]
 8000fb4:	2b0c      	cmp	r3, #12
 8000fb6:	d824      	bhi.n	8001002 <HAL_ADC_ConfigChannel+0x162>
  {
    /* Clear the old SQx bits for the selected rank */
    hadc->Instance->SQR2 &= ~ADC_SQR2_RK(ADC_SQR2_SQ7, sConfig->Rank);
 8000fb8:	687b      	ldr	r3, [r7, #4]
 8000fba:	681b      	ldr	r3, [r3, #0]
 8000fbc:	6b19      	ldr	r1, [r3, #48]	@ 0x30
 8000fbe:	683b      	ldr	r3, [r7, #0]
 8000fc0:	685a      	ldr	r2, [r3, #4]
 8000fc2:	4613      	mov	r3, r2
 8000fc4:	009b      	lsls	r3, r3, #2
 8000fc6:	4413      	add	r3, r2
 8000fc8:	3b23      	subs	r3, #35	@ 0x23
 8000fca:	221f      	movs	r2, #31
 8000fcc:	fa02 f303 	lsl.w	r3, r2, r3
 8000fd0:	43da      	mvns	r2, r3
 8000fd2:	687b      	ldr	r3, [r7, #4]
 8000fd4:	681b      	ldr	r3, [r3, #0]
 8000fd6:	400a      	ands	r2, r1
 8000fd8:	631a      	str	r2, [r3, #48]	@ 0x30

    /* Set the SQx bits for the selected rank */
    hadc->Instance->SQR2 |= ADC_SQR2_RK(sConfig->Channel, sConfig->Rank);
 8000fda:	687b      	ldr	r3, [r7, #4]
 8000fdc:	681b      	ldr	r3, [r3, #0]
 8000fde:	6b19      	ldr	r1, [r3, #48]	@ 0x30
 8000fe0:	683b      	ldr	r3, [r7, #0]
 8000fe2:	681b      	ldr	r3, [r3, #0]
 8000fe4:	b29b      	uxth	r3, r3
 8000fe6:	4618      	mov	r0, r3
 8000fe8:	683b      	ldr	r3, [r7, #0]
 8000fea:	685a      	ldr	r2, [r3, #4]
 8000fec:	4613      	mov	r3, r2
 8000fee:	009b      	lsls	r3, r3, #2
 8000ff0:	4413      	add	r3, r2
 8000ff2:	3b23      	subs	r3, #35	@ 0x23
 8000ff4:	fa00 f203 	lsl.w	r2, r0, r3
 8000ff8:	687b      	ldr	r3, [r7, #4]
 8000ffa:	681b      	ldr	r3, [r3, #0]
 8000ffc:	430a      	orrs	r2, r1
 8000ffe:	631a      	str	r2, [r3, #48]	@ 0x30
 8001000:	e023      	b.n	800104a <HAL_ADC_ConfigChannel+0x1aa>
  }
  /* For Rank 13 to 16 */
  else
  {
    /* Clear the old SQx bits for the selected rank */
    hadc->Instance->SQR1 &= ~ADC_SQR1_RK(ADC_SQR1_SQ13, sConfig->Rank);
 8001002:	687b      	ldr	r3, [r7, #4]
 8001004:	681b      	ldr	r3, [r3, #0]
 8001006:	6ad9      	ldr	r1, [r3, #44]	@ 0x2c
 8001008:	683b      	ldr	r3, [r7, #0]
 800100a:	685a      	ldr	r2, [r3, #4]
 800100c:	4613      	mov	r3, r2
 800100e:	009b      	lsls	r3, r3, #2
 8001010:	4413      	add	r3, r2
 8001012:	3b41      	subs	r3, #65	@ 0x41
 8001014:	221f      	movs	r2, #31
 8001016:	fa02 f303 	lsl.w	r3, r2, r3
 800101a:	43da      	mvns	r2, r3
 800101c:	687b      	ldr	r3, [r7, #4]
 800101e:	681b      	ldr	r3, [r3, #0]
 8001020:	400a      	ands	r2, r1
 8001022:	62da      	str	r2, [r3, #44]	@ 0x2c

    /* Set the SQx bits for the selected rank */
    hadc->Instance->SQR1 |= ADC_SQR1_RK(sConfig->Channel, sConfig->Rank);
 8001024:	687b      	ldr	r3, [r7, #4]
 8001026:	681b      	ldr	r3, [r3, #0]
 8001028:	6ad9      	ldr	r1, [r3, #44]	@ 0x2c
 800102a:	683b      	ldr	r3, [r7, #0]
 800102c:	681b      	ldr	r3, [r3, #0]
 800102e:	b29b      	uxth	r3, r3
 8001030:	4618      	mov	r0, r3
 8001032:	683b      	ldr	r3, [r7, #0]
 8001034:	685a      	ldr	r2, [r3, #4]
 8001036:	4613      	mov	r3, r2
 8001038:	009b      	lsls	r3, r3, #2
 800103a:	4413      	add	r3, r2
 800103c:	3b41      	subs	r3, #65	@ 0x41
 800103e:	fa00 f203 	lsl.w	r2, r0, r3
 8001042:	687b      	ldr	r3, [r7, #4]
 8001044:	681b      	ldr	r3, [r3, #0]
 8001046:	430a      	orrs	r2, r1
 8001048:	62da      	str	r2, [r3, #44]	@ 0x2c
  }

  /* Pointer to the common control register to which is belonging hadc    */
  /* (Depending on STM32F4 product, there may be up to 3 ADCs and 1 common */
  /* control register)                                                    */
  tmpADC_Common = ADC_COMMON_REGISTER(hadc);
 800104a:	4b29      	ldr	r3, [pc, #164]	@ (80010f0 <HAL_ADC_ConfigChannel+0x250>)
 800104c:	60fb      	str	r3, [r7, #12]

  /* if ADC1 Channel_18 is selected for VBAT Channel ennable VBATE */
  if ((hadc->Instance == ADC1) && (sConfig->Channel == ADC_CHANNEL_VBAT))
 800104e:	687b      	ldr	r3, [r7, #4]
 8001050:	681b      	ldr	r3, [r3, #0]
 8001052:	4a28      	ldr	r2, [pc, #160]	@ (80010f4 <HAL_ADC_ConfigChannel+0x254>)
 8001054:	4293      	cmp	r3, r2
 8001056:	d10f      	bne.n	8001078 <HAL_ADC_ConfigChannel+0x1d8>
 8001058:	683b      	ldr	r3, [r7, #0]
 800105a:	681b      	ldr	r3, [r3, #0]
 800105c:	2b12      	cmp	r3, #18
 800105e:	d10b      	bne.n	8001078 <HAL_ADC_ConfigChannel+0x1d8>
  {
    /* Disable the TEMPSENSOR channel in case of using board with multiplixed ADC_CHANNEL_VBAT & ADC_CHANNEL_TEMPSENSOR*/
    if ((uint16_t)ADC_CHANNEL_TEMPSENSOR == (uint16_t)ADC_CHANNEL_VBAT)
    {
      tmpADC_Common->CCR &= ~ADC_CCR_TSVREFE;
 8001060:	68fb      	ldr	r3, [r7, #12]
 8001062:	685b      	ldr	r3, [r3, #4]
 8001064:	f423 0200 	bic.w	r2, r3, #8388608	@ 0x800000
 8001068:	68fb      	ldr	r3, [r7, #12]
 800106a:	605a      	str	r2, [r3, #4]
    }
    /* Enable the VBAT channel*/
    tmpADC_Common->CCR |= ADC_CCR_VBATE;
 800106c:	68fb      	ldr	r3, [r7, #12]
 800106e:	685b      	ldr	r3, [r3, #4]
 8001070:	f443 0280 	orr.w	r2, r3, #4194304	@ 0x400000
 8001074:	68fb      	ldr	r3, [r7, #12]
 8001076:	605a      	str	r2, [r3, #4]
  }

  /* if ADC1 Channel_16 or Channel_18 is selected for Temperature sensor or
     Channel_17 is selected for VREFINT enable TSVREFE */
  if ((hadc->Instance == ADC1) && ((sConfig->Channel == ADC_CHANNEL_TEMPSENSOR) || (sConfig->Channel == ADC_CHANNEL_VREFINT)))
 8001078:	687b      	ldr	r3, [r7, #4]
 800107a:	681b      	ldr	r3, [r3, #0]
 800107c:	4a1d      	ldr	r2, [pc, #116]	@ (80010f4 <HAL_ADC_ConfigChannel+0x254>)
 800107e:	4293      	cmp	r3, r2
 8001080:	d12b      	bne.n	80010da <HAL_ADC_ConfigChannel+0x23a>
 8001082:	683b      	ldr	r3, [r7, #0]
 8001084:	681b      	ldr	r3, [r3, #0]
 8001086:	4a1c      	ldr	r2, [pc, #112]	@ (80010f8 <HAL_ADC_ConfigChannel+0x258>)
 8001088:	4293      	cmp	r3, r2
 800108a:	d003      	beq.n	8001094 <HAL_ADC_ConfigChannel+0x1f4>
 800108c:	683b      	ldr	r3, [r7, #0]
 800108e:	681b      	ldr	r3, [r3, #0]
 8001090:	2b11      	cmp	r3, #17
 8001092:	d122      	bne.n	80010da <HAL_ADC_ConfigChannel+0x23a>
  {
    /* Disable the VBAT channel in case of using board with multiplixed ADC_CHANNEL_VBAT & ADC_CHANNEL_TEMPSENSOR*/
    if ((uint16_t)ADC_CHANNEL_TEMPSENSOR == (uint16_t)ADC_CHANNEL_VBAT)
    {
      tmpADC_Common->CCR &= ~ADC_CCR_VBATE;
 8001094:	68fb      	ldr	r3, [r7, #12]
 8001096:	685b      	ldr	r3, [r3, #4]
 8001098:	f423 0280 	bic.w	r2, r3, #4194304	@ 0x400000
 800109c:	68fb      	ldr	r3, [r7, #12]
 800109e:	605a      	str	r2, [r3, #4]
    }
    /* Enable the Temperature sensor and VREFINT channel*/
    tmpADC_Common->CCR |= ADC_CCR_TSVREFE;
 80010a0:	68fb      	ldr	r3, [r7, #12]
 80010a2:	685b      	ldr	r3, [r3, #4]
 80010a4:	f443 0200 	orr.w	r2, r3, #8388608	@ 0x800000
 80010a8:	68fb      	ldr	r3, [r7, #12]
 80010aa:	605a      	str	r2, [r3, #4]

    if (sConfig->Channel == ADC_CHANNEL_TEMPSENSOR)
 80010ac:	683b      	ldr	r3, [r7, #0]
 80010ae:	681b      	ldr	r3, [r3, #0]
 80010b0:	4a11      	ldr	r2, [pc, #68]	@ (80010f8 <HAL_ADC_ConfigChannel+0x258>)
 80010b2:	4293      	cmp	r3, r2
 80010b4:	d111      	bne.n	80010da <HAL_ADC_ConfigChannel+0x23a>
    {
      /* Delay for temperature sensor stabilization time */
      /* Compute number of CPU cycles to wait for */
      counter = (ADC_TEMPSENSOR_DELAY_US * (SystemCoreClock / 1000000U));
 80010b6:	4b11      	ldr	r3, [pc, #68]	@ (80010fc <HAL_ADC_ConfigChannel+0x25c>)
 80010b8:	681b      	ldr	r3, [r3, #0]
 80010ba:	4a11      	ldr	r2, [pc, #68]	@ (8001100 <HAL_ADC_ConfigChannel+0x260>)
 80010bc:	fba2 2303 	umull	r2, r3, r2, r3
 80010c0:	0c9a      	lsrs	r2, r3, #18
 80010c2:	4613      	mov	r3, r2
 80010c4:	009b      	lsls	r3, r3, #2
 80010c6:	4413      	add	r3, r2
 80010c8:	005b      	lsls	r3, r3, #1
 80010ca:	60bb      	str	r3, [r7, #8]
      while (counter != 0U)
 80010cc:	e002      	b.n	80010d4 <HAL_ADC_ConfigChannel+0x234>
      {
        counter--;
 80010ce:	68bb      	ldr	r3, [r7, #8]
 80010d0:	3b01      	subs	r3, #1
 80010d2:	60bb      	str	r3, [r7, #8]
      while (counter != 0U)
 80010d4:	68bb      	ldr	r3, [r7, #8]
 80010d6:	2b00      	cmp	r3, #0
 80010d8:	d1f9      	bne.n	80010ce <HAL_ADC_ConfigChannel+0x22e>
      }
    }
  }

  /* Process unlocked */
  __HAL_UNLOCK(hadc);
 80010da:	687b      	ldr	r3, [r7, #4]
 80010dc:	2200      	movs	r2, #0
 80010de:	f883 203c 	strb.w	r2, [r3, #60]	@ 0x3c

  /* Return function status */
  return HAL_OK;
 80010e2:	2300      	movs	r3, #0
}
 80010e4:	4618      	mov	r0, r3
 80010e6:	3714      	adds	r7, #20
 80010e8:	46bd      	mov	sp, r7
 80010ea:	f85d 7b04 	ldr.w	r7, [sp], #4
 80010ee:	4770      	bx	lr
 80010f0:	40012300 	.word	0x40012300
 80010f4:	40012000 	.word	0x40012000
 80010f8:	10000012 	.word	0x10000012
 80010fc:	20000000 	.word	0x20000000
 8001100:	431bde83 	.word	0x431bde83

08001104 <ADC_Init>:
  * @param  hadc pointer to a ADC_HandleTypeDef structure that contains
  *         the configuration information for the specified ADC.
  * @retval None
  */
static void ADC_Init(ADC_HandleTypeDef *hadc)
{
 8001104:	b480      	push	{r7}
 8001106:	b085      	sub	sp, #20
 8001108:	af00      	add	r7, sp, #0
 800110a:	6078      	str	r0, [r7, #4]

  /* Set ADC parameters */
  /* Pointer to the common control register to which is belonging hadc    */
  /* (Depending on STM32F4 product, there may be up to 3 ADCs and 1 common */
  /* control register)                                                    */
  tmpADC_Common = ADC_COMMON_REGISTER(hadc);
 800110c:	4b79      	ldr	r3, [pc, #484]	@ (80012f4 <ADC_Init+0x1f0>)
 800110e:	60fb      	str	r3, [r7, #12]

  /* Set the ADC clock prescaler */
  tmpADC_Common->CCR &= ~(ADC_CCR_ADCPRE);
 8001110:	68fb      	ldr	r3, [r7, #12]
 8001112:	685b      	ldr	r3, [r3, #4]
 8001114:	f423 3240 	bic.w	r2, r3, #196608	@ 0x30000
 8001118:	68fb      	ldr	r3, [r7, #12]
 800111a:	605a      	str	r2, [r3, #4]
  tmpADC_Common->CCR |=  hadc->Init.ClockPrescaler;
 800111c:	68fb      	ldr	r3, [r7, #12]
 800111e:	685a      	ldr	r2, [r3, #4]
 8001120:	687b      	ldr	r3, [r7, #4]
 8001122:	685b      	ldr	r3, [r3, #4]
 8001124:	431a      	orrs	r2, r3
 8001126:	68fb      	ldr	r3, [r7, #12]
 8001128:	605a      	str	r2, [r3, #4]

  /* Set ADC scan mode */
  hadc->Instance->CR1 &= ~(ADC_CR1_SCAN);
 800112a:	687b      	ldr	r3, [r7, #4]
 800112c:	681b      	ldr	r3, [r3, #0]
 800112e:	685a      	ldr	r2, [r3, #4]
 8001130:	687b      	ldr	r3, [r7, #4]
 8001132:	681b      	ldr	r3, [r3, #0]
 8001134:	f422 7280 	bic.w	r2, r2, #256	@ 0x100
 8001138:	605a      	str	r2, [r3, #4]
  hadc->Instance->CR1 |=  ADC_CR1_SCANCONV(hadc->Init.ScanConvMode);
 800113a:	687b      	ldr	r3, [r7, #4]
 800113c:	681b      	ldr	r3, [r3, #0]
 800113e:	6859      	ldr	r1, [r3, #4]
 8001140:	687b      	ldr	r3, [r7, #4]
 8001142:	691b      	ldr	r3, [r3, #16]
 8001144:	021a      	lsls	r2, r3, #8
 8001146:	687b      	ldr	r3, [r7, #4]
 8001148:	681b      	ldr	r3, [r3, #0]
 800114a:	430a      	orrs	r2, r1
 800114c:	605a      	str	r2, [r3, #4]

  /* Set ADC resolution */
  hadc->Instance->CR1 &= ~(ADC_CR1_RES);
 800114e:	687b      	ldr	r3, [r7, #4]
 8001150:	681b      	ldr	r3, [r3, #0]
 8001152:	685a      	ldr	r2, [r3, #4]
 8001154:	687b      	ldr	r3, [r7, #4]
 8001156:	681b      	ldr	r3, [r3, #0]
 8001158:	f022 7240 	bic.w	r2, r2, #50331648	@ 0x3000000
 800115c:	605a      	str	r2, [r3, #4]
  hadc->Instance->CR1 |=  hadc->Init.Resolution;
 800115e:	687b      	ldr	r3, [r7, #4]
 8001160:	681b      	ldr	r3, [r3, #0]
 8001162:	6859      	ldr	r1, [r3, #4]
 8001164:	687b      	ldr	r3, [r7, #4]
 8001166:	689a      	ldr	r2, [r3, #8]
 8001168:	687b      	ldr	r3, [r7, #4]
 800116a:	681b      	ldr	r3, [r3, #0]
 800116c:	430a      	orrs	r2, r1
 800116e:	605a      	str	r2, [r3, #4]

  /* Set ADC data alignment */
  hadc->Instance->CR2 &= ~(ADC_CR2_ALIGN);
 8001170:	687b      	ldr	r3, [r7, #4]
 8001172:	681b      	ldr	r3, [r3, #0]
 8001174:	689a      	ldr	r2, [r3, #8]
 8001176:	687b      	ldr	r3, [r7, #4]
 8001178:	681b      	ldr	r3, [r3, #0]
 800117a:	f422 6200 	bic.w	r2, r2, #2048	@ 0x800
 800117e:	609a      	str	r2, [r3, #8]
  hadc->Instance->CR2 |= hadc->Init.DataAlign;
 8001180:	687b      	ldr	r3, [r7, #4]
 8001182:	681b      	ldr	r3, [r3, #0]
 8001184:	6899      	ldr	r1, [r3, #8]
 8001186:	687b      	ldr	r3, [r7, #4]
 8001188:	68da      	ldr	r2, [r3, #12]
 800118a:	687b      	ldr	r3, [r7, #4]
 800118c:	681b      	ldr	r3, [r3, #0]
 800118e:	430a      	orrs	r2, r1
 8001190:	609a      	str	r2, [r3, #8]
  /* Enable external trigger if trigger selection is different of software  */
  /* start.                                                                 */
  /* Note: This configuration keeps the hardware feature of parameter       */
  /*       ExternalTrigConvEdge "trigger edge none" equivalent to           */
  /*       software start.                                                  */
  if (hadc->Init.ExternalTrigConv != ADC_SOFTWARE_START)
 8001192:	687b      	ldr	r3, [r7, #4]
 8001194:	6a9b      	ldr	r3, [r3, #40]	@ 0x28
 8001196:	4a58      	ldr	r2, [pc, #352]	@ (80012f8 <ADC_Init+0x1f4>)
 8001198:	4293      	cmp	r3, r2
 800119a:	d022      	beq.n	80011e2 <ADC_Init+0xde>
  {
    /* Select external trigger to start conversion */
    hadc->Instance->CR2 &= ~(ADC_CR2_EXTSEL);
 800119c:	687b      	ldr	r3, [r7, #4]
 800119e:	681b      	ldr	r3, [r3, #0]
 80011a0:	689a      	ldr	r2, [r3, #8]
 80011a2:	687b      	ldr	r3, [r7, #4]
 80011a4:	681b      	ldr	r3, [r3, #0]
 80011a6:	f022 6270 	bic.w	r2, r2, #251658240	@ 0xf000000
 80011aa:	609a      	str	r2, [r3, #8]
    hadc->Instance->CR2 |= hadc->Init.ExternalTrigConv;
 80011ac:	687b      	ldr	r3, [r7, #4]
 80011ae:	681b      	ldr	r3, [r3, #0]
 80011b0:	6899      	ldr	r1, [r3, #8]
 80011b2:	687b      	ldr	r3, [r7, #4]
 80011b4:	6a9a      	ldr	r2, [r3, #40]	@ 0x28
 80011b6:	687b      	ldr	r3, [r7, #4]
 80011b8:	681b      	ldr	r3, [r3, #0]
 80011ba:	430a      	orrs	r2, r1
 80011bc:	609a      	str	r2, [r3, #8]

    /* Select external trigger polarity */
    hadc->Instance->CR2 &= ~(ADC_CR2_EXTEN);
 80011be:	687b      	ldr	r3, [r7, #4]
 80011c0:	681b      	ldr	r3, [r3, #0]
 80011c2:	689a      	ldr	r2, [r3, #8]
 80011c4:	687b      	ldr	r3, [r7, #4]
 80011c6:	681b      	ldr	r3, [r3, #0]
 80011c8:	f022 5240 	bic.w	r2, r2, #805306368	@ 0x30000000
 80011cc:	609a      	str	r2, [r3, #8]
    hadc->Instance->CR2 |= hadc->Init.ExternalTrigConvEdge;
 80011ce:	687b      	ldr	r3, [r7, #4]
 80011d0:	681b      	ldr	r3, [r3, #0]
 80011d2:	6899      	ldr	r1, [r3, #8]
 80011d4:	687b      	ldr	r3, [r7, #4]
 80011d6:	6ada      	ldr	r2, [r3, #44]	@ 0x2c
 80011d8:	687b      	ldr	r3, [r7, #4]
 80011da:	681b      	ldr	r3, [r3, #0]
 80011dc:	430a      	orrs	r2, r1
 80011de:	609a      	str	r2, [r3, #8]
 80011e0:	e00f      	b.n	8001202 <ADC_Init+0xfe>
  }
  else
  {
    /* Reset the external trigger */
    hadc->Instance->CR2 &= ~(ADC_CR2_EXTSEL);
 80011e2:	687b      	ldr	r3, [r7, #4]
 80011e4:	681b      	ldr	r3, [r3, #0]
 80011e6:	689a      	ldr	r2, [r3, #8]
 80011e8:	687b      	ldr	r3, [r7, #4]
 80011ea:	681b      	ldr	r3, [r3, #0]
 80011ec:	f022 6270 	bic.w	r2, r2, #251658240	@ 0xf000000
 80011f0:	609a      	str	r2, [r3, #8]
    hadc->Instance->CR2 &= ~(ADC_CR2_EXTEN);
 80011f2:	687b      	ldr	r3, [r7, #4]
 80011f4:	681b      	ldr	r3, [r3, #0]
 80011f6:	689a      	ldr	r2, [r3, #8]
 80011f8:	687b      	ldr	r3, [r7, #4]
 80011fa:	681b      	ldr	r3, [r3, #0]
 80011fc:	f022 5240 	bic.w	r2, r2, #805306368	@ 0x30000000
 8001200:	609a      	str	r2, [r3, #8]
  }

  /* Enable or disable ADC continuous conversion mode */
  hadc->Instance->CR2 &= ~(ADC_CR2_CONT);
 8001202:	687b      	ldr	r3, [r7, #4]
 8001204:	681b      	ldr	r3, [r3, #0]
 8001206:	689a      	ldr	r2, [r3, #8]
 8001208:	687b      	ldr	r3, [r7, #4]
 800120a:	681b      	ldr	r3, [r3, #0]
 800120c:	f022 0202 	bic.w	r2, r2, #2
 8001210:	609a      	str	r2, [r3, #8]
  hadc->Instance->CR2 |= ADC_CR2_CONTINUOUS((uint32_t)hadc->Init.ContinuousConvMode);
 8001212:	687b      	ldr	r3, [r7, #4]
 8001214:	681b      	ldr	r3, [r3, #0]
 8001216:	6899      	ldr	r1, [r3, #8]
 8001218:	687b      	ldr	r3, [r7, #4]
 800121a:	7e1b      	ldrb	r3, [r3, #24]
 800121c:	005a      	lsls	r2, r3, #1
 800121e:	687b      	ldr	r3, [r7, #4]
 8001220:	681b      	ldr	r3, [r3, #0]
 8001222:	430a      	orrs	r2, r1
 8001224:	609a      	str	r2, [r3, #8]

  if (hadc->Init.DiscontinuousConvMode != DISABLE)
 8001226:	687b      	ldr	r3, [r7, #4]
 8001228:	f893 3020 	ldrb.w	r3, [r3, #32]
 800122c:	2b00      	cmp	r3, #0
 800122e:	d01b      	beq.n	8001268 <ADC_Init+0x164>
  {
    assert_param(IS_ADC_REGULAR_DISC_NUMBER(hadc->Init.NbrOfDiscConversion));

    /* Enable the selected ADC regular discontinuous mode */
    hadc->Instance->CR1 |= (uint32_t)ADC_CR1_DISCEN;
 8001230:	687b      	ldr	r3, [r7, #4]
 8001232:	681b      	ldr	r3, [r3, #0]
 8001234:	685a      	ldr	r2, [r3, #4]
 8001236:	687b      	ldr	r3, [r7, #4]
 8001238:	681b      	ldr	r3, [r3, #0]
 800123a:	f442 6200 	orr.w	r2, r2, #2048	@ 0x800
 800123e:	605a      	str	r2, [r3, #4]

    /* Set the number of channels to be converted in discontinuous mode */
    hadc->Instance->CR1 &= ~(ADC_CR1_DISCNUM);
 8001240:	687b      	ldr	r3, [r7, #4]
 8001242:	681b      	ldr	r3, [r3, #0]
 8001244:	685a      	ldr	r2, [r3, #4]
 8001246:	687b      	ldr	r3, [r7, #4]
 8001248:	681b      	ldr	r3, [r3, #0]
 800124a:	f422 4260 	bic.w	r2, r2, #57344	@ 0xe000
 800124e:	605a      	str	r2, [r3, #4]
    hadc->Instance->CR1 |=  ADC_CR1_DISCONTINUOUS(hadc->Init.NbrOfDiscConversion);
 8001250:	687b      	ldr	r3, [r7, #4]
 8001252:	681b      	ldr	r3, [r3, #0]
 8001254:	6859      	ldr	r1, [r3, #4]
 8001256:	687b      	ldr	r3, [r7, #4]
 8001258:	6a5b      	ldr	r3, [r3, #36]	@ 0x24
 800125a:	3b01      	subs	r3, #1
 800125c:	035a      	lsls	r2, r3, #13
 800125e:	687b      	ldr	r3, [r7, #4]
 8001260:	681b      	ldr	r3, [r3, #0]
 8001262:	430a      	orrs	r2, r1
 8001264:	605a      	str	r2, [r3, #4]
 8001266:	e007      	b.n	8001278 <ADC_Init+0x174>
  }
  else
  {
    /* Disable the selected ADC regular discontinuous mode */
    hadc->Instance->CR1 &= ~(ADC_CR1_DISCEN);
 8001268:	687b      	ldr	r3, [r7, #4]
 800126a:	681b      	ldr	r3, [r3, #0]
 800126c:	685a      	ldr	r2, [r3, #4]
 800126e:	687b      	ldr	r3, [r7, #4]
 8001270:	681b      	ldr	r3, [r3, #0]
 8001272:	f422 6200 	bic.w	r2, r2, #2048	@ 0x800
 8001276:	605a      	str	r2, [r3, #4]
  }

  /* Set ADC number of conversion */
  hadc->Instance->SQR1 &= ~(ADC_SQR1_L);
 8001278:	687b      	ldr	r3, [r7, #4]
 800127a:	681b      	ldr	r3, [r3, #0]
 800127c:	6ada      	ldr	r2, [r3, #44]	@ 0x2c
 800127e:	687b      	ldr	r3, [r7, #4]
 8001280:	681b      	ldr	r3, [r3, #0]
 8001282:	f422 0270 	bic.w	r2, r2, #15728640	@ 0xf00000
 8001286:	62da      	str	r2, [r3, #44]	@ 0x2c
  hadc->Instance->SQR1 |=  ADC_SQR1(hadc->Init.NbrOfConversion);
 8001288:	687b      	ldr	r3, [r7, #4]
 800128a:	681b      	ldr	r3, [r3, #0]
 800128c:	6ad9      	ldr	r1, [r3, #44]	@ 0x2c
 800128e:	687b      	ldr	r3, [r7, #4]
 8001290:	69db      	ldr	r3, [r3, #28]
 8001292:	3b01      	subs	r3, #1
 8001294:	051a      	lsls	r2, r3, #20
 8001296:	687b      	ldr	r3, [r7, #4]
 8001298:	681b      	ldr	r3, [r3, #0]
 800129a:	430a      	orrs	r2, r1
 800129c:	62da      	str	r2, [r3, #44]	@ 0x2c

  /* Enable or disable ADC DMA continuous request */
  hadc->Instance->CR2 &= ~(ADC_CR2_DDS);
 800129e:	687b      	ldr	r3, [r7, #4]
 80012a0:	681b      	ldr	r3, [r3, #0]
 80012a2:	689a      	ldr	r2, [r3, #8]
 80012a4:	687b      	ldr	r3, [r7, #4]
 80012a6:	681b      	ldr	r3, [r3, #0]
 80012a8:	f422 7200 	bic.w	r2, r2, #512	@ 0x200
 80012ac:	609a      	str	r2, [r3, #8]
  hadc->Instance->CR2 |= ADC_CR2_DMAContReq((uint32_t)hadc->Init.DMAContinuousRequests);
 80012ae:	687b      	ldr	r3, [r7, #4]
 80012b0:	681b      	ldr	r3, [r3, #0]
 80012b2:	6899      	ldr	r1, [r3, #8]
 80012b4:	687b      	ldr	r3, [r7, #4]
 80012b6:	f893 3030 	ldrb.w	r3, [r3, #48]	@ 0x30
 80012ba:	025a      	lsls	r2, r3, #9
 80012bc:	687b      	ldr	r3, [r7, #4]
 80012be:	681b      	ldr	r3, [r3, #0]
 80012c0:	430a      	orrs	r2, r1
 80012c2:	609a      	str	r2, [r3, #8]

  /* Enable or disable ADC end of conversion selection */
  hadc->Instance->CR2 &= ~(ADC_CR2_EOCS);
 80012c4:	687b      	ldr	r3, [r7, #4]
 80012c6:	681b      	ldr	r3, [r3, #0]
 80012c8:	689a      	ldr	r2, [r3, #8]
 80012ca:	687b      	ldr	r3, [r7, #4]
 80012cc:	681b      	ldr	r3, [r3, #0]
 80012ce:	f422 6280 	bic.w	r2, r2, #1024	@ 0x400
 80012d2:	609a      	str	r2, [r3, #8]
  hadc->Instance->CR2 |= ADC_CR2_EOCSelection(hadc->Init.EOCSelection);
 80012d4:	687b      	ldr	r3, [r7, #4]
 80012d6:	681b      	ldr	r3, [r3, #0]
 80012d8:	6899      	ldr	r1, [r3, #8]
 80012da:	687b      	ldr	r3, [r7, #4]
 80012dc:	695b      	ldr	r3, [r3, #20]
 80012de:	029a      	lsls	r2, r3, #10
 80012e0:	687b      	ldr	r3, [r7, #4]
 80012e2:	681b      	ldr	r3, [r3, #0]
 80012e4:	430a      	orrs	r2, r1
 80012e6:	609a      	str	r2, [r3, #8]
}
 80012e8:	bf00      	nop
 80012ea:	3714      	adds	r7, #20
 80012ec:	46bd      	mov	sp, r7
 80012ee:	f85d 7b04 	ldr.w	r7, [sp], #4
 80012f2:	4770      	bx	lr
 80012f4:	40012300 	.word	0x40012300
 80012f8:	0f000001 	.word	0x0f000001

080012fc <__NVIC_SetPriorityGrouping>:
           In case of a conflict between priority grouping and available
           priority bits (__NVIC_PRIO_BITS), the smallest possible priority group is set.
  \param [in]      PriorityGroup  Priority grouping field.
 */
__STATIC_INLINE void __NVIC_SetPriorityGrouping(uint32_t PriorityGroup)
{
 80012fc:	b480      	push	{r7}
 80012fe:	b085      	sub	sp, #20
 8001300:	af00      	add	r7, sp, #0
 8001302:	6078      	str	r0, [r7, #4]
  uint32_t reg_value;
  uint32_t PriorityGroupTmp = (PriorityGroup & (uint32_t)0x07UL);             /* only values 0..7 are used          */
 8001304:	687b      	ldr	r3, [r7, #4]
 8001306:	f003 0307 	and.w	r3, r3, #7
 800130a:	60fb      	str	r3, [r7, #12]

  reg_value  =  SCB->AIRCR;                                                   /* read old register configuration    */
 800130c:	4b0c      	ldr	r3, [pc, #48]	@ (8001340 <__NVIC_SetPriorityGrouping+0x44>)
 800130e:	68db      	ldr	r3, [r3, #12]
 8001310:	60bb      	str	r3, [r7, #8]
  reg_value &= ~((uint32_t)(SCB_AIRCR_VECTKEY_Msk | SCB_AIRCR_PRIGROUP_Msk)); /* clear bits to change               */
 8001312:	68ba      	ldr	r2, [r7, #8]
 8001314:	f64f 03ff 	movw	r3, #63743	@ 0xf8ff
 8001318:	4013      	ands	r3, r2
 800131a:	60bb      	str	r3, [r7, #8]
  reg_value  =  (reg_value                                   |
                ((uint32_t)0x5FAUL << SCB_AIRCR_VECTKEY_Pos) |
                (PriorityGroupTmp << SCB_AIRCR_PRIGROUP_Pos)  );              /* Insert write key and priority group */
 800131c:	68fb      	ldr	r3, [r7, #12]
 800131e:	021a      	lsls	r2, r3, #8
                ((uint32_t)0x5FAUL << SCB_AIRCR_VECTKEY_Pos) |
 8001320:	68bb      	ldr	r3, [r7, #8]
 8001322:	4313      	orrs	r3, r2
  reg_value  =  (reg_value                                   |
 8001324:	f043 63bf 	orr.w	r3, r3, #100139008	@ 0x5f80000
 8001328:	f443 3300 	orr.w	r3, r3, #131072	@ 0x20000
 800132c:	60bb      	str	r3, [r7, #8]
  SCB->AIRCR =  reg_value;
 800132e:	4a04      	ldr	r2, [pc, #16]	@ (8001340 <__NVIC_SetPriorityGrouping+0x44>)
 8001330:	68bb      	ldr	r3, [r7, #8]
 8001332:	60d3      	str	r3, [r2, #12]
}
 8001334:	bf00      	nop
 8001336:	3714      	adds	r7, #20
 8001338:	46bd      	mov	sp, r7
 800133a:	f85d 7b04 	ldr.w	r7, [sp], #4
 800133e:	4770      	bx	lr
 8001340:	e000ed00 	.word	0xe000ed00

08001344 <__NVIC_GetPriorityGrouping>:
  \brief   Get Priority Grouping
  \details Reads the priority grouping field from the NVIC Interrupt Controller.
  \return                Priority grouping field (SCB->AIRCR [10:8] PRIGROUP field).
 */
__STATIC_INLINE uint32_t __NVIC_GetPriorityGrouping(void)
{
 8001344:	b480      	push	{r7}
 8001346:	af00      	add	r7, sp, #0
  return ((uint32_t)((SCB->AIRCR & SCB_AIRCR_PRIGROUP_Msk) >> SCB_AIRCR_PRIGROUP_Pos));
 8001348:	4b04      	ldr	r3, [pc, #16]	@ (800135c <__NVIC_GetPriorityGrouping+0x18>)
 800134a:	68db      	ldr	r3, [r3, #12]
 800134c:	0a1b      	lsrs	r3, r3, #8
 800134e:	f003 0307 	and.w	r3, r3, #7
}
 8001352:	4618      	mov	r0, r3
 8001354:	46bd      	mov	sp, r7
 8001356:	f85d 7b04 	ldr.w	r7, [sp], #4
 800135a:	4770      	bx	lr
 800135c:	e000ed00 	.word	0xe000ed00

08001360 <__NVIC_EnableIRQ>:
  \details Enables a device specific interrupt in the NVIC interrupt controller.
  \param [in]      IRQn  Device specific interrupt number.
  \note    IRQn must not be negative.
 */
__STATIC_INLINE void __NVIC_EnableIRQ(IRQn_Type IRQn)
{
 8001360:	b480      	push	{r7}
 8001362:	b083      	sub	sp, #12
 8001364:	af00      	add	r7, sp, #0
 8001366:	4603      	mov	r3, r0
 8001368:	71fb      	strb	r3, [r7, #7]
  if ((int32_t)(IRQn) >= 0)
 800136a:	f997 3007 	ldrsb.w	r3, [r7, #7]
 800136e:	2b00      	cmp	r3, #0
 8001370:	db0b      	blt.n	800138a <__NVIC_EnableIRQ+0x2a>
  {
    __COMPILER_BARRIER();
    NVIC->ISER[(((uint32_t)IRQn) >> 5UL)] = (uint32_t)(1UL << (((uint32_t)IRQn) & 0x1FUL));
 8001372:	79fb      	ldrb	r3, [r7, #7]
 8001374:	f003 021f 	and.w	r2, r3, #31
 8001378:	4907      	ldr	r1, [pc, #28]	@ (8001398 <__NVIC_EnableIRQ+0x38>)
 800137a:	f997 3007 	ldrsb.w	r3, [r7, #7]
 800137e:	095b      	lsrs	r3, r3, #5
 8001380:	2001      	movs	r0, #1
 8001382:	fa00 f202 	lsl.w	r2, r0, r2
 8001386:	f841 2023 	str.w	r2, [r1, r3, lsl #2]
    __COMPILER_BARRIER();
  }
}
 800138a:	bf00      	nop
 800138c:	370c      	adds	r7, #12
 800138e:	46bd      	mov	sp, r7
 8001390:	f85d 7b04 	ldr.w	r7, [sp], #4
 8001394:	4770      	bx	lr
 8001396:	bf00      	nop
 8001398:	e000e100 	.word	0xe000e100

0800139c <__NVIC_SetPriority>:
  \param [in]      IRQn  Interrupt number.
  \param [in]  priority  Priority to set.
  \note    The priority cannot be set for every processor exception.
 */
__STATIC_INLINE void __NVIC_SetPriority(IRQn_Type IRQn, uint32_t priority)
{
 800139c:	b480      	push	{r7}
 800139e:	b083      	sub	sp, #12
 80013a0:	af00      	add	r7, sp, #0
 80013a2:	4603      	mov	r3, r0
 80013a4:	6039      	str	r1, [r7, #0]
 80013a6:	71fb      	strb	r3, [r7, #7]
  if ((int32_t)(IRQn) >= 0)
 80013a8:	f997 3007 	ldrsb.w	r3, [r7, #7]
 80013ac:	2b00      	cmp	r3, #0
 80013ae:	db0a      	blt.n	80013c6 <__NVIC_SetPriority+0x2a>
  {
    NVIC->IP[((uint32_t)IRQn)]               = (uint8_t)((priority << (8U - __NVIC_PRIO_BITS)) & (uint32_t)0xFFUL);
 80013b0:	683b      	ldr	r3, [r7, #0]
 80013b2:	b2da      	uxtb	r2, r3
 80013b4:	490c      	ldr	r1, [pc, #48]	@ (80013e8 <__NVIC_SetPriority+0x4c>)
 80013b6:	f997 3007 	ldrsb.w	r3, [r7, #7]
 80013ba:	0112      	lsls	r2, r2, #4
 80013bc:	b2d2      	uxtb	r2, r2
 80013be:	440b      	add	r3, r1
 80013c0:	f883 2300 	strb.w	r2, [r3, #768]	@ 0x300
  }
  else
  {
    SCB->SHP[(((uint32_t)IRQn) & 0xFUL)-4UL] = (uint8_t)((priority << (8U - __NVIC_PRIO_BITS)) & (uint32_t)0xFFUL);
  }
}
 80013c4:	e00a      	b.n	80013dc <__NVIC_SetPriority+0x40>
    SCB->SHP[(((uint32_t)IRQn) & 0xFUL)-4UL] = (uint8_t)((priority << (8U - __NVIC_PRIO_BITS)) & (uint32_t)0xFFUL);
 80013c6:	683b      	ldr	r3, [r7, #0]
 80013c8:	b2da      	uxtb	r2, r3
 80013ca:	4908      	ldr	r1, [pc, #32]	@ (80013ec <__NVIC_SetPriority+0x50>)
 80013cc:	79fb      	ldrb	r3, [r7, #7]
 80013ce:	f003 030f 	and.w	r3, r3, #15
 80013d2:	3b04      	subs	r3, #4
 80013d4:	0112      	lsls	r2, r2, #4
 80013d6:	b2d2      	uxtb	r2, r2
 80013d8:	440b      	add	r3, r1
 80013da:	761a      	strb	r2, [r3, #24]
}
 80013dc:	bf00      	nop
 80013de:	370c      	adds	r7, #12
 80013e0:	46bd      	mov	sp, r7
 80013e2:	f85d 7b04 	ldr.w	r7, [sp], #4
 80013e6:	4770      	bx	lr
 80013e8:	e000e100 	.word	0xe000e100
 80013ec:	e000ed00 	.word	0xe000ed00

080013f0 <NVIC_EncodePriority>:
  \param [in]   PreemptPriority  Preemptive priority value (starting from 0).
  \param [in]       SubPriority  Subpriority value (starting from 0).
  \return                        Encoded priority. Value can be used in the function \ref NVIC_SetPriority().
 */
__STATIC_INLINE uint32_t NVIC_EncodePriority (uint32_t PriorityGroup, uint32_t PreemptPriority, uint32_t SubPriority)
{
 80013f0:	b480      	push	{r7}
 80013f2:	b089      	sub	sp, #36	@ 0x24
 80013f4:	af00      	add	r7, sp, #0
 80013f6:	60f8      	str	r0, [r7, #12]
 80013f8:	60b9      	str	r1, [r7, #8]
 80013fa:	607a      	str	r2, [r7, #4]
  uint32_t PriorityGroupTmp = (PriorityGroup & (uint32_t)0x07UL);   /* only values 0..7 are used          */
 80013fc:	68fb      	ldr	r3, [r7, #12]
 80013fe:	f003 0307 	and.w	r3, r3, #7
 8001402:	61fb      	str	r3, [r7, #28]
  uint32_t PreemptPriorityBits;
  uint32_t SubPriorityBits;

  PreemptPriorityBits = ((7UL - PriorityGroupTmp) > (uint32_t)(__NVIC_PRIO_BITS)) ? (uint32_t)(__NVIC_PRIO_BITS) : (uint32_t)(7UL - PriorityGroupTmp);
 8001404:	69fb      	ldr	r3, [r7, #28]
 8001406:	f1c3 0307 	rsb	r3, r3, #7
 800140a:	2b04      	cmp	r3, #4
 800140c:	bf28      	it	cs
 800140e:	2304      	movcs	r3, #4
 8001410:	61bb      	str	r3, [r7, #24]
  SubPriorityBits     = ((PriorityGroupTmp + (uint32_t)(__NVIC_PRIO_BITS)) < (uint32_t)7UL) ? (uint32_t)0UL : (uint32_t)((PriorityGroupTmp - 7UL) + (uint32_t)(__NVIC_PRIO_BITS));
 8001412:	69fb      	ldr	r3, [r7, #28]
 8001414:	3304      	adds	r3, #4
 8001416:	2b06      	cmp	r3, #6
 8001418:	d902      	bls.n	8001420 <NVIC_EncodePriority+0x30>
 800141a:	69fb      	ldr	r3, [r7, #28]
 800141c:	3b03      	subs	r3, #3
 800141e:	e000      	b.n	8001422 <NVIC_EncodePriority+0x32>
 8001420:	2300      	movs	r3, #0
 8001422:	617b      	str	r3, [r7, #20]

  return (
           ((PreemptPriority & (uint32_t)((1UL << (PreemptPriorityBits)) - 1UL)) << SubPriorityBits) |
 8001424:	f04f 32ff 	mov.w	r2, #4294967295
 8001428:	69bb      	ldr	r3, [r7, #24]
 800142a:	fa02 f303 	lsl.w	r3, r2, r3
 800142e:	43da      	mvns	r2, r3
 8001430:	68bb      	ldr	r3, [r7, #8]
 8001432:	401a      	ands	r2, r3
 8001434:	697b      	ldr	r3, [r7, #20]
 8001436:	409a      	lsls	r2, r3
           ((SubPriority     & (uint32_t)((1UL << (SubPriorityBits    )) - 1UL)))
 8001438:	f04f 31ff 	mov.w	r1, #4294967295
 800143c:	697b      	ldr	r3, [r7, #20]
 800143e:	fa01 f303 	lsl.w	r3, r1, r3
 8001442:	43d9      	mvns	r1, r3
 8001444:	687b      	ldr	r3, [r7, #4]
 8001446:	400b      	ands	r3, r1
           ((PreemptPriority & (uint32_t)((1UL << (PreemptPriorityBits)) - 1UL)) << SubPriorityBits) |
 8001448:	4313      	orrs	r3, r2
         );
}
 800144a:	4618      	mov	r0, r3
 800144c:	3724      	adds	r7, #36	@ 0x24
 800144e:	46bd      	mov	sp, r7
 8001450:	f85d 7b04 	ldr.w	r7, [sp], #4
 8001454:	4770      	bx	lr
	...

08001458 <SysTick_Config>:
  \note    When the variable <b>__Vendor_SysTickConfig</b> is set to 1, then the
           function <b>SysTick_Config</b> is not included. In this case, the file <b><i>device</i>.h</b>
           must contain a vendor-specific implementation of this function.
 */
__STATIC_INLINE uint32_t SysTick_Config(uint32_t ticks)
{
 8001458:	b580      	push	{r7, lr}
 800145a:	b082      	sub	sp, #8
 800145c:	af00      	add	r7, sp, #0
 800145e:	6078      	str	r0, [r7, #4]
  if ((ticks - 1UL) > SysTick_LOAD_RELOAD_Msk)
 8001460:	687b      	ldr	r3, [r7, #4]
 8001462:	3b01      	subs	r3, #1
 8001464:	f1b3 7f80 	cmp.w	r3, #16777216	@ 0x1000000
 8001468:	d301      	bcc.n	800146e <SysTick_Config+0x16>
  {
    return (1UL);                                                   /* Reload value impossible */
 800146a:	2301      	movs	r3, #1
 800146c:	e00f      	b.n	800148e <SysTick_Config+0x36>
  }

  SysTick->LOAD  = (uint32_t)(ticks - 1UL);                         /* set reload register */
 800146e:	4a0a      	ldr	r2, [pc, #40]	@ (8001498 <SysTick_Config+0x40>)
 8001470:	687b      	ldr	r3, [r7, #4]
 8001472:	3b01      	subs	r3, #1
 8001474:	6053      	str	r3, [r2, #4]
  NVIC_SetPriority (SysTick_IRQn, (1UL << __NVIC_PRIO_BITS) - 1UL); /* set Priority for Systick Interrupt */
 8001476:	210f      	movs	r1, #15
 8001478:	f04f 30ff 	mov.w	r0, #4294967295
 800147c:	f7ff ff8e 	bl	800139c <__NVIC_SetPriority>
  SysTick->VAL   = 0UL;                                             /* Load the SysTick Counter Value */
 8001480:	4b05      	ldr	r3, [pc, #20]	@ (8001498 <SysTick_Config+0x40>)
 8001482:	2200      	movs	r2, #0
 8001484:	609a      	str	r2, [r3, #8]
  SysTick->CTRL  = SysTick_CTRL_CLKSOURCE_Msk |
 8001486:	4b04      	ldr	r3, [pc, #16]	@ (8001498 <SysTick_Config+0x40>)
 8001488:	2207      	movs	r2, #7
 800148a:	601a      	str	r2, [r3, #0]
                   SysTick_CTRL_TICKINT_Msk   |
                   SysTick_CTRL_ENABLE_Msk;                         /* Enable SysTick IRQ and SysTick Timer */
  return (0UL);                                                     /* Function successful */
 800148c:	2300      	movs	r3, #0
}
 800148e:	4618      	mov	r0, r3
 8001490:	3708      	adds	r7, #8
 8001492:	46bd      	mov	sp, r7
 8001494:	bd80      	pop	{r7, pc}
 8001496:	bf00      	nop
 8001498:	e000e010 	.word	0xe000e010

0800149c <HAL_NVIC_SetPriorityGrouping>:
  * @note   When the NVIC_PriorityGroup_0 is selected, IRQ preemption is no more possible. 
  *         The pending IRQ priority will be managed only by the subpriority. 
  * @retval None
  */
void HAL_NVIC_SetPriorityGrouping(uint32_t PriorityGroup)
{
 800149c:	b580      	push	{r7, lr}
 800149e:	b082      	sub	sp, #8
 80014a0:	af00      	add	r7, sp, #0
 80014a2:	6078      	str	r0, [r7, #4]
  /* Check the parameters */
  assert_param(IS_NVIC_PRIORITY_GROUP(PriorityGroup));
  
  /* Set the PRIGROUP[10:8] bits according to the PriorityGroup parameter value */
  NVIC_SetPriorityGrouping(PriorityGroup);
 80014a4:	6878      	ldr	r0, [r7, #4]
 80014a6:	f7ff ff29 	bl	80012fc <__NVIC_SetPriorityGrouping>
}
 80014aa:	bf00      	nop
 80014ac:	3708      	adds	r7, #8
 80014ae:	46bd      	mov	sp, r7
 80014b0:	bd80      	pop	{r7, pc}

080014b2 <HAL_NVIC_SetPriority>:
  *         This parameter can be a value between 0 and 15
  *         A lower priority value indicates a higher priority.          
  * @retval None
  */
void HAL_NVIC_SetPriority(IRQn_Type IRQn, uint32_t PreemptPriority, uint32_t SubPriority)
{ 
 80014b2:	b580      	push	{r7, lr}
 80014b4:	b086      	sub	sp, #24
 80014b6:	af00      	add	r7, sp, #0
 80014b8:	4603      	mov	r3, r0
 80014ba:	60b9      	str	r1, [r7, #8]
 80014bc:	607a      	str	r2, [r7, #4]
 80014be:	73fb      	strb	r3, [r7, #15]
  uint32_t prioritygroup = 0x00U;
 80014c0:	2300      	movs	r3, #0
 80014c2:	617b      	str	r3, [r7, #20]
  
  /* Check the parameters */
  assert_param(IS_NVIC_SUB_PRIORITY(SubPriority));
  assert_param(IS_NVIC_PREEMPTION_PRIORITY(PreemptPriority));
  
  prioritygroup = NVIC_GetPriorityGrouping();
 80014c4:	f7ff ff3e 	bl	8001344 <__NVIC_GetPriorityGrouping>
 80014c8:	6178      	str	r0, [r7, #20]
  
  NVIC_SetPriority(IRQn, NVIC_EncodePriority(prioritygroup, PreemptPriority, SubPriority));
 80014ca:	687a      	ldr	r2, [r7, #4]
 80014cc:	68b9      	ldr	r1, [r7, #8]
 80014ce:	6978      	ldr	r0, [r7, #20]
 80014d0:	f7ff ff8e 	bl	80013f0 <NVIC_EncodePriority>
 80014d4:	4602      	mov	r2, r0
 80014d6:	f997 300f 	ldrsb.w	r3, [r7, #15]
 80014da:	4611      	mov	r1, r2
 80014dc:	4618      	mov	r0, r3
 80014de:	f7ff ff5d 	bl	800139c <__NVIC_SetPriority>
}
 80014e2:	bf00      	nop
 80014e4:	3718      	adds	r7, #24
 80014e6:	46bd      	mov	sp, r7
 80014e8:	bd80      	pop	{r7, pc}

080014ea <HAL_NVIC_EnableIRQ>:
  *         This parameter can be an enumerator of IRQn_Type enumeration
  *         (For the complete STM32 Devices IRQ Channels list, please refer to the appropriate CMSIS device file (stm32f4xxxx.h))
  * @retval None
  */
void HAL_NVIC_EnableIRQ(IRQn_Type IRQn)
{
 80014ea:	b580      	push	{r7, lr}
 80014ec:	b082      	sub	sp, #8
 80014ee:	af00      	add	r7, sp, #0
 80014f0:	4603      	mov	r3, r0
 80014f2:	71fb      	strb	r3, [r7, #7]
  /* Check the parameters */
  assert_param(IS_NVIC_DEVICE_IRQ(IRQn));
  
  /* Enable interrupt */
  NVIC_EnableIRQ(IRQn);
 80014f4:	f997 3007 	ldrsb.w	r3, [r7, #7]
 80014f8:	4618      	mov	r0, r3
 80014fa:	f7ff ff31 	bl	8001360 <__NVIC_EnableIRQ>
}
 80014fe:	bf00      	nop
 8001500:	3708      	adds	r7, #8
 8001502:	46bd      	mov	sp, r7
 8001504:	bd80      	pop	{r7, pc}

08001506 <HAL_SYSTICK_Config>:
  * @param  TicksNumb Specifies the ticks Number of ticks between two interrupts.
  * @retval status:  - 0  Function succeeded.
  *                  - 1  Function failed.
  */
uint32_t HAL_SYSTICK_Config(uint32_t TicksNumb)
{
 8001506:	b580      	push	{r7, lr}
 8001508:	b082      	sub	sp, #8
 800150a:	af00      	add	r7, sp, #0
 800150c:	6078      	str	r0, [r7, #4]
   return SysTick_Config(TicksNumb);
 800150e:	6878      	ldr	r0, [r7, #4]
 8001510:	f7ff ffa2 	bl	8001458 <SysTick_Config>
 8001514:	4603      	mov	r3, r0
}
 8001516:	4618      	mov	r0, r3
 8001518:	3708      	adds	r7, #8
 800151a:	46bd      	mov	sp, r7
 800151c:	bd80      	pop	{r7, pc}
	...

08001520 <HAL_GPIO_Init>:
  * @param  GPIO_Init pointer to a GPIO_InitTypeDef structure that contains
  *         the configuration information for the specified GPIO peripheral.
  * @retval None
  */
void HAL_GPIO_Init(GPIO_TypeDef  *GPIOx, GPIO_InitTypeDef *GPIO_Init)
{
 8001520:	b480      	push	{r7}
 8001522:	b089      	sub	sp, #36	@ 0x24
 8001524:	af00      	add	r7, sp, #0
 8001526:	6078      	str	r0, [r7, #4]
 8001528:	6039      	str	r1, [r7, #0]
  uint32_t position;
  uint32_t ioposition = 0x00U;
 800152a:	2300      	movs	r3, #0
 800152c:	617b      	str	r3, [r7, #20]
  uint32_t iocurrent = 0x00U;
 800152e:	2300      	movs	r3, #0
 8001530:	613b      	str	r3, [r7, #16]
  uint32_t temp = 0x00U;
 8001532:	2300      	movs	r3, #0
 8001534:	61bb      	str	r3, [r7, #24]
  assert_param(IS_GPIO_ALL_INSTANCE(GPIOx));
  assert_param(IS_GPIO_PIN(GPIO_Init->Pin));
  assert_param(IS_GPIO_MODE(GPIO_Init->Mode));

  /* Configure the port pins */
  for(position = 0U; position < GPIO_NUMBER; position++)
 8001536:	2300      	movs	r3, #0
 8001538:	61fb      	str	r3, [r7, #28]
 800153a:	e159      	b.n	80017f0 <HAL_GPIO_Init+0x2d0>
  {
    /* Get the IO position */
    ioposition = 0x01U << position;
 800153c:	2201      	movs	r2, #1
 800153e:	69fb      	ldr	r3, [r7, #28]
 8001540:	fa02 f303 	lsl.w	r3, r2, r3
 8001544:	617b      	str	r3, [r7, #20]
    /* Get the current IO position */
    iocurrent = (uint32_t)(GPIO_Init->Pin) & ioposition;
 8001546:	683b      	ldr	r3, [r7, #0]
 8001548:	681b      	ldr	r3, [r3, #0]
 800154a:	697a      	ldr	r2, [r7, #20]
 800154c:	4013      	ands	r3, r2
 800154e:	613b      	str	r3, [r7, #16]

    if(iocurrent == ioposition)
 8001550:	693a      	ldr	r2, [r7, #16]
 8001552:	697b      	ldr	r3, [r7, #20]
 8001554:	429a      	cmp	r2, r3
 8001556:	f040 8148 	bne.w	80017ea <HAL_GPIO_Init+0x2ca>
    {
      /*--------------------- GPIO Mode Configuration ------------------------*/
      /* In case of Output or Alternate function mode selection */
      if(((GPIO_Init->Mode & GPIO_MODE) == MODE_OUTPUT) || \
 800155a:	683b      	ldr	r3, [r7, #0]
 800155c:	685b      	ldr	r3, [r3, #4]
 800155e:	f003 0303 	and.w	r3, r3, #3
 8001562:	2b01      	cmp	r3, #1
 8001564:	d005      	beq.n	8001572 <HAL_GPIO_Init+0x52>
          (GPIO_Init->Mode & GPIO_MODE) == MODE_AF)
 8001566:	683b      	ldr	r3, [r7, #0]
 8001568:	685b      	ldr	r3, [r3, #4]
 800156a:	f003 0303 	and.w	r3, r3, #3
      if(((GPIO_Init->Mode & GPIO_MODE) == MODE_OUTPUT) || \
 800156e:	2b02      	cmp	r3, #2
 8001570:	d130      	bne.n	80015d4 <HAL_GPIO_Init+0xb4>
      {
        /* Check the Speed parameter */
        assert_param(IS_GPIO_SPEED(GPIO_Init->Speed));
        /* Configure the IO Speed */
        temp = GPIOx->OSPEEDR; 
 8001572:	687b      	ldr	r3, [r7, #4]
 8001574:	689b      	ldr	r3, [r3, #8]
 8001576:	61bb      	str	r3, [r7, #24]
        temp &= ~(GPIO_OSPEEDER_OSPEEDR0 << (position * 2U));
 8001578:	69fb      	ldr	r3, [r7, #28]
 800157a:	005b      	lsls	r3, r3, #1
 800157c:	2203      	movs	r2, #3
 800157e:	fa02 f303 	lsl.w	r3, r2, r3
 8001582:	43db      	mvns	r3, r3
 8001584:	69ba      	ldr	r2, [r7, #24]
 8001586:	4013      	ands	r3, r2
 8001588:	61bb      	str	r3, [r7, #24]
        temp |= (GPIO_Init->Speed << (position * 2U));
 800158a:	683b      	ldr	r3, [r7, #0]
 800158c:	68da      	ldr	r2, [r3, #12]
 800158e:	69fb      	ldr	r3, [r7, #28]
 8001590:	005b      	lsls	r3, r3, #1
 8001592:	fa02 f303 	lsl.w	r3, r2, r3
 8001596:	69ba      	ldr	r2, [r7, #24]
 8001598:	4313      	orrs	r3, r2
 800159a:	61bb      	str	r3, [r7, #24]
        GPIOx->OSPEEDR = temp;
 800159c:	687b      	ldr	r3, [r7, #4]
 800159e:	69ba      	ldr	r2, [r7, #24]
 80015a0:	609a      	str	r2, [r3, #8]

        /* Configure the IO Output Type */
        temp = GPIOx->OTYPER;
 80015a2:	687b      	ldr	r3, [r7, #4]
 80015a4:	685b      	ldr	r3, [r3, #4]
 80015a6:	61bb      	str	r3, [r7, #24]
        temp &= ~(GPIO_OTYPER_OT_0 << position) ;
 80015a8:	2201      	movs	r2, #1
 80015aa:	69fb      	ldr	r3, [r7, #28]
 80015ac:	fa02 f303 	lsl.w	r3, r2, r3
 80015b0:	43db      	mvns	r3, r3
 80015b2:	69ba      	ldr	r2, [r7, #24]
 80015b4:	4013      	ands	r3, r2
 80015b6:	61bb      	str	r3, [r7, #24]
        temp |= (((GPIO_Init->Mode & OUTPUT_TYPE) >> OUTPUT_TYPE_Pos) << position);
 80015b8:	683b      	ldr	r3, [r7, #0]
 80015ba:	685b      	ldr	r3, [r3, #4]
 80015bc:	091b      	lsrs	r3, r3, #4
 80015be:	f003 0201 	and.w	r2, r3, #1
 80015c2:	69fb      	ldr	r3, [r7, #28]
 80015c4:	fa02 f303 	lsl.w	r3, r2, r3
 80015c8:	69ba      	ldr	r2, [r7, #24]
 80015ca:	4313      	orrs	r3, r2
 80015cc:	61bb      	str	r3, [r7, #24]
        GPIOx->OTYPER = temp;
 80015ce:	687b      	ldr	r3, [r7, #4]
 80015d0:	69ba      	ldr	r2, [r7, #24]
 80015d2:	605a      	str	r2, [r3, #4]
       }

      if((GPIO_Init->Mode & GPIO_MODE) != MODE_ANALOG)
 80015d4:	683b      	ldr	r3, [r7, #0]
 80015d6:	685b      	ldr	r3, [r3, #4]
 80015d8:	f003 0303 	and.w	r3, r3, #3
 80015dc:	2b03      	cmp	r3, #3
 80015de:	d017      	beq.n	8001610 <HAL_GPIO_Init+0xf0>
      {
        /* Check the parameters */
        assert_param(IS_GPIO_PULL(GPIO_Init->Pull));
        
        /* Activate the Pull-up or Pull down resistor for the current IO */
        temp = GPIOx->PUPDR;
 80015e0:	687b      	ldr	r3, [r7, #4]
 80015e2:	68db      	ldr	r3, [r3, #12]
 80015e4:	61bb      	str	r3, [r7, #24]
        temp &= ~(GPIO_PUPDR_PUPDR0 << (position * 2U));
 80015e6:	69fb      	ldr	r3, [r7, #28]
 80015e8:	005b      	lsls	r3, r3, #1
 80015ea:	2203      	movs	r2, #3
 80015ec:	fa02 f303 	lsl.w	r3, r2, r3
 80015f0:	43db      	mvns	r3, r3
 80015f2:	69ba      	ldr	r2, [r7, #24]
 80015f4:	4013      	ands	r3, r2
 80015f6:	61bb      	str	r3, [r7, #24]
        temp |= ((GPIO_Init->Pull) << (position * 2U));
 80015f8:	683b      	ldr	r3, [r7, #0]
 80015fa:	689a      	ldr	r2, [r3, #8]
 80015fc:	69fb      	ldr	r3, [r7, #28]
 80015fe:	005b      	lsls	r3, r3, #1
 8001600:	fa02 f303 	lsl.w	r3, r2, r3
 8001604:	69ba      	ldr	r2, [r7, #24]
 8001606:	4313      	orrs	r3, r2
 8001608:	61bb      	str	r3, [r7, #24]
        GPIOx->PUPDR = temp;
 800160a:	687b      	ldr	r3, [r7, #4]
 800160c:	69ba      	ldr	r2, [r7, #24]
 800160e:	60da      	str	r2, [r3, #12]
      }

      /* In case of Alternate function mode selection */
      if((GPIO_Init->Mode & GPIO_MODE) == MODE_AF)
 8001610:	683b      	ldr	r3, [r7, #0]
 8001612:	685b      	ldr	r3, [r3, #4]
 8001614:	f003 0303 	and.w	r3, r3, #3
 8001618:	2b02      	cmp	r3, #2
 800161a:	d123      	bne.n	8001664 <HAL_GPIO_Init+0x144>
      {
        /* Check the Alternate function parameter */
        assert_param(IS_GPIO_AF(GPIO_Init->Alternate));
        /* Configure Alternate function mapped with the current IO */
        temp = GPIOx->AFR[position >> 3U];
 800161c:	69fb      	ldr	r3, [r7, #28]
 800161e:	08da      	lsrs	r2, r3, #3
 8001620:	687b      	ldr	r3, [r7, #4]
 8001622:	3208      	adds	r2, #8
 8001624:	f853 3022 	ldr.w	r3, [r3, r2, lsl #2]
 8001628:	61bb      	str	r3, [r7, #24]
        temp &= ~(0xFU << ((uint32_t)(position & 0x07U) * 4U)) ;
 800162a:	69fb      	ldr	r3, [r7, #28]
 800162c:	f003 0307 	and.w	r3, r3, #7
 8001630:	009b      	lsls	r3, r3, #2
 8001632:	220f      	movs	r2, #15
 8001634:	fa02 f303 	lsl.w	r3, r2, r3
 8001638:	43db      	mvns	r3, r3
 800163a:	69ba      	ldr	r2, [r7, #24]
 800163c:	4013      	ands	r3, r2
 800163e:	61bb      	str	r3, [r7, #24]
        temp |= ((uint32_t)(GPIO_Init->Alternate) << (((uint32_t)position & 0x07U) * 4U));
 8001640:	683b      	ldr	r3, [r7, #0]
 8001642:	691a      	ldr	r2, [r3, #16]
 8001644:	69fb      	ldr	r3, [r7, #28]
 8001646:	f003 0307 	and.w	r3, r3, #7
 800164a:	009b      	lsls	r3, r3, #2
 800164c:	fa02 f303 	lsl.w	r3, r2, r3
 8001650:	69ba      	ldr	r2, [r7, #24]
 8001652:	4313      	orrs	r3, r2
 8001654:	61bb      	str	r3, [r7, #24]
        GPIOx->AFR[position >> 3U] = temp;
 8001656:	69fb      	ldr	r3, [r7, #28]
 8001658:	08da      	lsrs	r2, r3, #3
 800165a:	687b      	ldr	r3, [r7, #4]
 800165c:	3208      	adds	r2, #8
 800165e:	69b9      	ldr	r1, [r7, #24]
 8001660:	f843 1022 	str.w	r1, [r3, r2, lsl #2]
      }

      /* Configure IO Direction mode (Input, Output, Alternate or Analog) */
      temp = GPIOx->MODER;
 8001664:	687b      	ldr	r3, [r7, #4]
 8001666:	681b      	ldr	r3, [r3, #0]
 8001668:	61bb      	str	r3, [r7, #24]
      temp &= ~(GPIO_MODER_MODER0 << (position * 2U));
 800166a:	69fb      	ldr	r3, [r7, #28]
 800166c:	005b      	lsls	r3, r3, #1
 800166e:	2203      	movs	r2, #3
 8001670:	fa02 f303 	lsl.w	r3, r2, r3
 8001674:	43db      	mvns	r3, r3
 8001676:	69ba      	ldr	r2, [r7, #24]
 8001678:	4013      	ands	r3, r2
 800167a:	61bb      	str	r3, [r7, #24]
      temp |= ((GPIO_Init->Mode & GPIO_MODE) << (position * 2U));
 800167c:	683b      	ldr	r3, [r7, #0]
 800167e:	685b      	ldr	r3, [r3, #4]
 8001680:	f003 0203 	and.w	r2, r3, #3
 8001684:	69fb      	ldr	r3, [r7, #28]
 8001686:	005b      	lsls	r3, r3, #1
 8001688:	fa02 f303 	lsl.w	r3, r2, r3
 800168c:	69ba      	ldr	r2, [r7, #24]
 800168e:	4313      	orrs	r3, r2
 8001690:	61bb      	str	r3, [r7, #24]
      GPIOx->MODER = temp;
 8001692:	687b      	ldr	r3, [r7, #4]
 8001694:	69ba      	ldr	r2, [r7, #24]
 8001696:	601a      	str	r2, [r3, #0]

      /*--------------------- EXTI Mode Configuration ------------------------*/
      /* Configure the External Interrupt or event for the current IO */
      if((GPIO_Init->Mode & EXTI_MODE) != 0x00U)
 8001698:	683b      	ldr	r3, [r7, #0]
 800169a:	685b      	ldr	r3, [r3, #4]
 800169c:	f403 3340 	and.w	r3, r3, #196608	@ 0x30000
 80016a0:	2b00      	cmp	r3, #0
 80016a2:	f000 80a2 	beq.w	80017ea <HAL_GPIO_Init+0x2ca>
      {
        /* Enable SYSCFG Clock */
        __HAL_RCC_SYSCFG_CLK_ENABLE();
 80016a6:	2300      	movs	r3, #0
 80016a8:	60fb      	str	r3, [r7, #12]
 80016aa:	4b57      	ldr	r3, [pc, #348]	@ (8001808 <HAL_GPIO_Init+0x2e8>)
 80016ac:	6c5b      	ldr	r3, [r3, #68]	@ 0x44
 80016ae:	4a56      	ldr	r2, [pc, #344]	@ (8001808 <HAL_GPIO_Init+0x2e8>)
 80016b0:	f443 4380 	orr.w	r3, r3, #16384	@ 0x4000
 80016b4:	6453      	str	r3, [r2, #68]	@ 0x44
 80016b6:	4b54      	ldr	r3, [pc, #336]	@ (8001808 <HAL_GPIO_Init+0x2e8>)
 80016b8:	6c5b      	ldr	r3, [r3, #68]	@ 0x44
 80016ba:	f403 4380 	and.w	r3, r3, #16384	@ 0x4000
 80016be:	60fb      	str	r3, [r7, #12]
 80016c0:	68fb      	ldr	r3, [r7, #12]

        temp = SYSCFG->EXTICR[position >> 2U];
 80016c2:	4a52      	ldr	r2, [pc, #328]	@ (800180c <HAL_GPIO_Init+0x2ec>)
 80016c4:	69fb      	ldr	r3, [r7, #28]
 80016c6:	089b      	lsrs	r3, r3, #2
 80016c8:	3302      	adds	r3, #2
 80016ca:	f852 3023 	ldr.w	r3, [r2, r3, lsl #2]
 80016ce:	61bb      	str	r3, [r7, #24]
        temp &= ~(0x0FU << (4U * (position & 0x03U)));
 80016d0:	69fb      	ldr	r3, [r7, #28]
 80016d2:	f003 0303 	and.w	r3, r3, #3
 80016d6:	009b      	lsls	r3, r3, #2
 80016d8:	220f      	movs	r2, #15
 80016da:	fa02 f303 	lsl.w	r3, r2, r3
 80016de:	43db      	mvns	r3, r3
 80016e0:	69ba      	ldr	r2, [r7, #24]
 80016e2:	4013      	ands	r3, r2
 80016e4:	61bb      	str	r3, [r7, #24]
        temp |= ((uint32_t)(GPIO_GET_INDEX(GPIOx)) << (4U * (position & 0x03U)));
 80016e6:	687b      	ldr	r3, [r7, #4]
 80016e8:	4a49      	ldr	r2, [pc, #292]	@ (8001810 <HAL_GPIO_Init+0x2f0>)
 80016ea:	4293      	cmp	r3, r2
 80016ec:	d019      	beq.n	8001722 <HAL_GPIO_Init+0x202>
 80016ee:	687b      	ldr	r3, [r7, #4]
 80016f0:	4a48      	ldr	r2, [pc, #288]	@ (8001814 <HAL_GPIO_Init+0x2f4>)
 80016f2:	4293      	cmp	r3, r2
 80016f4:	d013      	beq.n	800171e <HAL_GPIO_Init+0x1fe>
 80016f6:	687b      	ldr	r3, [r7, #4]
 80016f8:	4a47      	ldr	r2, [pc, #284]	@ (8001818 <HAL_GPIO_Init+0x2f8>)
 80016fa:	4293      	cmp	r3, r2
 80016fc:	d00d      	beq.n	800171a <HAL_GPIO_Init+0x1fa>
 80016fe:	687b      	ldr	r3, [r7, #4]
 8001700:	4a46      	ldr	r2, [pc, #280]	@ (800181c <HAL_GPIO_Init+0x2fc>)
 8001702:	4293      	cmp	r3, r2
 8001704:	d007      	beq.n	8001716 <HAL_GPIO_Init+0x1f6>
 8001706:	687b      	ldr	r3, [r7, #4]
 8001708:	4a45      	ldr	r2, [pc, #276]	@ (8001820 <HAL_GPIO_Init+0x300>)
 800170a:	4293      	cmp	r3, r2
 800170c:	d101      	bne.n	8001712 <HAL_GPIO_Init+0x1f2>
 800170e:	2304      	movs	r3, #4
 8001710:	e008      	b.n	8001724 <HAL_GPIO_Init+0x204>
 8001712:	2307      	movs	r3, #7
 8001714:	e006      	b.n	8001724 <HAL_GPIO_Init+0x204>
 8001716:	2303      	movs	r3, #3
 8001718:	e004      	b.n	8001724 <HAL_GPIO_Init+0x204>
 800171a:	2302      	movs	r3, #2
 800171c:	e002      	b.n	8001724 <HAL_GPIO_Init+0x204>
 800171e:	2301      	movs	r3, #1
 8001720:	e000      	b.n	8001724 <HAL_GPIO_Init+0x204>
 8001722:	2300      	movs	r3, #0
 8001724:	69fa      	ldr	r2, [r7, #28]
 8001726:	f002 0203 	and.w	r2, r2, #3
 800172a:	0092      	lsls	r2, r2, #2
 800172c:	4093      	lsls	r3, r2
 800172e:	69ba      	ldr	r2, [r7, #24]
 8001730:	4313      	orrs	r3, r2
 8001732:	61bb      	str	r3, [r7, #24]
        SYSCFG->EXTICR[position >> 2U] = temp;
 8001734:	4935      	ldr	r1, [pc, #212]	@ (800180c <HAL_GPIO_Init+0x2ec>)
 8001736:	69fb      	ldr	r3, [r7, #28]
 8001738:	089b      	lsrs	r3, r3, #2
 800173a:	3302      	adds	r3, #2
 800173c:	69ba      	ldr	r2, [r7, #24]
 800173e:	f841 2023 	str.w	r2, [r1, r3, lsl #2]

        /* Clear Rising Falling edge configuration */
        temp = EXTI->RTSR;
 8001742:	4b38      	ldr	r3, [pc, #224]	@ (8001824 <HAL_GPIO_Init+0x304>)
 8001744:	689b      	ldr	r3, [r3, #8]
 8001746:	61bb      	str	r3, [r7, #24]
        temp &= ~((uint32_t)iocurrent);
 8001748:	693b      	ldr	r3, [r7, #16]
 800174a:	43db      	mvns	r3, r3
 800174c:	69ba      	ldr	r2, [r7, #24]
 800174e:	4013      	ands	r3, r2
 8001750:	61bb      	str	r3, [r7, #24]
        if((GPIO_Init->Mode & TRIGGER_RISING) != 0x00U)
 8001752:	683b      	ldr	r3, [r7, #0]
 8001754:	685b      	ldr	r3, [r3, #4]
 8001756:	f403 1380 	and.w	r3, r3, #1048576	@ 0x100000
 800175a:	2b00      	cmp	r3, #0
 800175c:	d003      	beq.n	8001766 <HAL_GPIO_Init+0x246>
        {
          temp |= iocurrent;
 800175e:	69ba      	ldr	r2, [r7, #24]
 8001760:	693b      	ldr	r3, [r7, #16]
 8001762:	4313      	orrs	r3, r2
 8001764:	61bb      	str	r3, [r7, #24]
        }
        EXTI->RTSR = temp;
 8001766:	4a2f      	ldr	r2, [pc, #188]	@ (8001824 <HAL_GPIO_Init+0x304>)
 8001768:	69bb      	ldr	r3, [r7, #24]
 800176a:	6093      	str	r3, [r2, #8]

        temp = EXTI->FTSR;
 800176c:	4b2d      	ldr	r3, [pc, #180]	@ (8001824 <HAL_GPIO_Init+0x304>)
 800176e:	68db      	ldr	r3, [r3, #12]
 8001770:	61bb      	str	r3, [r7, #24]
        temp &= ~((uint32_t)iocurrent);
 8001772:	693b      	ldr	r3, [r7, #16]
 8001774:	43db      	mvns	r3, r3
 8001776:	69ba      	ldr	r2, [r7, #24]
 8001778:	4013      	ands	r3, r2
 800177a:	61bb      	str	r3, [r7, #24]
        if((GPIO_Init->Mode & TRIGGER_FALLING) != 0x00U)
 800177c:	683b      	ldr	r3, [r7, #0]
 800177e:	685b      	ldr	r3, [r3, #4]
 8001780:	f403 1300 	and.w	r3, r3, #2097152	@ 0x200000
 8001784:	2b00      	cmp	r3, #0
 8001786:	d003      	beq.n	8001790 <HAL_GPIO_Init+0x270>
        {
          temp |= iocurrent;
 8001788:	69ba      	ldr	r2, [r7, #24]
 800178a:	693b      	ldr	r3, [r7, #16]
 800178c:	4313      	orrs	r3, r2
 800178e:	61bb      	str	r3, [r7, #24]
        }
        EXTI->FTSR = temp;
 8001790:	4a24      	ldr	r2, [pc, #144]	@ (8001824 <HAL_GPIO_Init+0x304>)
 8001792:	69bb      	ldr	r3, [r7, #24]
 8001794:	60d3      	str	r3, [r2, #12]

        temp = EXTI->EMR;
 8001796:	4b23      	ldr	r3, [pc, #140]	@ (8001824 <HAL_GPIO_Init+0x304>)
 8001798:	685b      	ldr	r3, [r3, #4]
 800179a:	61bb      	str	r3, [r7, #24]
        temp &= ~((uint32_t)iocurrent);
 800179c:	693b      	ldr	r3, [r7, #16]
 800179e:	43db      	mvns	r3, r3
 80017a0:	69ba      	ldr	r2, [r7, #24]
 80017a2:	4013      	ands	r3, r2
 80017a4:	61bb      	str	r3, [r7, #24]
        if((GPIO_Init->Mode & EXTI_EVT) != 0x00U)
 80017a6:	683b      	ldr	r3, [r7, #0]
 80017a8:	685b      	ldr	r3, [r3, #4]
 80017aa:	f403 3300 	and.w	r3, r3, #131072	@ 0x20000
 80017ae:	2b00      	cmp	r3, #0
 80017b0:	d003      	beq.n	80017ba <HAL_GPIO_Init+0x29a>
        {
          temp |= iocurrent;
 80017b2:	69ba      	ldr	r2, [r7, #24]
 80017b4:	693b      	ldr	r3, [r7, #16]
 80017b6:	4313      	orrs	r3, r2
 80017b8:	61bb      	str	r3, [r7, #24]
        }
        EXTI->EMR = temp;
 80017ba:	4a1a      	ldr	r2, [pc, #104]	@ (8001824 <HAL_GPIO_Init+0x304>)
 80017bc:	69bb      	ldr	r3, [r7, #24]
 80017be:	6053      	str	r3, [r2, #4]

        /* Clear EXTI line configuration */
        temp = EXTI->IMR;
 80017c0:	4b18      	ldr	r3, [pc, #96]	@ (8001824 <HAL_GPIO_Init+0x304>)
 80017c2:	681b      	ldr	r3, [r3, #0]
 80017c4:	61bb      	str	r3, [r7, #24]
        temp &= ~((uint32_t)iocurrent);
 80017c6:	693b      	ldr	r3, [r7, #16]
 80017c8:	43db      	mvns	r3, r3
 80017ca:	69ba      	ldr	r2, [r7, #24]
 80017cc:	4013      	ands	r3, r2
 80017ce:	61bb      	str	r3, [r7, #24]
        if((GPIO_Init->Mode & EXTI_IT) != 0x00U)
 80017d0:	683b      	ldr	r3, [r7, #0]
 80017d2:	685b      	ldr	r3, [r3, #4]
 80017d4:	f403 3380 	and.w	r3, r3, #65536	@ 0x10000
 80017d8:	2b00      	cmp	r3, #0
 80017da:	d003      	beq.n	80017e4 <HAL_GPIO_Init+0x2c4>
        {
          temp |= iocurrent;
 80017dc:	69ba      	ldr	r2, [r7, #24]
 80017de:	693b      	ldr	r3, [r7, #16]
 80017e0:	4313      	orrs	r3, r2
 80017e2:	61bb      	str	r3, [r7, #24]
        }
        EXTI->IMR = temp;
 80017e4:	4a0f      	ldr	r2, [pc, #60]	@ (8001824 <HAL_GPIO_Init+0x304>)
 80017e6:	69bb      	ldr	r3, [r7, #24]
 80017e8:	6013      	str	r3, [r2, #0]
  for(position = 0U; position < GPIO_NUMBER; position++)
 80017ea:	69fb      	ldr	r3, [r7, #28]
 80017ec:	3301      	adds	r3, #1
 80017ee:	61fb      	str	r3, [r7, #28]
 80017f0:	69fb      	ldr	r3, [r7, #28]
 80017f2:	2b0f      	cmp	r3, #15
 80017f4:	f67f aea2 	bls.w	800153c <HAL_GPIO_Init+0x1c>
      }
    }
  }
}
 80017f8:	bf00      	nop
 80017fa:	bf00      	nop
 80017fc:	3724      	adds	r7, #36	@ 0x24
 80017fe:	46bd      	mov	sp, r7
 8001800:	f85d 7b04 	ldr.w	r7, [sp], #4
 8001804:	4770      	bx	lr
 8001806:	bf00      	nop
 8001808:	40023800 	.word	0x40023800
 800180c:	40013800 	.word	0x40013800
 8001810:	40020000 	.word	0x40020000
 8001814:	40020400 	.word	0x40020400
 8001818:	40020800 	.word	0x40020800
 800181c:	40020c00 	.word	0x40020c00
 8001820:	40021000 	.word	0x40021000
 8001824:	40013c00 	.word	0x40013c00

08001828 <HAL_GPIO_WritePin>:
  *            @arg GPIO_PIN_RESET: to clear the port pin
  *            @arg GPIO_PIN_SET: to set the port pin
  * @retval None
  */
void HAL_GPIO_WritePin(GPIO_TypeDef* GPIOx, uint16_t GPIO_Pin, GPIO_PinState PinState)
{
 8001828:	b480      	push	{r7}
 800182a:	b083      	sub	sp, #12
 800182c:	af00      	add	r7, sp, #0
 800182e:	6078      	str	r0, [r7, #4]
 8001830:	460b      	mov	r3, r1
 8001832:	807b      	strh	r3, [r7, #2]
 8001834:	4613      	mov	r3, r2
 8001836:	707b      	strb	r3, [r7, #1]
  /* Check the parameters */
  assert_param(IS_GPIO_PIN(GPIO_Pin));
  assert_param(IS_GPIO_PIN_ACTION(PinState));

  if(PinState != GPIO_PIN_RESET)
 8001838:	787b      	ldrb	r3, [r7, #1]
 800183a:	2b00      	cmp	r3, #0
 800183c:	d003      	beq.n	8001846 <HAL_GPIO_WritePin+0x1e>
  {
    GPIOx->BSRR = GPIO_Pin;
 800183e:	887a      	ldrh	r2, [r7, #2]
 8001840:	687b      	ldr	r3, [r7, #4]
 8001842:	619a      	str	r2, [r3, #24]
  }
  else
  {
    GPIOx->BSRR = (uint32_t)GPIO_Pin << 16U;
  }
}
 8001844:	e003      	b.n	800184e <HAL_GPIO_WritePin+0x26>
    GPIOx->BSRR = (uint32_t)GPIO_Pin << 16U;
 8001846:	887b      	ldrh	r3, [r7, #2]
 8001848:	041a      	lsls	r2, r3, #16
 800184a:	687b      	ldr	r3, [r7, #4]
 800184c:	619a      	str	r2, [r3, #24]
}
 800184e:	bf00      	nop
 8001850:	370c      	adds	r7, #12
 8001852:	46bd      	mov	sp, r7
 8001854:	f85d 7b04 	ldr.w	r7, [sp], #4
 8001858:	4770      	bx	lr
	...

0800185c <HAL_I2C_Init>:
  * @param  hi2c Pointer to a I2C_HandleTypeDef structure that contains
  *                the configuration information for the specified I2C.
  * @retval HAL status
  */
HAL_StatusTypeDef HAL_I2C_Init(I2C_HandleTypeDef *hi2c)
{
 800185c:	b580      	push	{r7, lr}
 800185e:	b084      	sub	sp, #16
 8001860:	af00      	add	r7, sp, #0
 8001862:	6078      	str	r0, [r7, #4]
  uint32_t freqrange;
  uint32_t pclk1;

  /* Check the I2C handle allocation */
  if (hi2c == NULL)
 8001864:	687b      	ldr	r3, [r7, #4]
 8001866:	2b00      	cmp	r3, #0
 8001868:	d101      	bne.n	800186e <HAL_I2C_Init+0x12>
  {
    return HAL_ERROR;
 800186a:	2301      	movs	r3, #1
 800186c:	e12b      	b.n	8001ac6 <HAL_I2C_Init+0x26a>
  assert_param(IS_I2C_DUAL_ADDRESS(hi2c->Init.DualAddressMode));
  assert_param(IS_I2C_OWN_ADDRESS2(hi2c->Init.OwnAddress2));
  assert_param(IS_I2C_GENERAL_CALL(hi2c->Init.GeneralCallMode));
  assert_param(IS_I2C_NO_STRETCH(hi2c->Init.NoStretchMode));

  if (hi2c->State == HAL_I2C_STATE_RESET)
 800186e:	687b      	ldr	r3, [r7, #4]
 8001870:	f893 303d 	ldrb.w	r3, [r3, #61]	@ 0x3d
 8001874:	b2db      	uxtb	r3, r3
 8001876:	2b00      	cmp	r3, #0
 8001878:	d106      	bne.n	8001888 <HAL_I2C_Init+0x2c>
  {
    /* Allocate lock resource and initialize it */
    hi2c->Lock = HAL_UNLOCKED;
 800187a:	687b      	ldr	r3, [r7, #4]
 800187c:	2200      	movs	r2, #0
 800187e:	f883 203c 	strb.w	r2, [r3, #60]	@ 0x3c

    /* Init the low level hardware : GPIO, CLOCK, NVIC */
    hi2c->MspInitCallback(hi2c);
#else
    /* Init the low level hardware : GPIO, CLOCK, NVIC */
    HAL_I2C_MspInit(hi2c);
 8001882:	6878      	ldr	r0, [r7, #4]
 8001884:	f7ff f892 	bl	80009ac <HAL_I2C_MspInit>
#endif /* USE_HAL_I2C_REGISTER_CALLBACKS */
  }

  hi2c->State = HAL_I2C_STATE_BUSY;
 8001888:	687b      	ldr	r3, [r7, #4]
 800188a:	2224      	movs	r2, #36	@ 0x24
 800188c:	f883 203d 	strb.w	r2, [r3, #61]	@ 0x3d

  /* Disable the selected I2C peripheral */
  __HAL_I2C_DISABLE(hi2c);
 8001890:	687b      	ldr	r3, [r7, #4]
 8001892:	681b      	ldr	r3, [r3, #0]
 8001894:	681a      	ldr	r2, [r3, #0]
 8001896:	687b      	ldr	r3, [r7, #4]
 8001898:	681b      	ldr	r3, [r3, #0]
 800189a:	f022 0201 	bic.w	r2, r2, #1
 800189e:	601a      	str	r2, [r3, #0]

  /*Reset I2C*/
  hi2c->Instance->CR1 |= I2C_CR1_SWRST;
 80018a0:	687b      	ldr	r3, [r7, #4]
 80018a2:	681b      	ldr	r3, [r3, #0]
 80018a4:	681a      	ldr	r2, [r3, #0]
 80018a6:	687b      	ldr	r3, [r7, #4]
 80018a8:	681b      	ldr	r3, [r3, #0]
 80018aa:	f442 4200 	orr.w	r2, r2, #32768	@ 0x8000
 80018ae:	601a      	str	r2, [r3, #0]
  hi2c->Instance->CR1 &= ~I2C_CR1_SWRST;
 80018b0:	687b      	ldr	r3, [r7, #4]
 80018b2:	681b      	ldr	r3, [r3, #0]
 80018b4:	681a      	ldr	r2, [r3, #0]
 80018b6:	687b      	ldr	r3, [r7, #4]
 80018b8:	681b      	ldr	r3, [r3, #0]
 80018ba:	f422 4200 	bic.w	r2, r2, #32768	@ 0x8000
 80018be:	601a      	str	r2, [r3, #0]

  /* Get PCLK1 frequency */
  pclk1 = HAL_RCC_GetPCLK1Freq();
 80018c0:	f001 ff7a 	bl	80037b8 <HAL_RCC_GetPCLK1Freq>
 80018c4:	60f8      	str	r0, [r7, #12]

  /* Check the minimum allowed PCLK1 frequency */
  if (I2C_MIN_PCLK_FREQ(pclk1, hi2c->Init.ClockSpeed) == 1U)
 80018c6:	687b      	ldr	r3, [r7, #4]
 80018c8:	685b      	ldr	r3, [r3, #4]
 80018ca:	4a81      	ldr	r2, [pc, #516]	@ (8001ad0 <HAL_I2C_Init+0x274>)
 80018cc:	4293      	cmp	r3, r2
 80018ce:	d807      	bhi.n	80018e0 <HAL_I2C_Init+0x84>
 80018d0:	68fb      	ldr	r3, [r7, #12]
 80018d2:	4a80      	ldr	r2, [pc, #512]	@ (8001ad4 <HAL_I2C_Init+0x278>)
 80018d4:	4293      	cmp	r3, r2
 80018d6:	bf94      	ite	ls
 80018d8:	2301      	movls	r3, #1
 80018da:	2300      	movhi	r3, #0
 80018dc:	b2db      	uxtb	r3, r3
 80018de:	e006      	b.n	80018ee <HAL_I2C_Init+0x92>
 80018e0:	68fb      	ldr	r3, [r7, #12]
 80018e2:	4a7d      	ldr	r2, [pc, #500]	@ (8001ad8 <HAL_I2C_Init+0x27c>)
 80018e4:	4293      	cmp	r3, r2
 80018e6:	bf94      	ite	ls
 80018e8:	2301      	movls	r3, #1
 80018ea:	2300      	movhi	r3, #0
 80018ec:	b2db      	uxtb	r3, r3
 80018ee:	2b00      	cmp	r3, #0
 80018f0:	d001      	beq.n	80018f6 <HAL_I2C_Init+0x9a>
  {
    return HAL_ERROR;
 80018f2:	2301      	movs	r3, #1
 80018f4:	e0e7      	b.n	8001ac6 <HAL_I2C_Init+0x26a>
  }

  /* Calculate frequency range */
  freqrange = I2C_FREQRANGE(pclk1);
 80018f6:	68fb      	ldr	r3, [r7, #12]
 80018f8:	4a78      	ldr	r2, [pc, #480]	@ (8001adc <HAL_I2C_Init+0x280>)
 80018fa:	fba2 2303 	umull	r2, r3, r2, r3
 80018fe:	0c9b      	lsrs	r3, r3, #18
 8001900:	60bb      	str	r3, [r7, #8]

  /*---------------------------- I2Cx CR2 Configuration ----------------------*/
  /* Configure I2Cx: Frequency range */
  MODIFY_REG(hi2c->Instance->CR2, I2C_CR2_FREQ, freqrange);
 8001902:	687b      	ldr	r3, [r7, #4]
 8001904:	681b      	ldr	r3, [r3, #0]
 8001906:	685b      	ldr	r3, [r3, #4]
 8001908:	f023 013f 	bic.w	r1, r3, #63	@ 0x3f
 800190c:	687b      	ldr	r3, [r7, #4]
 800190e:	681b      	ldr	r3, [r3, #0]
 8001910:	68ba      	ldr	r2, [r7, #8]
 8001912:	430a      	orrs	r2, r1
 8001914:	605a      	str	r2, [r3, #4]

  /*---------------------------- I2Cx TRISE Configuration --------------------*/
  /* Configure I2Cx: Rise Time */
  MODIFY_REG(hi2c->Instance->TRISE, I2C_TRISE_TRISE, I2C_RISE_TIME(freqrange, hi2c->Init.ClockSpeed));
 8001916:	687b      	ldr	r3, [r7, #4]
 8001918:	681b      	ldr	r3, [r3, #0]
 800191a:	6a1b      	ldr	r3, [r3, #32]
 800191c:	f023 013f 	bic.w	r1, r3, #63	@ 0x3f
 8001920:	687b      	ldr	r3, [r7, #4]
 8001922:	685b      	ldr	r3, [r3, #4]
 8001924:	4a6a      	ldr	r2, [pc, #424]	@ (8001ad0 <HAL_I2C_Init+0x274>)
 8001926:	4293      	cmp	r3, r2
 8001928:	d802      	bhi.n	8001930 <HAL_I2C_Init+0xd4>
 800192a:	68bb      	ldr	r3, [r7, #8]
 800192c:	3301      	adds	r3, #1
 800192e:	e009      	b.n	8001944 <HAL_I2C_Init+0xe8>
 8001930:	68bb      	ldr	r3, [r7, #8]
 8001932:	f44f 7296 	mov.w	r2, #300	@ 0x12c
 8001936:	fb02 f303 	mul.w	r3, r2, r3
 800193a:	4a69      	ldr	r2, [pc, #420]	@ (8001ae0 <HAL_I2C_Init+0x284>)
 800193c:	fba2 2303 	umull	r2, r3, r2, r3
 8001940:	099b      	lsrs	r3, r3, #6
 8001942:	3301      	adds	r3, #1
 8001944:	687a      	ldr	r2, [r7, #4]
 8001946:	6812      	ldr	r2, [r2, #0]
 8001948:	430b      	orrs	r3, r1
 800194a:	6213      	str	r3, [r2, #32]

  /*---------------------------- I2Cx CCR Configuration ----------------------*/
  /* Configure I2Cx: Speed */
  MODIFY_REG(hi2c->Instance->CCR, (I2C_CCR_FS | I2C_CCR_DUTY | I2C_CCR_CCR), I2C_SPEED(pclk1, hi2c->Init.ClockSpeed, hi2c->Init.DutyCycle));
 800194c:	687b      	ldr	r3, [r7, #4]
 800194e:	681b      	ldr	r3, [r3, #0]
 8001950:	69db      	ldr	r3, [r3, #28]
 8001952:	f423 424f 	bic.w	r2, r3, #52992	@ 0xcf00
 8001956:	f022 02ff 	bic.w	r2, r2, #255	@ 0xff
 800195a:	687b      	ldr	r3, [r7, #4]
 800195c:	685b      	ldr	r3, [r3, #4]
 800195e:	495c      	ldr	r1, [pc, #368]	@ (8001ad0 <HAL_I2C_Init+0x274>)
 8001960:	428b      	cmp	r3, r1
 8001962:	d819      	bhi.n	8001998 <HAL_I2C_Init+0x13c>
 8001964:	68fb      	ldr	r3, [r7, #12]
 8001966:	1e59      	subs	r1, r3, #1
 8001968:	687b      	ldr	r3, [r7, #4]
 800196a:	685b      	ldr	r3, [r3, #4]
 800196c:	005b      	lsls	r3, r3, #1
 800196e:	fbb1 f3f3 	udiv	r3, r1, r3
 8001972:	1c59      	adds	r1, r3, #1
 8001974:	f640 73fc 	movw	r3, #4092	@ 0xffc
 8001978:	400b      	ands	r3, r1
 800197a:	2b00      	cmp	r3, #0
 800197c:	d00a      	beq.n	8001994 <HAL_I2C_Init+0x138>
 800197e:	68fb      	ldr	r3, [r7, #12]
 8001980:	1e59      	subs	r1, r3, #1
 8001982:	687b      	ldr	r3, [r7, #4]
 8001984:	685b      	ldr	r3, [r3, #4]
 8001986:	005b      	lsls	r3, r3, #1
 8001988:	fbb1 f3f3 	udiv	r3, r1, r3
 800198c:	3301      	adds	r3, #1
 800198e:	f3c3 030b 	ubfx	r3, r3, #0, #12
 8001992:	e051      	b.n	8001a38 <HAL_I2C_Init+0x1dc>
 8001994:	2304      	movs	r3, #4
 8001996:	e04f      	b.n	8001a38 <HAL_I2C_Init+0x1dc>
 8001998:	687b      	ldr	r3, [r7, #4]
 800199a:	689b      	ldr	r3, [r3, #8]
 800199c:	2b00      	cmp	r3, #0
 800199e:	d111      	bne.n	80019c4 <HAL_I2C_Init+0x168>
 80019a0:	68fb      	ldr	r3, [r7, #12]
 80019a2:	1e58      	subs	r0, r3, #1
 80019a4:	687b      	ldr	r3, [r7, #4]
 80019a6:	6859      	ldr	r1, [r3, #4]
 80019a8:	460b      	mov	r3, r1
 80019aa:	005b      	lsls	r3, r3, #1
 80019ac:	440b      	add	r3, r1
 80019ae:	fbb0 f3f3 	udiv	r3, r0, r3
 80019b2:	3301      	adds	r3, #1
 80019b4:	f3c3 030b 	ubfx	r3, r3, #0, #12
 80019b8:	2b00      	cmp	r3, #0
 80019ba:	bf0c      	ite	eq
 80019bc:	2301      	moveq	r3, #1
 80019be:	2300      	movne	r3, #0
 80019c0:	b2db      	uxtb	r3, r3
 80019c2:	e012      	b.n	80019ea <HAL_I2C_Init+0x18e>
 80019c4:	68fb      	ldr	r3, [r7, #12]
 80019c6:	1e58      	subs	r0, r3, #1
 80019c8:	687b      	ldr	r3, [r7, #4]
 80019ca:	6859      	ldr	r1, [r3, #4]
 80019cc:	460b      	mov	r3, r1
 80019ce:	009b      	lsls	r3, r3, #2
 80019d0:	440b      	add	r3, r1
 80019d2:	0099      	lsls	r1, r3, #2
 80019d4:	440b      	add	r3, r1
 80019d6:	fbb0 f3f3 	udiv	r3, r0, r3
 80019da:	3301      	adds	r3, #1
 80019dc:	f3c3 030b 	ubfx	r3, r3, #0, #12
 80019e0:	2b00      	cmp	r3, #0
 80019e2:	bf0c      	ite	eq
 80019e4:	2301      	moveq	r3, #1
 80019e6:	2300      	movne	r3, #0
 80019e8:	b2db      	uxtb	r3, r3
 80019ea:	2b00      	cmp	r3, #0
 80019ec:	d001      	beq.n	80019f2 <HAL_I2C_Init+0x196>
 80019ee:	2301      	movs	r3, #1
 80019f0:	e022      	b.n	8001a38 <HAL_I2C_Init+0x1dc>
 80019f2:	687b      	ldr	r3, [r7, #4]
 80019f4:	689b      	ldr	r3, [r3, #8]
 80019f6:	2b00      	cmp	r3, #0
 80019f8:	d10e      	bne.n	8001a18 <HAL_I2C_Init+0x1bc>
 80019fa:	68fb      	ldr	r3, [r7, #12]
 80019fc:	1e58      	subs	r0, r3, #1
 80019fe:	687b      	ldr	r3, [r7, #4]
 8001a00:	6859      	ldr	r1, [r3, #4]
 8001a02:	460b      	mov	r3, r1
 8001a04:	005b      	lsls	r3, r3, #1
 8001a06:	440b      	add	r3, r1
 8001a08:	fbb0 f3f3 	udiv	r3, r0, r3
 8001a0c:	3301      	adds	r3, #1
 8001a0e:	f3c3 030b 	ubfx	r3, r3, #0, #12
 8001a12:	f443 4300 	orr.w	r3, r3, #32768	@ 0x8000
 8001a16:	e00f      	b.n	8001a38 <HAL_I2C_Init+0x1dc>
 8001a18:	68fb      	ldr	r3, [r7, #12]
 8001a1a:	1e58      	subs	r0, r3, #1
 8001a1c:	687b      	ldr	r3, [r7, #4]
 8001a1e:	6859      	ldr	r1, [r3, #4]
 8001a20:	460b      	mov	r3, r1
 8001a22:	009b      	lsls	r3, r3, #2
 8001a24:	440b      	add	r3, r1
 8001a26:	0099      	lsls	r1, r3, #2
 8001a28:	440b      	add	r3, r1
 8001a2a:	fbb0 f3f3 	udiv	r3, r0, r3
 8001a2e:	3301      	adds	r3, #1
 8001a30:	f3c3 030b 	ubfx	r3, r3, #0, #12
 8001a34:	f443 4340 	orr.w	r3, r3, #49152	@ 0xc000
 8001a38:	6879      	ldr	r1, [r7, #4]
 8001a3a:	6809      	ldr	r1, [r1, #0]
 8001a3c:	4313      	orrs	r3, r2
 8001a3e:	61cb      	str	r3, [r1, #28]

  /*---------------------------- I2Cx CR1 Configuration ----------------------*/
  /* Configure I2Cx: Generalcall and NoStretch mode */
  MODIFY_REG(hi2c->Instance->CR1, (I2C_CR1_ENGC | I2C_CR1_NOSTRETCH), (hi2c->Init.GeneralCallMode | hi2c->Init.NoStretchMode));
 8001a40:	687b      	ldr	r3, [r7, #4]
 8001a42:	681b      	ldr	r3, [r3, #0]
 8001a44:	681b      	ldr	r3, [r3, #0]
 8001a46:	f023 01c0 	bic.w	r1, r3, #192	@ 0xc0
 8001a4a:	687b      	ldr	r3, [r7, #4]
 8001a4c:	69da      	ldr	r2, [r3, #28]
 8001a4e:	687b      	ldr	r3, [r7, #4]
 8001a50:	6a1b      	ldr	r3, [r3, #32]
 8001a52:	431a      	orrs	r2, r3
 8001a54:	687b      	ldr	r3, [r7, #4]
 8001a56:	681b      	ldr	r3, [r3, #0]
 8001a58:	430a      	orrs	r2, r1
 8001a5a:	601a      	str	r2, [r3, #0]

  /*---------------------------- I2Cx OAR1 Configuration ---------------------*/
  /* Configure I2Cx: Own Address1 and addressing mode */
  MODIFY_REG(hi2c->Instance->OAR1, (I2C_OAR1_ADDMODE | I2C_OAR1_ADD8_9 | I2C_OAR1_ADD1_7 | I2C_OAR1_ADD0), (hi2c->Init.AddressingMode | hi2c->Init.OwnAddress1));
 8001a5c:	687b      	ldr	r3, [r7, #4]
 8001a5e:	681b      	ldr	r3, [r3, #0]
 8001a60:	689b      	ldr	r3, [r3, #8]
 8001a62:	f423 4303 	bic.w	r3, r3, #33536	@ 0x8300
 8001a66:	f023 03ff 	bic.w	r3, r3, #255	@ 0xff
 8001a6a:	687a      	ldr	r2, [r7, #4]
 8001a6c:	6911      	ldr	r1, [r2, #16]
 8001a6e:	687a      	ldr	r2, [r7, #4]
 8001a70:	68d2      	ldr	r2, [r2, #12]
 8001a72:	4311      	orrs	r1, r2
 8001a74:	687a      	ldr	r2, [r7, #4]
 8001a76:	6812      	ldr	r2, [r2, #0]
 8001a78:	430b      	orrs	r3, r1
 8001a7a:	6093      	str	r3, [r2, #8]

  /*---------------------------- I2Cx OAR2 Configuration ---------------------*/
  /* Configure I2Cx: Dual mode and Own Address2 */
  MODIFY_REG(hi2c->Instance->OAR2, (I2C_OAR2_ENDUAL | I2C_OAR2_ADD2), (hi2c->Init.DualAddressMode | hi2c->Init.OwnAddress2));
 8001a7c:	687b      	ldr	r3, [r7, #4]
 8001a7e:	681b      	ldr	r3, [r3, #0]
 8001a80:	68db      	ldr	r3, [r3, #12]
 8001a82:	f023 01ff 	bic.w	r1, r3, #255	@ 0xff
 8001a86:	687b      	ldr	r3, [r7, #4]
 8001a88:	695a      	ldr	r2, [r3, #20]
 8001a8a:	687b      	ldr	r3, [r7, #4]
 8001a8c:	699b      	ldr	r3, [r3, #24]
 8001a8e:	431a      	orrs	r2, r3
 8001a90:	687b      	ldr	r3, [r7, #4]
 8001a92:	681b      	ldr	r3, [r3, #0]
 8001a94:	430a      	orrs	r2, r1
 8001a96:	60da      	str	r2, [r3, #12]

  /* Enable the selected I2C peripheral */
  __HAL_I2C_ENABLE(hi2c);
 8001a98:	687b      	ldr	r3, [r7, #4]
 8001a9a:	681b      	ldr	r3, [r3, #0]
 8001a9c:	681a      	ldr	r2, [r3, #0]
 8001a9e:	687b      	ldr	r3, [r7, #4]
 8001aa0:	681b      	ldr	r3, [r3, #0]
 8001aa2:	f042 0201 	orr.w	r2, r2, #1
 8001aa6:	601a      	str	r2, [r3, #0]

  hi2c->ErrorCode = HAL_I2C_ERROR_NONE;
 8001aa8:	687b      	ldr	r3, [r7, #4]
 8001aaa:	2200      	movs	r2, #0
 8001aac:	641a      	str	r2, [r3, #64]	@ 0x40
  hi2c->State = HAL_I2C_STATE_READY;
 8001aae:	687b      	ldr	r3, [r7, #4]
 8001ab0:	2220      	movs	r2, #32
 8001ab2:	f883 203d 	strb.w	r2, [r3, #61]	@ 0x3d
  hi2c->PreviousState = I2C_STATE_NONE;
 8001ab6:	687b      	ldr	r3, [r7, #4]
 8001ab8:	2200      	movs	r2, #0
 8001aba:	631a      	str	r2, [r3, #48]	@ 0x30
  hi2c->Mode = HAL_I2C_MODE_NONE;
 8001abc:	687b      	ldr	r3, [r7, #4]
 8001abe:	2200      	movs	r2, #0
 8001ac0:	f883 203e 	strb.w	r2, [r3, #62]	@ 0x3e

  return HAL_OK;
 8001ac4:	2300      	movs	r3, #0
}
 8001ac6:	4618      	mov	r0, r3
 8001ac8:	3710      	adds	r7, #16
 8001aca:	46bd      	mov	sp, r7
 8001acc:	bd80      	pop	{r7, pc}
 8001ace:	bf00      	nop
 8001ad0:	000186a0 	.word	0x000186a0
 8001ad4:	001e847f 	.word	0x001e847f
 8001ad8:	003d08ff 	.word	0x003d08ff
 8001adc:	431bde83 	.word	0x431bde83
 8001ae0:	10624dd3 	.word	0x10624dd3

08001ae4 <HAL_PCD_Init>:
  *         parameters in the PCD_InitTypeDef and initialize the associated handle.
  * @param  hpcd PCD handle
  * @retval HAL status
  */
HAL_StatusTypeDef HAL_PCD_Init(PCD_HandleTypeDef *hpcd)
{
 8001ae4:	b580      	push	{r7, lr}
 8001ae6:	b086      	sub	sp, #24
 8001ae8:	af02      	add	r7, sp, #8
 8001aea:	6078      	str	r0, [r7, #4]
  const USB_OTG_GlobalTypeDef *USBx;
#endif /* defined (USB_OTG_FS) */
  uint8_t i;

  /* Check the PCD handle allocation */
  if (hpcd == NULL)
 8001aec:	687b      	ldr	r3, [r7, #4]
 8001aee:	2b00      	cmp	r3, #0
 8001af0:	d101      	bne.n	8001af6 <HAL_PCD_Init+0x12>
  {
    return HAL_ERROR;
 8001af2:	2301      	movs	r3, #1
 8001af4:	e101      	b.n	8001cfa <HAL_PCD_Init+0x216>

  /* Check the parameters */
  assert_param(IS_PCD_ALL_INSTANCE(hpcd->Instance));

#if defined (USB_OTG_FS)
  USBx = hpcd->Instance;
 8001af6:	687b      	ldr	r3, [r7, #4]
 8001af8:	681b      	ldr	r3, [r3, #0]
 8001afa:	60bb      	str	r3, [r7, #8]
#endif /* defined (USB_OTG_FS) */

  if (hpcd->State == HAL_PCD_STATE_RESET)
 8001afc:	687b      	ldr	r3, [r7, #4]
 8001afe:	f893 3495 	ldrb.w	r3, [r3, #1173]	@ 0x495
 8001b02:	b2db      	uxtb	r3, r3
 8001b04:	2b00      	cmp	r3, #0
 8001b06:	d106      	bne.n	8001b16 <HAL_PCD_Init+0x32>
  {
    /* Allocate lock resource and initialize it */
    hpcd->Lock = HAL_UNLOCKED;
 8001b08:	687b      	ldr	r3, [r7, #4]
 8001b0a:	2200      	movs	r2, #0
 8001b0c:	f883 2494 	strb.w	r2, [r3, #1172]	@ 0x494

    /* Init the low level hardware */
    hpcd->MspInitCallback(hpcd);
#else
    /* Init the low level hardware : GPIO, CLOCK, NVIC... */
    HAL_PCD_MspInit(hpcd);
 8001b10:	6878      	ldr	r0, [r7, #4]
 8001b12:	f005 fb55 	bl	80071c0 <HAL_PCD_MspInit>
#endif /* (USE_HAL_PCD_REGISTER_CALLBACKS) */
  }

  hpcd->State = HAL_PCD_STATE_BUSY;
 8001b16:	687b      	ldr	r3, [r7, #4]
 8001b18:	2203      	movs	r2, #3
 8001b1a:	f883 2495 	strb.w	r2, [r3, #1173]	@ 0x495

#if defined (USB_OTG_FS)
  /* Disable DMA mode for FS instance */
  if (USBx == USB_OTG_FS)
 8001b1e:	68bb      	ldr	r3, [r7, #8]
 8001b20:	f1b3 4fa0 	cmp.w	r3, #1342177280	@ 0x50000000
 8001b24:	d102      	bne.n	8001b2c <HAL_PCD_Init+0x48>
  {
    hpcd->Init.dma_enable = 0U;
 8001b26:	687b      	ldr	r3, [r7, #4]
 8001b28:	2200      	movs	r2, #0
 8001b2a:	719a      	strb	r2, [r3, #6]
  }
#endif /* defined (USB_OTG_FS) */

  /* Disable the Interrupts */
  __HAL_PCD_DISABLE(hpcd);
 8001b2c:	687b      	ldr	r3, [r7, #4]
 8001b2e:	681b      	ldr	r3, [r3, #0]
 8001b30:	4618      	mov	r0, r3
 8001b32:	f002 face 	bl	80040d2 <USB_DisableGlobalInt>

  /*Init the Core (common init.) */
  if (USB_CoreInit(hpcd->Instance, hpcd->Init) != HAL_OK)
 8001b36:	687b      	ldr	r3, [r7, #4]
 8001b38:	6818      	ldr	r0, [r3, #0]
 8001b3a:	687b      	ldr	r3, [r7, #4]
 8001b3c:	7c1a      	ldrb	r2, [r3, #16]
 8001b3e:	f88d 2000 	strb.w	r2, [sp]
 8001b42:	3304      	adds	r3, #4
 8001b44:	cb0e      	ldmia	r3, {r1, r2, r3}
 8001b46:	f002 f9ad 	bl	8003ea4 <USB_CoreInit>
 8001b4a:	4603      	mov	r3, r0
 8001b4c:	2b00      	cmp	r3, #0
 8001b4e:	d005      	beq.n	8001b5c <HAL_PCD_Init+0x78>
  {
    hpcd->State = HAL_PCD_STATE_ERROR;
 8001b50:	687b      	ldr	r3, [r7, #4]
 8001b52:	2202      	movs	r2, #2
 8001b54:	f883 2495 	strb.w	r2, [r3, #1173]	@ 0x495
    return HAL_ERROR;
 8001b58:	2301      	movs	r3, #1
 8001b5a:	e0ce      	b.n	8001cfa <HAL_PCD_Init+0x216>
  }

  /* Force Device Mode */
  if (USB_SetCurrentMode(hpcd->Instance, USB_DEVICE_MODE) != HAL_OK)
 8001b5c:	687b      	ldr	r3, [r7, #4]
 8001b5e:	681b      	ldr	r3, [r3, #0]
 8001b60:	2100      	movs	r1, #0
 8001b62:	4618      	mov	r0, r3
 8001b64:	f002 fac6 	bl	80040f4 <USB_SetCurrentMode>
 8001b68:	4603      	mov	r3, r0
 8001b6a:	2b00      	cmp	r3, #0
 8001b6c:	d005      	beq.n	8001b7a <HAL_PCD_Init+0x96>
  {
    hpcd->State = HAL_PCD_STATE_ERROR;
 8001b6e:	687b      	ldr	r3, [r7, #4]
 8001b70:	2202      	movs	r2, #2
 8001b72:	f883 2495 	strb.w	r2, [r3, #1173]	@ 0x495
    return HAL_ERROR;
 8001b76:	2301      	movs	r3, #1
 8001b78:	e0bf      	b.n	8001cfa <HAL_PCD_Init+0x216>
  }

  /* Init endpoints structures */
  for (i = 0U; i < hpcd->Init.dev_endpoints; i++)
 8001b7a:	2300      	movs	r3, #0
 8001b7c:	73fb      	strb	r3, [r7, #15]
 8001b7e:	e04a      	b.n	8001c16 <HAL_PCD_Init+0x132>
  {
    /* Init ep structure */
    hpcd->IN_ep[i].is_in = 1U;
 8001b80:	7bfa      	ldrb	r2, [r7, #15]
 8001b82:	6879      	ldr	r1, [r7, #4]
 8001b84:	4613      	mov	r3, r2
 8001b86:	00db      	lsls	r3, r3, #3
 8001b88:	4413      	add	r3, r2
 8001b8a:	009b      	lsls	r3, r3, #2
 8001b8c:	440b      	add	r3, r1
 8001b8e:	3315      	adds	r3, #21
 8001b90:	2201      	movs	r2, #1
 8001b92:	701a      	strb	r2, [r3, #0]
    hpcd->IN_ep[i].num = i;
 8001b94:	7bfa      	ldrb	r2, [r7, #15]
 8001b96:	6879      	ldr	r1, [r7, #4]
 8001b98:	4613      	mov	r3, r2
 8001b9a:	00db      	lsls	r3, r3, #3
 8001b9c:	4413      	add	r3, r2
 8001b9e:	009b      	lsls	r3, r3, #2
 8001ba0:	440b      	add	r3, r1
 8001ba2:	3314      	adds	r3, #20
 8001ba4:	7bfa      	ldrb	r2, [r7, #15]
 8001ba6:	701a      	strb	r2, [r3, #0]
    hpcd->IN_ep[i].tx_fifo_num = i;
 8001ba8:	7bfa      	ldrb	r2, [r7, #15]
 8001baa:	7bfb      	ldrb	r3, [r7, #15]
 8001bac:	b298      	uxth	r0, r3
 8001bae:	6879      	ldr	r1, [r7, #4]
 8001bb0:	4613      	mov	r3, r2
 8001bb2:	00db      	lsls	r3, r3, #3
 8001bb4:	4413      	add	r3, r2
 8001bb6:	009b      	lsls	r3, r3, #2
 8001bb8:	440b      	add	r3, r1
 8001bba:	332e      	adds	r3, #46	@ 0x2e
 8001bbc:	4602      	mov	r2, r0
 8001bbe:	801a      	strh	r2, [r3, #0]
    /* Control until ep is activated */
    hpcd->IN_ep[i].type = EP_TYPE_CTRL;
 8001bc0:	7bfa      	ldrb	r2, [r7, #15]
 8001bc2:	6879      	ldr	r1, [r7, #4]
 8001bc4:	4613      	mov	r3, r2
 8001bc6:	00db      	lsls	r3, r3, #3
 8001bc8:	4413      	add	r3, r2
 8001bca:	009b      	lsls	r3, r3, #2
 8001bcc:	440b      	add	r3, r1
 8001bce:	3318      	adds	r3, #24
 8001bd0:	2200      	movs	r2, #0
 8001bd2:	701a      	strb	r2, [r3, #0]
    hpcd->IN_ep[i].maxpacket = 0U;
 8001bd4:	7bfa      	ldrb	r2, [r7, #15]
 8001bd6:	6879      	ldr	r1, [r7, #4]
 8001bd8:	4613      	mov	r3, r2
 8001bda:	00db      	lsls	r3, r3, #3
 8001bdc:	4413      	add	r3, r2
 8001bde:	009b      	lsls	r3, r3, #2
 8001be0:	440b      	add	r3, r1
 8001be2:	331c      	adds	r3, #28
 8001be4:	2200      	movs	r2, #0
 8001be6:	601a      	str	r2, [r3, #0]
    hpcd->IN_ep[i].xfer_buff = 0U;
 8001be8:	7bfa      	ldrb	r2, [r7, #15]
 8001bea:	6879      	ldr	r1, [r7, #4]
 8001bec:	4613      	mov	r3, r2
 8001bee:	00db      	lsls	r3, r3, #3
 8001bf0:	4413      	add	r3, r2
 8001bf2:	009b      	lsls	r3, r3, #2
 8001bf4:	440b      	add	r3, r1
 8001bf6:	3320      	adds	r3, #32
 8001bf8:	2200      	movs	r2, #0
 8001bfa:	601a      	str	r2, [r3, #0]
    hpcd->IN_ep[i].xfer_len = 0U;
 8001bfc:	7bfa      	ldrb	r2, [r7, #15]
 8001bfe:	6879      	ldr	r1, [r7, #4]
 8001c00:	4613      	mov	r3, r2
 8001c02:	00db      	lsls	r3, r3, #3
 8001c04:	4413      	add	r3, r2
 8001c06:	009b      	lsls	r3, r3, #2
 8001c08:	440b      	add	r3, r1
 8001c0a:	3324      	adds	r3, #36	@ 0x24
 8001c0c:	2200      	movs	r2, #0
 8001c0e:	601a      	str	r2, [r3, #0]
  for (i = 0U; i < hpcd->Init.dev_endpoints; i++)
 8001c10:	7bfb      	ldrb	r3, [r7, #15]
 8001c12:	3301      	adds	r3, #1
 8001c14:	73fb      	strb	r3, [r7, #15]
 8001c16:	687b      	ldr	r3, [r7, #4]
 8001c18:	791b      	ldrb	r3, [r3, #4]
 8001c1a:	7bfa      	ldrb	r2, [r7, #15]
 8001c1c:	429a      	cmp	r2, r3
 8001c1e:	d3af      	bcc.n	8001b80 <HAL_PCD_Init+0x9c>
  }

  for (i = 0U; i < hpcd->Init.dev_endpoints; i++)
 8001c20:	2300      	movs	r3, #0
 8001c22:	73fb      	strb	r3, [r7, #15]
 8001c24:	e044      	b.n	8001cb0 <HAL_PCD_Init+0x1cc>
  {
    hpcd->OUT_ep[i].is_in = 0U;
 8001c26:	7bfa      	ldrb	r2, [r7, #15]
 8001c28:	6879      	ldr	r1, [r7, #4]
 8001c2a:	4613      	mov	r3, r2
 8001c2c:	00db      	lsls	r3, r3, #3
 8001c2e:	4413      	add	r3, r2
 8001c30:	009b      	lsls	r3, r3, #2
 8001c32:	440b      	add	r3, r1
 8001c34:	f203 2355 	addw	r3, r3, #597	@ 0x255
 8001c38:	2200      	movs	r2, #0
 8001c3a:	701a      	strb	r2, [r3, #0]
    hpcd->OUT_ep[i].num = i;
 8001c3c:	7bfa      	ldrb	r2, [r7, #15]
 8001c3e:	6879      	ldr	r1, [r7, #4]
 8001c40:	4613      	mov	r3, r2
 8001c42:	00db      	lsls	r3, r3, #3
 8001c44:	4413      	add	r3, r2
 8001c46:	009b      	lsls	r3, r3, #2
 8001c48:	440b      	add	r3, r1
 8001c4a:	f503 7315 	add.w	r3, r3, #596	@ 0x254
 8001c4e:	7bfa      	ldrb	r2, [r7, #15]
 8001c50:	701a      	strb	r2, [r3, #0]
    /* Control until ep is activated */
    hpcd->OUT_ep[i].type = EP_TYPE_CTRL;
 8001c52:	7bfa      	ldrb	r2, [r7, #15]
 8001c54:	6879      	ldr	r1, [r7, #4]
 8001c56:	4613      	mov	r3, r2
 8001c58:	00db      	lsls	r3, r3, #3
 8001c5a:	4413      	add	r3, r2
 8001c5c:	009b      	lsls	r3, r3, #2
 8001c5e:	440b      	add	r3, r1
 8001c60:	f503 7316 	add.w	r3, r3, #600	@ 0x258
 8001c64:	2200      	movs	r2, #0
 8001c66:	701a      	strb	r2, [r3, #0]
    hpcd->OUT_ep[i].maxpacket = 0U;
 8001c68:	7bfa      	ldrb	r2, [r7, #15]
 8001c6a:	6879      	ldr	r1, [r7, #4]
 8001c6c:	4613      	mov	r3, r2
 8001c6e:	00db      	lsls	r3, r3, #3
 8001c70:	4413      	add	r3, r2
 8001c72:	009b      	lsls	r3, r3, #2
 8001c74:	440b      	add	r3, r1
 8001c76:	f503 7317 	add.w	r3, r3, #604	@ 0x25c
 8001c7a:	2200      	movs	r2, #0
 8001c7c:	601a      	str	r2, [r3, #0]
    hpcd->OUT_ep[i].xfer_buff = 0U;
 8001c7e:	7bfa      	ldrb	r2, [r7, #15]
 8001c80:	6879      	ldr	r1, [r7, #4]
 8001c82:	4613      	mov	r3, r2
 8001c84:	00db      	lsls	r3, r3, #3
 8001c86:	4413      	add	r3, r2
 8001c88:	009b      	lsls	r3, r3, #2
 8001c8a:	440b      	add	r3, r1
 8001c8c:	f503 7318 	add.w	r3, r3, #608	@ 0x260
 8001c90:	2200      	movs	r2, #0
 8001c92:	601a      	str	r2, [r3, #0]
    hpcd->OUT_ep[i].xfer_len = 0U;
 8001c94:	7bfa      	ldrb	r2, [r7, #15]
 8001c96:	6879      	ldr	r1, [r7, #4]
 8001c98:	4613      	mov	r3, r2
 8001c9a:	00db      	lsls	r3, r3, #3
 8001c9c:	4413      	add	r3, r2
 8001c9e:	009b      	lsls	r3, r3, #2
 8001ca0:	440b      	add	r3, r1
 8001ca2:	f503 7319 	add.w	r3, r3, #612	@ 0x264
 8001ca6:	2200      	movs	r2, #0
 8001ca8:	601a      	str	r2, [r3, #0]
  for (i = 0U; i < hpcd->Init.dev_endpoints; i++)
 8001caa:	7bfb      	ldrb	r3, [r7, #15]
 8001cac:	3301      	adds	r3, #1
 8001cae:	73fb      	strb	r3, [r7, #15]
 8001cb0:	687b      	ldr	r3, [r7, #4]
 8001cb2:	791b      	ldrb	r3, [r3, #4]
 8001cb4:	7bfa      	ldrb	r2, [r7, #15]
 8001cb6:	429a      	cmp	r2, r3
 8001cb8:	d3b5      	bcc.n	8001c26 <HAL_PCD_Init+0x142>
  }

  /* Init Device */
  if (USB_DevInit(hpcd->Instance, hpcd->Init) != HAL_OK)
 8001cba:	687b      	ldr	r3, [r7, #4]
 8001cbc:	6818      	ldr	r0, [r3, #0]
 8001cbe:	687b      	ldr	r3, [r7, #4]
 8001cc0:	7c1a      	ldrb	r2, [r3, #16]
 8001cc2:	f88d 2000 	strb.w	r2, [sp]
 8001cc6:	3304      	adds	r3, #4
 8001cc8:	cb0e      	ldmia	r3, {r1, r2, r3}
 8001cca:	f002 fa5f 	bl	800418c <USB_DevInit>
 8001cce:	4603      	mov	r3, r0
 8001cd0:	2b00      	cmp	r3, #0
 8001cd2:	d005      	beq.n	8001ce0 <HAL_PCD_Init+0x1fc>
  {
    hpcd->State = HAL_PCD_STATE_ERROR;
 8001cd4:	687b      	ldr	r3, [r7, #4]
 8001cd6:	2202      	movs	r2, #2
 8001cd8:	f883 2495 	strb.w	r2, [r3, #1173]	@ 0x495
    return HAL_ERROR;
 8001cdc:	2301      	movs	r3, #1
 8001cde:	e00c      	b.n	8001cfa <HAL_PCD_Init+0x216>
  }

  hpcd->USB_Address = 0U;
 8001ce0:	687b      	ldr	r3, [r7, #4]
 8001ce2:	2200      	movs	r2, #0
 8001ce4:	745a      	strb	r2, [r3, #17]
  hpcd->State = HAL_PCD_STATE_READY;
 8001ce6:	687b      	ldr	r3, [r7, #4]
 8001ce8:	2201      	movs	r2, #1
 8001cea:	f883 2495 	strb.w	r2, [r3, #1173]	@ 0x495
    (void)HAL_PCDEx_ActivateLPM(hpcd);
  }
#endif /* defined(STM32F446xx) || defined(STM32F469xx) || defined(STM32F479xx) || defined(STM32F412Zx) ||
          defined(STM32F412Vx) || defined(STM32F412Rx) || defined(STM32F412Cx) || defined(STM32F413xx) ||
          defined(STM32F423xx) */
  (void)USB_DevDisconnect(hpcd->Instance);
 8001cee:	687b      	ldr	r3, [r7, #4]
 8001cf0:	681b      	ldr	r3, [r3, #0]
 8001cf2:	4618      	mov	r0, r3
 8001cf4:	f003 faa9 	bl	800524a <USB_DevDisconnect>

  return HAL_OK;
 8001cf8:	2300      	movs	r3, #0
}
 8001cfa:	4618      	mov	r0, r3
 8001cfc:	3710      	adds	r7, #16
 8001cfe:	46bd      	mov	sp, r7
 8001d00:	bd80      	pop	{r7, pc}

08001d02 <HAL_PCD_Start>:
  * @brief  Start the USB device
  * @param  hpcd PCD handle
  * @retval HAL status
  */
HAL_StatusTypeDef HAL_PCD_Start(PCD_HandleTypeDef *hpcd)
{
 8001d02:	b580      	push	{r7, lr}
 8001d04:	b084      	sub	sp, #16
 8001d06:	af00      	add	r7, sp, #0
 8001d08:	6078      	str	r0, [r7, #4]
  USB_OTG_GlobalTypeDef *USBx = hpcd->Instance;
 8001d0a:	687b      	ldr	r3, [r7, #4]
 8001d0c:	681b      	ldr	r3, [r3, #0]
 8001d0e:	60fb      	str	r3, [r7, #12]

  __HAL_LOCK(hpcd);
 8001d10:	687b      	ldr	r3, [r7, #4]
 8001d12:	f893 3494 	ldrb.w	r3, [r3, #1172]	@ 0x494
 8001d16:	2b01      	cmp	r3, #1
 8001d18:	d101      	bne.n	8001d1e <HAL_PCD_Start+0x1c>
 8001d1a:	2302      	movs	r3, #2
 8001d1c:	e022      	b.n	8001d64 <HAL_PCD_Start+0x62>
 8001d1e:	687b      	ldr	r3, [r7, #4]
 8001d20:	2201      	movs	r2, #1
 8001d22:	f883 2494 	strb.w	r2, [r3, #1172]	@ 0x494

  if (((USBx->GUSBCFG & USB_OTG_GUSBCFG_PHYSEL) != 0U) &&
 8001d26:	68fb      	ldr	r3, [r7, #12]
 8001d28:	68db      	ldr	r3, [r3, #12]
 8001d2a:	f003 0340 	and.w	r3, r3, #64	@ 0x40
 8001d2e:	2b00      	cmp	r3, #0
 8001d30:	d009      	beq.n	8001d46 <HAL_PCD_Start+0x44>
      (hpcd->Init.battery_charging_enable == 1U))
 8001d32:	687b      	ldr	r3, [r7, #4]
 8001d34:	7b5b      	ldrb	r3, [r3, #13]
  if (((USBx->GUSBCFG & USB_OTG_GUSBCFG_PHYSEL) != 0U) &&
 8001d36:	2b01      	cmp	r3, #1
 8001d38:	d105      	bne.n	8001d46 <HAL_PCD_Start+0x44>
  {
    /* Enable USB Transceiver */
    USBx->GCCFG |= USB_OTG_GCCFG_PWRDWN;
 8001d3a:	68fb      	ldr	r3, [r7, #12]
 8001d3c:	6b9b      	ldr	r3, [r3, #56]	@ 0x38
 8001d3e:	f443 3280 	orr.w	r2, r3, #65536	@ 0x10000
 8001d42:	68fb      	ldr	r3, [r7, #12]
 8001d44:	639a      	str	r2, [r3, #56]	@ 0x38
  }

  __HAL_PCD_ENABLE(hpcd);
 8001d46:	687b      	ldr	r3, [r7, #4]
 8001d48:	681b      	ldr	r3, [r3, #0]
 8001d4a:	4618      	mov	r0, r3
 8001d4c:	f002 f9b0 	bl	80040b0 <USB_EnableGlobalInt>
  (void)USB_DevConnect(hpcd->Instance);
 8001d50:	687b      	ldr	r3, [r7, #4]
 8001d52:	681b      	ldr	r3, [r3, #0]
 8001d54:	4618      	mov	r0, r3
 8001d56:	f003 fa57 	bl	8005208 <USB_DevConnect>
  __HAL_UNLOCK(hpcd);
 8001d5a:	687b      	ldr	r3, [r7, #4]
 8001d5c:	2200      	movs	r2, #0
 8001d5e:	f883 2494 	strb.w	r2, [r3, #1172]	@ 0x494

  return HAL_OK;
 8001d62:	2300      	movs	r3, #0
}
 8001d64:	4618      	mov	r0, r3
 8001d66:	3710      	adds	r7, #16
 8001d68:	46bd      	mov	sp, r7
 8001d6a:	bd80      	pop	{r7, pc}

08001d6c <HAL_PCD_IRQHandler>:
  * @brief  Handles PCD interrupt request.
  * @param  hpcd PCD handle
  * @retval HAL status
  */
void HAL_PCD_IRQHandler(PCD_HandleTypeDef *hpcd)
{
 8001d6c:	b590      	push	{r4, r7, lr}
 8001d6e:	b08d      	sub	sp, #52	@ 0x34
 8001d70:	af00      	add	r7, sp, #0
 8001d72:	6078      	str	r0, [r7, #4]
  USB_OTG_GlobalTypeDef *USBx = hpcd->Instance;
 8001d74:	687b      	ldr	r3, [r7, #4]
 8001d76:	681b      	ldr	r3, [r3, #0]
 8001d78:	623b      	str	r3, [r7, #32]
  uint32_t USBx_BASE = (uint32_t)USBx;
 8001d7a:	6a3b      	ldr	r3, [r7, #32]
 8001d7c:	61fb      	str	r3, [r7, #28]
  uint32_t epnum;
  uint32_t fifoemptymsk;
  uint32_t RegVal;

  /* ensure that we are in device mode */
  if (USB_GetMode(hpcd->Instance) == USB_OTG_MODE_DEVICE)
 8001d7e:	687b      	ldr	r3, [r7, #4]
 8001d80:	681b      	ldr	r3, [r3, #0]
 8001d82:	4618      	mov	r0, r3
 8001d84:	f003 fb15 	bl	80053b2 <USB_GetMode>
 8001d88:	4603      	mov	r3, r0
 8001d8a:	2b00      	cmp	r3, #0
 8001d8c:	f040 848c 	bne.w	80026a8 <HAL_PCD_IRQHandler+0x93c>
  {
    /* avoid spurious interrupt */
    if (__HAL_PCD_IS_INVALID_INTERRUPT(hpcd))
 8001d90:	687b      	ldr	r3, [r7, #4]
 8001d92:	681b      	ldr	r3, [r3, #0]
 8001d94:	4618      	mov	r0, r3
 8001d96:	f003 fa79 	bl	800528c <USB_ReadInterrupts>
 8001d9a:	4603      	mov	r3, r0
 8001d9c:	2b00      	cmp	r3, #0
 8001d9e:	f000 8482 	beq.w	80026a6 <HAL_PCD_IRQHandler+0x93a>
    {
      return;
    }

    /* store current frame number */
    hpcd->FrameNumber = (USBx_DEVICE->DSTS & USB_OTG_DSTS_FNSOF_Msk) >> USB_OTG_DSTS_FNSOF_Pos;
 8001da2:	69fb      	ldr	r3, [r7, #28]
 8001da4:	f503 6300 	add.w	r3, r3, #2048	@ 0x800
 8001da8:	689b      	ldr	r3, [r3, #8]
 8001daa:	0a1b      	lsrs	r3, r3, #8
 8001dac:	f3c3 020d 	ubfx	r2, r3, #0, #14
 8001db0:	687b      	ldr	r3, [r7, #4]
 8001db2:	f8c3 24d4 	str.w	r2, [r3, #1236]	@ 0x4d4

    if (__HAL_PCD_GET_FLAG(hpcd, USB_OTG_GINTSTS_MMIS))
 8001db6:	687b      	ldr	r3, [r7, #4]
 8001db8:	681b      	ldr	r3, [r3, #0]
 8001dba:	4618      	mov	r0, r3
 8001dbc:	f003 fa66 	bl	800528c <USB_ReadInterrupts>
 8001dc0:	4603      	mov	r3, r0
 8001dc2:	f003 0302 	and.w	r3, r3, #2
 8001dc6:	2b02      	cmp	r3, #2
 8001dc8:	d107      	bne.n	8001dda <HAL_PCD_IRQHandler+0x6e>
    {
      /* incorrect mode, acknowledge the interrupt */
      __HAL_PCD_CLEAR_FLAG(hpcd, USB_OTG_GINTSTS_MMIS);
 8001dca:	687b      	ldr	r3, [r7, #4]
 8001dcc:	681b      	ldr	r3, [r3, #0]
 8001dce:	695a      	ldr	r2, [r3, #20]
 8001dd0:	687b      	ldr	r3, [r7, #4]
 8001dd2:	681b      	ldr	r3, [r3, #0]
 8001dd4:	f002 0202 	and.w	r2, r2, #2
 8001dd8:	615a      	str	r2, [r3, #20]
    }

    /* Handle RxQLevel Interrupt */
    if (__HAL_PCD_GET_FLAG(hpcd, USB_OTG_GINTSTS_RXFLVL))
 8001dda:	687b      	ldr	r3, [r7, #4]
 8001ddc:	681b      	ldr	r3, [r3, #0]
 8001dde:	4618      	mov	r0, r3
 8001de0:	f003 fa54 	bl	800528c <USB_ReadInterrupts>
 8001de4:	4603      	mov	r3, r0
 8001de6:	f003 0310 	and.w	r3, r3, #16
 8001dea:	2b10      	cmp	r3, #16
 8001dec:	d161      	bne.n	8001eb2 <HAL_PCD_IRQHandler+0x146>
    {
      USB_MASK_INTERRUPT(hpcd->Instance, USB_OTG_GINTSTS_RXFLVL);
 8001dee:	687b      	ldr	r3, [r7, #4]
 8001df0:	681b      	ldr	r3, [r3, #0]
 8001df2:	699a      	ldr	r2, [r3, #24]
 8001df4:	687b      	ldr	r3, [r7, #4]
 8001df6:	681b      	ldr	r3, [r3, #0]
 8001df8:	f022 0210 	bic.w	r2, r2, #16
 8001dfc:	619a      	str	r2, [r3, #24]

      RegVal = USBx->GRXSTSP;
 8001dfe:	6a3b      	ldr	r3, [r7, #32]
 8001e00:	6a1b      	ldr	r3, [r3, #32]
 8001e02:	61bb      	str	r3, [r7, #24]

      ep = &hpcd->OUT_ep[RegVal & USB_OTG_GRXSTSP_EPNUM];
 8001e04:	69bb      	ldr	r3, [r7, #24]
 8001e06:	f003 020f 	and.w	r2, r3, #15
 8001e0a:	4613      	mov	r3, r2
 8001e0c:	00db      	lsls	r3, r3, #3
 8001e0e:	4413      	add	r3, r2
 8001e10:	009b      	lsls	r3, r3, #2
 8001e12:	f503 7314 	add.w	r3, r3, #592	@ 0x250
 8001e16:	687a      	ldr	r2, [r7, #4]
 8001e18:	4413      	add	r3, r2
 8001e1a:	3304      	adds	r3, #4
 8001e1c:	617b      	str	r3, [r7, #20]

      if (((RegVal & USB_OTG_GRXSTSP_PKTSTS) >> 17) ==  STS_DATA_UPDT)
 8001e1e:	69bb      	ldr	r3, [r7, #24]
 8001e20:	0c5b      	lsrs	r3, r3, #17
 8001e22:	f003 030f 	and.w	r3, r3, #15
 8001e26:	2b02      	cmp	r3, #2
 8001e28:	d124      	bne.n	8001e74 <HAL_PCD_IRQHandler+0x108>
      {
        if ((RegVal & USB_OTG_GRXSTSP_BCNT) != 0U)
 8001e2a:	69ba      	ldr	r2, [r7, #24]
 8001e2c:	f647 73f0 	movw	r3, #32752	@ 0x7ff0
 8001e30:	4013      	ands	r3, r2
 8001e32:	2b00      	cmp	r3, #0
 8001e34:	d035      	beq.n	8001ea2 <HAL_PCD_IRQHandler+0x136>
        {
          (void)USB_ReadPacket(USBx, ep->xfer_buff,
 8001e36:	697b      	ldr	r3, [r7, #20]
 8001e38:	68d9      	ldr	r1, [r3, #12]
                               (uint16_t)((RegVal & USB_OTG_GRXSTSP_BCNT) >> 4));
 8001e3a:	69bb      	ldr	r3, [r7, #24]
 8001e3c:	091b      	lsrs	r3, r3, #4
 8001e3e:	b29b      	uxth	r3, r3
          (void)USB_ReadPacket(USBx, ep->xfer_buff,
 8001e40:	f3c3 030a 	ubfx	r3, r3, #0, #11
 8001e44:	b29b      	uxth	r3, r3
 8001e46:	461a      	mov	r2, r3
 8001e48:	6a38      	ldr	r0, [r7, #32]
 8001e4a:	f003 f88b 	bl	8004f64 <USB_ReadPacket>

          ep->xfer_buff += (RegVal & USB_OTG_GRXSTSP_BCNT) >> 4;
 8001e4e:	697b      	ldr	r3, [r7, #20]
 8001e50:	68da      	ldr	r2, [r3, #12]
 8001e52:	69bb      	ldr	r3, [r7, #24]
 8001e54:	091b      	lsrs	r3, r3, #4
 8001e56:	f3c3 030a 	ubfx	r3, r3, #0, #11
 8001e5a:	441a      	add	r2, r3
 8001e5c:	697b      	ldr	r3, [r7, #20]
 8001e5e:	60da      	str	r2, [r3, #12]
          ep->xfer_count += (RegVal & USB_OTG_GRXSTSP_BCNT) >> 4;
 8001e60:	697b      	ldr	r3, [r7, #20]
 8001e62:	695a      	ldr	r2, [r3, #20]
 8001e64:	69bb      	ldr	r3, [r7, #24]
 8001e66:	091b      	lsrs	r3, r3, #4
 8001e68:	f3c3 030a 	ubfx	r3, r3, #0, #11
 8001e6c:	441a      	add	r2, r3
 8001e6e:	697b      	ldr	r3, [r7, #20]
 8001e70:	615a      	str	r2, [r3, #20]
 8001e72:	e016      	b.n	8001ea2 <HAL_PCD_IRQHandler+0x136>
        }
      }
      else if (((RegVal & USB_OTG_GRXSTSP_PKTSTS) >> 17) == STS_SETUP_UPDT)
 8001e74:	69bb      	ldr	r3, [r7, #24]
 8001e76:	0c5b      	lsrs	r3, r3, #17
 8001e78:	f003 030f 	and.w	r3, r3, #15
 8001e7c:	2b06      	cmp	r3, #6
 8001e7e:	d110      	bne.n	8001ea2 <HAL_PCD_IRQHandler+0x136>
      {
        (void)USB_ReadPacket(USBx, (uint8_t *)hpcd->Setup, 8U);
 8001e80:	687b      	ldr	r3, [r7, #4]
 8001e82:	f203 439c 	addw	r3, r3, #1180	@ 0x49c
 8001e86:	2208      	movs	r2, #8
 8001e88:	4619      	mov	r1, r3
 8001e8a:	6a38      	ldr	r0, [r7, #32]
 8001e8c:	f003 f86a 	bl	8004f64 <USB_ReadPacket>
        ep->xfer_count += (RegVal & USB_OTG_GRXSTSP_BCNT) >> 4;
 8001e90:	697b      	ldr	r3, [r7, #20]
 8001e92:	695a      	ldr	r2, [r3, #20]
 8001e94:	69bb      	ldr	r3, [r7, #24]
 8001e96:	091b      	lsrs	r3, r3, #4
 8001e98:	f3c3 030a 	ubfx	r3, r3, #0, #11
 8001e9c:	441a      	add	r2, r3
 8001e9e:	697b      	ldr	r3, [r7, #20]
 8001ea0:	615a      	str	r2, [r3, #20]
      else
      {
        /* ... */
      }

      USB_UNMASK_INTERRUPT(hpcd->Instance, USB_OTG_GINTSTS_RXFLVL);
 8001ea2:	687b      	ldr	r3, [r7, #4]
 8001ea4:	681b      	ldr	r3, [r3, #0]
 8001ea6:	699a      	ldr	r2, [r3, #24]
 8001ea8:	687b      	ldr	r3, [r7, #4]
 8001eaa:	681b      	ldr	r3, [r3, #0]
 8001eac:	f042 0210 	orr.w	r2, r2, #16
 8001eb0:	619a      	str	r2, [r3, #24]
    }

    if (__HAL_PCD_GET_FLAG(hpcd, USB_OTG_GINTSTS_OEPINT))
 8001eb2:	687b      	ldr	r3, [r7, #4]
 8001eb4:	681b      	ldr	r3, [r3, #0]
 8001eb6:	4618      	mov	r0, r3
 8001eb8:	f003 f9e8 	bl	800528c <USB_ReadInterrupts>
 8001ebc:	4603      	mov	r3, r0
 8001ebe:	f403 2300 	and.w	r3, r3, #524288	@ 0x80000
 8001ec2:	f5b3 2f00 	cmp.w	r3, #524288	@ 0x80000
 8001ec6:	f040 80a7 	bne.w	8002018 <HAL_PCD_IRQHandler+0x2ac>
    {
      epnum = 0U;
 8001eca:	2300      	movs	r3, #0
 8001ecc:	627b      	str	r3, [r7, #36]	@ 0x24

      /* Read in the device interrupt bits */
      ep_intr = USB_ReadDevAllOutEpInterrupt(hpcd->Instance);
 8001ece:	687b      	ldr	r3, [r7, #4]
 8001ed0:	681b      	ldr	r3, [r3, #0]
 8001ed2:	4618      	mov	r0, r3
 8001ed4:	f003 f9ed 	bl	80052b2 <USB_ReadDevAllOutEpInterrupt>
 8001ed8:	62b8      	str	r0, [r7, #40]	@ 0x28

      while (ep_intr != 0U)
 8001eda:	e099      	b.n	8002010 <HAL_PCD_IRQHandler+0x2a4>
      {
        if ((ep_intr & 0x1U) != 0U)
 8001edc:	6abb      	ldr	r3, [r7, #40]	@ 0x28
 8001ede:	f003 0301 	and.w	r3, r3, #1
 8001ee2:	2b00      	cmp	r3, #0
 8001ee4:	f000 808e 	beq.w	8002004 <HAL_PCD_IRQHandler+0x298>
        {
          epint = USB_ReadDevOutEPInterrupt(hpcd->Instance, (uint8_t)epnum);
 8001ee8:	687b      	ldr	r3, [r7, #4]
 8001eea:	681b      	ldr	r3, [r3, #0]
 8001eec:	6a7a      	ldr	r2, [r7, #36]	@ 0x24
 8001eee:	b2d2      	uxtb	r2, r2
 8001ef0:	4611      	mov	r1, r2
 8001ef2:	4618      	mov	r0, r3
 8001ef4:	f003 fa11 	bl	800531a <USB_ReadDevOutEPInterrupt>
 8001ef8:	6138      	str	r0, [r7, #16]

          if ((epint & USB_OTG_DOEPINT_XFRC) == USB_OTG_DOEPINT_XFRC)
 8001efa:	693b      	ldr	r3, [r7, #16]
 8001efc:	f003 0301 	and.w	r3, r3, #1
 8001f00:	2b00      	cmp	r3, #0
 8001f02:	d00c      	beq.n	8001f1e <HAL_PCD_IRQHandler+0x1b2>
          {
            CLEAR_OUT_EP_INTR(epnum, USB_OTG_DOEPINT_XFRC);
 8001f04:	6a7b      	ldr	r3, [r7, #36]	@ 0x24
 8001f06:	015a      	lsls	r2, r3, #5
 8001f08:	69fb      	ldr	r3, [r7, #28]
 8001f0a:	4413      	add	r3, r2
 8001f0c:	f503 6330 	add.w	r3, r3, #2816	@ 0xb00
 8001f10:	461a      	mov	r2, r3
 8001f12:	2301      	movs	r3, #1
 8001f14:	6093      	str	r3, [r2, #8]
            (void)PCD_EP_OutXfrComplete_int(hpcd, epnum);
 8001f16:	6a79      	ldr	r1, [r7, #36]	@ 0x24
 8001f18:	6878      	ldr	r0, [r7, #4]
 8001f1a:	f000 fe8b 	bl	8002c34 <PCD_EP_OutXfrComplete_int>
          }

          if ((epint & USB_OTG_DOEPINT_STUP) == USB_OTG_DOEPINT_STUP)
 8001f1e:	693b      	ldr	r3, [r7, #16]
 8001f20:	f003 0308 	and.w	r3, r3, #8
 8001f24:	2b00      	cmp	r3, #0
 8001f26:	d00c      	beq.n	8001f42 <HAL_PCD_IRQHandler+0x1d6>
          {
            CLEAR_OUT_EP_INTR(epnum, USB_OTG_DOEPINT_STUP);
 8001f28:	6a7b      	ldr	r3, [r7, #36]	@ 0x24
 8001f2a:	015a      	lsls	r2, r3, #5
 8001f2c:	69fb      	ldr	r3, [r7, #28]
 8001f2e:	4413      	add	r3, r2
 8001f30:	f503 6330 	add.w	r3, r3, #2816	@ 0xb00
 8001f34:	461a      	mov	r2, r3
 8001f36:	2308      	movs	r3, #8
 8001f38:	6093      	str	r3, [r2, #8]
            /* Class B setup phase done for previous decoded setup */
            (void)PCD_EP_OutSetupPacket_int(hpcd, epnum);
 8001f3a:	6a79      	ldr	r1, [r7, #36]	@ 0x24
 8001f3c:	6878      	ldr	r0, [r7, #4]
 8001f3e:	f000 ff61 	bl	8002e04 <PCD_EP_OutSetupPacket_int>
          }

          if ((epint & USB_OTG_DOEPINT_OTEPDIS) == USB_OTG_DOEPINT_OTEPDIS)
 8001f42:	693b      	ldr	r3, [r7, #16]
 8001f44:	f003 0310 	and.w	r3, r3, #16
 8001f48:	2b00      	cmp	r3, #0
 8001f4a:	d008      	beq.n	8001f5e <HAL_PCD_IRQHandler+0x1f2>
          {
            CLEAR_OUT_EP_INTR(epnum, USB_OTG_DOEPINT_OTEPDIS);
 8001f4c:	6a7b      	ldr	r3, [r7, #36]	@ 0x24
 8001f4e:	015a      	lsls	r2, r3, #5
 8001f50:	69fb      	ldr	r3, [r7, #28]
 8001f52:	4413      	add	r3, r2
 8001f54:	f503 6330 	add.w	r3, r3, #2816	@ 0xb00
 8001f58:	461a      	mov	r2, r3
 8001f5a:	2310      	movs	r3, #16
 8001f5c:	6093      	str	r3, [r2, #8]
          }

          /* Clear OUT Endpoint disable interrupt */
          if ((epint & USB_OTG_DOEPINT_EPDISD) == USB_OTG_DOEPINT_EPDISD)
 8001f5e:	693b      	ldr	r3, [r7, #16]
 8001f60:	f003 0302 	and.w	r3, r3, #2
 8001f64:	2b00      	cmp	r3, #0
 8001f66:	d030      	beq.n	8001fca <HAL_PCD_IRQHandler+0x25e>
          {
            if ((USBx->GINTSTS & USB_OTG_GINTSTS_BOUTNAKEFF) == USB_OTG_GINTSTS_BOUTNAKEFF)
 8001f68:	6a3b      	ldr	r3, [r7, #32]
 8001f6a:	695b      	ldr	r3, [r3, #20]
 8001f6c:	f003 0380 	and.w	r3, r3, #128	@ 0x80
 8001f70:	2b80      	cmp	r3, #128	@ 0x80
 8001f72:	d109      	bne.n	8001f88 <HAL_PCD_IRQHandler+0x21c>
            {
              USBx_DEVICE->DCTL |= USB_OTG_DCTL_CGONAK;
 8001f74:	69fb      	ldr	r3, [r7, #28]
 8001f76:	f503 6300 	add.w	r3, r3, #2048	@ 0x800
 8001f7a:	685b      	ldr	r3, [r3, #4]
 8001f7c:	69fa      	ldr	r2, [r7, #28]
 8001f7e:	f502 6200 	add.w	r2, r2, #2048	@ 0x800
 8001f82:	f443 6380 	orr.w	r3, r3, #1024	@ 0x400
 8001f86:	6053      	str	r3, [r2, #4]
            }

            ep = &hpcd->OUT_ep[epnum];
 8001f88:	6a7a      	ldr	r2, [r7, #36]	@ 0x24
 8001f8a:	4613      	mov	r3, r2
 8001f8c:	00db      	lsls	r3, r3, #3
 8001f8e:	4413      	add	r3, r2
 8001f90:	009b      	lsls	r3, r3, #2
 8001f92:	f503 7314 	add.w	r3, r3, #592	@ 0x250
 8001f96:	687a      	ldr	r2, [r7, #4]
 8001f98:	4413      	add	r3, r2
 8001f9a:	3304      	adds	r3, #4
 8001f9c:	617b      	str	r3, [r7, #20]

            if (ep->is_iso_incomplete == 1U)
 8001f9e:	697b      	ldr	r3, [r7, #20]
 8001fa0:	78db      	ldrb	r3, [r3, #3]
 8001fa2:	2b01      	cmp	r3, #1
 8001fa4:	d108      	bne.n	8001fb8 <HAL_PCD_IRQHandler+0x24c>
            {
              ep->is_iso_incomplete = 0U;
 8001fa6:	697b      	ldr	r3, [r7, #20]
 8001fa8:	2200      	movs	r2, #0
 8001faa:	70da      	strb	r2, [r3, #3]

#if (USE_HAL_PCD_REGISTER_CALLBACKS == 1U)
              hpcd->ISOOUTIncompleteCallback(hpcd, (uint8_t)epnum);
#else
              HAL_PCD_ISOOUTIncompleteCallback(hpcd, (uint8_t)epnum);
 8001fac:	6a7b      	ldr	r3, [r7, #36]	@ 0x24
 8001fae:	b2db      	uxtb	r3, r3
 8001fb0:	4619      	mov	r1, r3
 8001fb2:	6878      	ldr	r0, [r7, #4]
 8001fb4:	f005 fa00 	bl	80073b8 <HAL_PCD_ISOOUTIncompleteCallback>
#endif /* USE_HAL_PCD_REGISTER_CALLBACKS */
            }

            CLEAR_OUT_EP_INTR(epnum, USB_OTG_DOEPINT_EPDISD);
 8001fb8:	6a7b      	ldr	r3, [r7, #36]	@ 0x24
 8001fba:	015a      	lsls	r2, r3, #5
 8001fbc:	69fb      	ldr	r3, [r7, #28]
 8001fbe:	4413      	add	r3, r2
 8001fc0:	f503 6330 	add.w	r3, r3, #2816	@ 0xb00
 8001fc4:	461a      	mov	r2, r3
 8001fc6:	2302      	movs	r3, #2
 8001fc8:	6093      	str	r3, [r2, #8]
          }

          /* Clear Status Phase Received interrupt */
          if ((epint & USB_OTG_DOEPINT_OTEPSPR) == USB_OTG_DOEPINT_OTEPSPR)
 8001fca:	693b      	ldr	r3, [r7, #16]
 8001fcc:	f003 0320 	and.w	r3, r3, #32
 8001fd0:	2b00      	cmp	r3, #0
 8001fd2:	d008      	beq.n	8001fe6 <HAL_PCD_IRQHandler+0x27a>
          {
            CLEAR_OUT_EP_INTR(epnum, USB_OTG_DOEPINT_OTEPSPR);
 8001fd4:	6a7b      	ldr	r3, [r7, #36]	@ 0x24
 8001fd6:	015a      	lsls	r2, r3, #5
 8001fd8:	69fb      	ldr	r3, [r7, #28]
 8001fda:	4413      	add	r3, r2
 8001fdc:	f503 6330 	add.w	r3, r3, #2816	@ 0xb00
 8001fe0:	461a      	mov	r2, r3
 8001fe2:	2320      	movs	r3, #32
 8001fe4:	6093      	str	r3, [r2, #8]
          }

          /* Clear OUT NAK interrupt */
          if ((epint & USB_OTG_DOEPINT_NAK) == USB_OTG_DOEPINT_NAK)
 8001fe6:	693b      	ldr	r3, [r7, #16]
 8001fe8:	f403 5300 	and.w	r3, r3, #8192	@ 0x2000
 8001fec:	2b00      	cmp	r3, #0
 8001fee:	d009      	beq.n	8002004 <HAL_PCD_IRQHandler+0x298>
          {
            CLEAR_OUT_EP_INTR(epnum, USB_OTG_DOEPINT_NAK);
 8001ff0:	6a7b      	ldr	r3, [r7, #36]	@ 0x24
 8001ff2:	015a      	lsls	r2, r3, #5
 8001ff4:	69fb      	ldr	r3, [r7, #28]
 8001ff6:	4413      	add	r3, r2
 8001ff8:	f503 6330 	add.w	r3, r3, #2816	@ 0xb00
 8001ffc:	461a      	mov	r2, r3
 8001ffe:	f44f 5300 	mov.w	r3, #8192	@ 0x2000
 8002002:	6093      	str	r3, [r2, #8]
          }
        }
        epnum++;
 8002004:	6a7b      	ldr	r3, [r7, #36]	@ 0x24
 8002006:	3301      	adds	r3, #1
 8002008:	627b      	str	r3, [r7, #36]	@ 0x24
        ep_intr >>= 1U;
 800200a:	6abb      	ldr	r3, [r7, #40]	@ 0x28
 800200c:	085b      	lsrs	r3, r3, #1
 800200e:	62bb      	str	r3, [r7, #40]	@ 0x28
      while (ep_intr != 0U)
 8002010:	6abb      	ldr	r3, [r7, #40]	@ 0x28
 8002012:	2b00      	cmp	r3, #0
 8002014:	f47f af62 	bne.w	8001edc <HAL_PCD_IRQHandler+0x170>
      }
    }

    if (__HAL_PCD_GET_FLAG(hpcd, USB_OTG_GINTSTS_IEPINT))
 8002018:	687b      	ldr	r3, [r7, #4]
 800201a:	681b      	ldr	r3, [r3, #0]
 800201c:	4618      	mov	r0, r3
 800201e:	f003 f935 	bl	800528c <USB_ReadInterrupts>
 8002022:	4603      	mov	r3, r0
 8002024:	f403 2380 	and.w	r3, r3, #262144	@ 0x40000
 8002028:	f5b3 2f80 	cmp.w	r3, #262144	@ 0x40000
 800202c:	f040 80db 	bne.w	80021e6 <HAL_PCD_IRQHandler+0x47a>
    {
      /* Read in the device interrupt bits */
      ep_intr = USB_ReadDevAllInEpInterrupt(hpcd->Instance);
 8002030:	687b      	ldr	r3, [r7, #4]
 8002032:	681b      	ldr	r3, [r3, #0]
 8002034:	4618      	mov	r0, r3
 8002036:	f003 f956 	bl	80052e6 <USB_ReadDevAllInEpInterrupt>
 800203a:	62b8      	str	r0, [r7, #40]	@ 0x28

      epnum = 0U;
 800203c:	2300      	movs	r3, #0
 800203e:	627b      	str	r3, [r7, #36]	@ 0x24

      while (ep_intr != 0U)
 8002040:	e0cd      	b.n	80021de <HAL_PCD_IRQHandler+0x472>
      {
        if ((ep_intr & 0x1U) != 0U) /* In ITR */
 8002042:	6abb      	ldr	r3, [r7, #40]	@ 0x28
 8002044:	f003 0301 	and.w	r3, r3, #1
 8002048:	2b00      	cmp	r3, #0
 800204a:	f000 80c2 	beq.w	80021d2 <HAL_PCD_IRQHandler+0x466>
        {
          epint = USB_ReadDevInEPInterrupt(hpcd->Instance, (uint8_t)epnum);
 800204e:	687b      	ldr	r3, [r7, #4]
 8002050:	681b      	ldr	r3, [r3, #0]
 8002052:	6a7a      	ldr	r2, [r7, #36]	@ 0x24
 8002054:	b2d2      	uxtb	r2, r2
 8002056:	4611      	mov	r1, r2
 8002058:	4618      	mov	r0, r3
 800205a:	f003 f97c 	bl	8005356 <USB_ReadDevInEPInterrupt>
 800205e:	6138      	str	r0, [r7, #16]

          if ((epint & USB_OTG_DIEPINT_XFRC) == USB_OTG_DIEPINT_XFRC)
 8002060:	693b      	ldr	r3, [r7, #16]
 8002062:	f003 0301 	and.w	r3, r3, #1
 8002066:	2b00      	cmp	r3, #0
 8002068:	d057      	beq.n	800211a <HAL_PCD_IRQHandler+0x3ae>
          {
            fifoemptymsk = (uint32_t)(0x1UL << (epnum & EP_ADDR_MSK));
 800206a:	6a7b      	ldr	r3, [r7, #36]	@ 0x24
 800206c:	f003 030f 	and.w	r3, r3, #15
 8002070:	2201      	movs	r2, #1
 8002072:	fa02 f303 	lsl.w	r3, r2, r3
 8002076:	60fb      	str	r3, [r7, #12]
            USBx_DEVICE->DIEPEMPMSK &= ~fifoemptymsk;
 8002078:	69fb      	ldr	r3, [r7, #28]
 800207a:	f503 6300 	add.w	r3, r3, #2048	@ 0x800
 800207e:	6b5a      	ldr	r2, [r3, #52]	@ 0x34
 8002080:	68fb      	ldr	r3, [r7, #12]
 8002082:	43db      	mvns	r3, r3
 8002084:	69f9      	ldr	r1, [r7, #28]
 8002086:	f501 6100 	add.w	r1, r1, #2048	@ 0x800
 800208a:	4013      	ands	r3, r2
 800208c:	634b      	str	r3, [r1, #52]	@ 0x34

            CLEAR_IN_EP_INTR(epnum, USB_OTG_DIEPINT_XFRC);
 800208e:	6a7b      	ldr	r3, [r7, #36]	@ 0x24
 8002090:	015a      	lsls	r2, r3, #5
 8002092:	69fb      	ldr	r3, [r7, #28]
 8002094:	4413      	add	r3, r2
 8002096:	f503 6310 	add.w	r3, r3, #2304	@ 0x900
 800209a:	461a      	mov	r2, r3
 800209c:	2301      	movs	r3, #1
 800209e:	6093      	str	r3, [r2, #8]

            if (hpcd->Init.dma_enable == 1U)
 80020a0:	687b      	ldr	r3, [r7, #4]
 80020a2:	799b      	ldrb	r3, [r3, #6]
 80020a4:	2b01      	cmp	r3, #1
 80020a6:	d132      	bne.n	800210e <HAL_PCD_IRQHandler+0x3a2>
            {
              hpcd->IN_ep[epnum].xfer_buff += hpcd->IN_ep[epnum].maxpacket;
 80020a8:	6879      	ldr	r1, [r7, #4]
 80020aa:	6a7a      	ldr	r2, [r7, #36]	@ 0x24
 80020ac:	4613      	mov	r3, r2
 80020ae:	00db      	lsls	r3, r3, #3
 80020b0:	4413      	add	r3, r2
 80020b2:	009b      	lsls	r3, r3, #2
 80020b4:	440b      	add	r3, r1
 80020b6:	3320      	adds	r3, #32
 80020b8:	6819      	ldr	r1, [r3, #0]
 80020ba:	6878      	ldr	r0, [r7, #4]
 80020bc:	6a7a      	ldr	r2, [r7, #36]	@ 0x24
 80020be:	4613      	mov	r3, r2
 80020c0:	00db      	lsls	r3, r3, #3
 80020c2:	4413      	add	r3, r2
 80020c4:	009b      	lsls	r3, r3, #2
 80020c6:	4403      	add	r3, r0
 80020c8:	331c      	adds	r3, #28
 80020ca:	681b      	ldr	r3, [r3, #0]
 80020cc:	4419      	add	r1, r3
 80020ce:	6878      	ldr	r0, [r7, #4]
 80020d0:	6a7a      	ldr	r2, [r7, #36]	@ 0x24
 80020d2:	4613      	mov	r3, r2
 80020d4:	00db      	lsls	r3, r3, #3
 80020d6:	4413      	add	r3, r2
 80020d8:	009b      	lsls	r3, r3, #2
 80020da:	4403      	add	r3, r0
 80020dc:	3320      	adds	r3, #32
 80020de:	6019      	str	r1, [r3, #0]

              /* this is ZLP, so prepare EP0 for next setup */
              if ((epnum == 0U) && (hpcd->IN_ep[epnum].xfer_len == 0U))
 80020e0:	6a7b      	ldr	r3, [r7, #36]	@ 0x24
 80020e2:	2b00      	cmp	r3, #0
 80020e4:	d113      	bne.n	800210e <HAL_PCD_IRQHandler+0x3a2>
 80020e6:	6879      	ldr	r1, [r7, #4]
 80020e8:	6a7a      	ldr	r2, [r7, #36]	@ 0x24
 80020ea:	4613      	mov	r3, r2
 80020ec:	00db      	lsls	r3, r3, #3
 80020ee:	4413      	add	r3, r2
 80020f0:	009b      	lsls	r3, r3, #2
 80020f2:	440b      	add	r3, r1
 80020f4:	3324      	adds	r3, #36	@ 0x24
 80020f6:	681b      	ldr	r3, [r3, #0]
 80020f8:	2b00      	cmp	r3, #0
 80020fa:	d108      	bne.n	800210e <HAL_PCD_IRQHandler+0x3a2>
              {
                /* prepare to rx more setup packets */
                (void)USB_EP0_OutStart(hpcd->Instance, 1U, (uint8_t *)hpcd->Setup);
 80020fc:	687b      	ldr	r3, [r7, #4]
 80020fe:	6818      	ldr	r0, [r3, #0]
 8002100:	687b      	ldr	r3, [r7, #4]
 8002102:	f203 439c 	addw	r3, r3, #1180	@ 0x49c
 8002106:	461a      	mov	r2, r3
 8002108:	2101      	movs	r1, #1
 800210a:	f003 f983 	bl	8005414 <USB_EP0_OutStart>
            }

#if (USE_HAL_PCD_REGISTER_CALLBACKS == 1U)
            hpcd->DataInStageCallback(hpcd, (uint8_t)epnum);
#else
            HAL_PCD_DataInStageCallback(hpcd, (uint8_t)epnum);
 800210e:	6a7b      	ldr	r3, [r7, #36]	@ 0x24
 8002110:	b2db      	uxtb	r3, r3
 8002112:	4619      	mov	r1, r3
 8002114:	6878      	ldr	r0, [r7, #4]
 8002116:	f005 f8d4 	bl	80072c2 <HAL_PCD_DataInStageCallback>
#endif /* USE_HAL_PCD_REGISTER_CALLBACKS */
          }
          if ((epint & USB_OTG_DIEPINT_TOC) == USB_OTG_DIEPINT_TOC)
 800211a:	693b      	ldr	r3, [r7, #16]
 800211c:	f003 0308 	and.w	r3, r3, #8
 8002120:	2b00      	cmp	r3, #0
 8002122:	d008      	beq.n	8002136 <HAL_PCD_IRQHandler+0x3ca>
          {
            CLEAR_IN_EP_INTR(epnum, USB_OTG_DIEPINT_TOC);
 8002124:	6a7b      	ldr	r3, [r7, #36]	@ 0x24
 8002126:	015a      	lsls	r2, r3, #5
 8002128:	69fb      	ldr	r3, [r7, #28]
 800212a:	4413      	add	r3, r2
 800212c:	f503 6310 	add.w	r3, r3, #2304	@ 0x900
 8002130:	461a      	mov	r2, r3
 8002132:	2308      	movs	r3, #8
 8002134:	6093      	str	r3, [r2, #8]
          }
          if ((epint & USB_OTG_DIEPINT_ITTXFE) == USB_OTG_DIEPINT_ITTXFE)
 8002136:	693b      	ldr	r3, [r7, #16]
 8002138:	f003 0310 	and.w	r3, r3, #16
 800213c:	2b00      	cmp	r3, #0
 800213e:	d008      	beq.n	8002152 <HAL_PCD_IRQHandler+0x3e6>
          {
            CLEAR_IN_EP_INTR(epnum, USB_OTG_DIEPINT_ITTXFE);
 8002140:	6a7b      	ldr	r3, [r7, #36]	@ 0x24
 8002142:	015a      	lsls	r2, r3, #5
 8002144:	69fb      	ldr	r3, [r7, #28]
 8002146:	4413      	add	r3, r2
 8002148:	f503 6310 	add.w	r3, r3, #2304	@ 0x900
 800214c:	461a      	mov	r2, r3
 800214e:	2310      	movs	r3, #16
 8002150:	6093      	str	r3, [r2, #8]
          }
          if ((epint & USB_OTG_DIEPINT_INEPNE) == USB_OTG_DIEPINT_INEPNE)
 8002152:	693b      	ldr	r3, [r7, #16]
 8002154:	f003 0340 	and.w	r3, r3, #64	@ 0x40
 8002158:	2b00      	cmp	r3, #0
 800215a:	d008      	beq.n	800216e <HAL_PCD_IRQHandler+0x402>
          {
            CLEAR_IN_EP_INTR(epnum, USB_OTG_DIEPINT_INEPNE);
 800215c:	6a7b      	ldr	r3, [r7, #36]	@ 0x24
 800215e:	015a      	lsls	r2, r3, #5
 8002160:	69fb      	ldr	r3, [r7, #28]
 8002162:	4413      	add	r3, r2
 8002164:	f503 6310 	add.w	r3, r3, #2304	@ 0x900
 8002168:	461a      	mov	r2, r3
 800216a:	2340      	movs	r3, #64	@ 0x40
 800216c:	6093      	str	r3, [r2, #8]
          }
          if ((epint & USB_OTG_DIEPINT_EPDISD) == USB_OTG_DIEPINT_EPDISD)
 800216e:	693b      	ldr	r3, [r7, #16]
 8002170:	f003 0302 	and.w	r3, r3, #2
 8002174:	2b00      	cmp	r3, #0
 8002176:	d023      	beq.n	80021c0 <HAL_PCD_IRQHandler+0x454>
          {
            (void)USB_FlushTxFifo(USBx, epnum);
 8002178:	6a79      	ldr	r1, [r7, #36]	@ 0x24
 800217a:	6a38      	ldr	r0, [r7, #32]
 800217c:	f002 f96a 	bl	8004454 <USB_FlushTxFifo>

            ep = &hpcd->IN_ep[epnum];
 8002180:	6a7a      	ldr	r2, [r7, #36]	@ 0x24
 8002182:	4613      	mov	r3, r2
 8002184:	00db      	lsls	r3, r3, #3
 8002186:	4413      	add	r3, r2
 8002188:	009b      	lsls	r3, r3, #2
 800218a:	3310      	adds	r3, #16
 800218c:	687a      	ldr	r2, [r7, #4]
 800218e:	4413      	add	r3, r2
 8002190:	3304      	adds	r3, #4
 8002192:	617b      	str	r3, [r7, #20]

            if (ep->is_iso_incomplete == 1U)
 8002194:	697b      	ldr	r3, [r7, #20]
 8002196:	78db      	ldrb	r3, [r3, #3]
 8002198:	2b01      	cmp	r3, #1
 800219a:	d108      	bne.n	80021ae <HAL_PCD_IRQHandler+0x442>
            {
              ep->is_iso_incomplete = 0U;
 800219c:	697b      	ldr	r3, [r7, #20]
 800219e:	2200      	movs	r2, #0
 80021a0:	70da      	strb	r2, [r3, #3]

#if (USE_HAL_PCD_REGISTER_CALLBACKS == 1U)
              hpcd->ISOINIncompleteCallback(hpcd, (uint8_t)epnum);
#else
              HAL_PCD_ISOINIncompleteCallback(hpcd, (uint8_t)epnum);
 80021a2:	6a7b      	ldr	r3, [r7, #36]	@ 0x24
 80021a4:	b2db      	uxtb	r3, r3
 80021a6:	4619      	mov	r1, r3
 80021a8:	6878      	ldr	r0, [r7, #4]
